{
	"data": {
		"bytecode": {
			"linkReferences": {},
			"object": "610160604052348015610010575f5ffd5b506040518060400160405280600f81526020017f4461696c7952656d6974546f6b656e0000000000000000000000000000000000815250806040518060400160405280600181526020017f31000000000000000000000000000000000000000000000000000000000000008152506040518060400160405280600f81526020017f4461696c7952656d6974546f6b656e00000000000000000000000000000000008152506040518060400160405280600381526020017f445254000000000000000000000000000000000000000000000000000000000081525081600390816100f99190611119565b5080600490816101099190611119565b50505061012060058361030260201b90919060201c565b610120818152505061013c60068261030260201b90919060201c565b6101408181525050818051906020012060e08181525050808051906020012061010081815250504660a0818152505061017961034f60201b60201c565b608081815250503073ffffffffffffffffffffffffffffffffffffffff1660c08173ffffffffffffffffffffffffffffffffffffffff16815250505050506101d36101c86103a960201b60201c565b6103b060201b60201c565b5f600c60146101000a81548160ff0219169083151502179055506001600d8190555061022d3361020761047360201b60201c565b600a6102139190611350565b633b9aca00610222919061139a565b61047b60201b60201c565b73ae1e1c414d88f5df9df3f75de05924ebffbdaa8460135f6101000a81548173ffffffffffffffffffffffffffffffffffffffff021916908373ffffffffffffffffffffffffffffffffffffffff16021790555073d346f0787e0fb3d21d7370e6708c55107bb0e15060145f6101000a81548173ffffffffffffffffffffffffffffffffffffffff021916908373ffffffffffffffffffffffffffffffffffffffff1602179055506064600e819055506064600f81905550606460108190555060646011819055506064601281905550611959565b5f6020835110156103235761031c8361048f60201b60201c565b9050610349565b82610333836104f460201b60201c565b5f0190816103419190611119565b5060ff5f1b90505b92915050565b5f7f8b73c3c69bb8fe3d512ecc4cf759cc79239f7b179b0ffacaa9a75d522b39400f60e05161010051463060405160200161038e959493929190611441565b60405160208183030381529060405280519060200120905090565b5f33905090565b5f600c5f9054906101000a900473ffffffffffffffffffffffffffffffffffffffff16905081600c5f6101000a81548173ffffffffffffffffffffffffffffffffffffffff021916908373ffffffffffffffffffffffffffffffffffffffff1602179055508173ffffffffffffffffffffffffffffffffffffffff168173ffffffffffffffffffffffffffffffffffffffff167f8be0079c531659141344cd1fd0a4f28419497f9722a3daafe3b4186f6b6457e060405160405180910390a35050565b5f6012905090565b61048b82826104fd60201b60201c565b5050565b5f5f829050601f815111156104db57826040517f305a27a90000000000000000000000000000000000000000000000000000000081526004016104d291906114f8565b60405180910390fd5b8051816104e790611545565b5f1c175f1b915050919050565b5f819050919050565b61050d82826105a960201b60201c565b61051b61070360201b60201c565b7bffffffffffffffffffffffffffffffffffffffffffffffffffffffff1661054761072660201b60201c565b1115610588576040517f08c379a000000000000000000000000000000000000000000000000000000000815260040161057f9061161b565b60405180910390fd5b6105a3600b61072f60201b611c1f178361074460201b60201c565b50505050565b5f73ffffffffffffffffffffffffffffffffffffffff168273ffffffffffffffffffffffffffffffffffffffff1603610617576040517f08c379a000000000000000000000000000000000000000000000000000000000815260040161060e90611683565b60405180910390fd5b6106285f8383610a3460201b60201c565b8060025f82825461063991906116a1565b92505081905550805f5f8473ffffffffffffffffffffffffffffffffffffffff1673ffffffffffffffffffffffffffffffffffffffff1681526020019081526020015f205f82825401925050819055508173ffffffffffffffffffffffffffffffffffffffff165f73ffffffffffffffffffffffffffffffffffffffff167fddf252ad1be2c89b69c2b068fc378daa952ba7f163c4a11628f55a4df523b3ef836040516106e691906116d4565b60405180910390a36106ff5f8383610a5860201b60201c565b5050565b5f7bffffffffffffffffffffffffffffffffffffffffffffffffffffffff905090565b5f600254905090565b5f818361073c91906116a1565b905092915050565b5f5f5f858054905090505f5f821461080a576107698760018403610a6e60201b60201c565b6040518060400160405290815f82015f9054906101000a900463ffffffff1663ffffffff1663ffffffff1681526020015f820160049054906101000a90047bffffffffffffffffffffffffffffffffffffffffffffffffffffffff167bffffffffffffffffffffffffffffffffffffffffffffffffffffffff167bffffffffffffffffffffffffffffffffffffffffffffffffffffffff1681525050610844565b60405180604001604052805f63ffffffff1681526020015f7bffffffffffffffffffffffffffffffffffffffffffffffffffffffff168152505b905080602001517bffffffffffffffffffffffffffffffffffffffffffffffffffffffff16935061087684868860201c565b92505f821180156108a45750610890610a8060201b60201c565b65ffffffffffff16815f015163ffffffff16145b15610920576108b883610a9560201b60201c565b6108cb8860018503610a6e60201b60201c565b5f0160046101000a8154817bffffffffffffffffffffffffffffffffffffffffffffffffffffffff02191690837bffffffffffffffffffffffffffffffffffffffffffffffffffffffff160217905550610a2a565b86604051806040016040528061095061093d610a8060201b60201c565b65ffffffffffff16610aff60201b60201c565b63ffffffff16815260200161096a86610a9560201b60201c565b7bffffffffffffffffffffffffffffffffffffffffffffffffffffffff16815250908060018154018082558091505060019003905f5260205f20015f909190919091505f820151815f015f6101000a81548163ffffffff021916908363ffffffff1602179055506020820151815f0160046101000a8154817bffffffffffffffffffffffffffffffffffffffffffffffffffffffff02191690837bffffffffffffffffffffffffffffffffffffffffffffffffffffffff16021790555050505b5050935093915050565b610a42610b5160201b60201c565b610a53838383610ba160201b60201c565b505050565b610a69838383610ba660201b60201c565b505050565b5f825f528160205f2001905092915050565b5f610a9043610be960201b60201c565b905090565b5f7bffffffffffffffffffffffffffffffffffffffffffffffffffffffff8016821115610af7576040517f08c379a0000000000000000000000000000000000000000000000000000000008152600401610aee9061175d565b60405180910390fd5b819050919050565b5f63ffffffff8016821115610b49576040517f08c379a0000000000000000000000000000000000000000000000000000000008152600401610b40906117eb565b60405180910390fd5b819050919050565b610b5f610c3d60201b60201c565b15610b9f576040517f08c379a0000000000000000000000000000000000000000000000000000000008152600401610b9690611853565b60405180910390fd5b565b505050565b610bb7838383610c5360201b60201c565b610be4610bc984610c5860201b60201c565b610bd884610c5860201b60201c565b83610cbd60201b60201c565b505050565b5f65ffffffffffff8016821115610c35576040517f08c379a0000000000000000000000000000000000000000000000000000000008152600401610c2c906118e1565b60405180910390fd5b819050919050565b5f600c60149054906101000a900460ff16905090565b505050565b5f60095f8373ffffffffffffffffffffffffffffffffffffffff1673ffffffffffffffffffffffffffffffffffffffff1681526020019081526020015f205f9054906101000a900473ffffffffffffffffffffffffffffffffffffffff169050919050565b8173ffffffffffffffffffffffffffffffffffffffff168373ffffffffffffffffffffffffffffffffffffffff1614158015610cf857505f81115b15610ec2575f73ffffffffffffffffffffffffffffffffffffffff168373ffffffffffffffffffffffffffffffffffffffff1614610ddf575f5f610d88600a5f8773ffffffffffffffffffffffffffffffffffffffff1673ffffffffffffffffffffffffffffffffffffffff1681526020019081526020015f20610ec760201b611c34178561074460201b60201c565b915091508473ffffffffffffffffffffffffffffffffffffffff167fdec2bacdd2f05b59de34da9b523dff8be42e5e38e818c82fdb0bae774387a7248383604051610dd49291906118ff565b60405180910390a250505b5f73ffffffffffffffffffffffffffffffffffffffff168273ffffffffffffffffffffffffffffffffffffffff1614610ec1575f5f610e6a600a5f8673ffffffffffffffffffffffffffffffffffffffff1673ffffffffffffffffffffffffffffffffffffffff1681526020019081526020015f2061072f60201b611c1f178561074460201b60201c565b915091508373ffffffffffffffffffffffffffffffffffffffff167fdec2bacdd2f05b59de34da9b523dff8be42e5e38e818c82fdb0bae774387a7248383604051610eb69291906118ff565b60405180910390a250505b5b505050565b5f8183610ed49190611926565b905092915050565b5f81519050919050565b7f4e487b71000000000000000000000000000000000000000000000000000000005f52604160045260245ffd5b7f4e487b71000000000000000000000000000000000000000000000000000000005f52602260045260245ffd5b5f6002820490506001821680610f5757607f821691505b602082108103610f6a57610f69610f13565b5b50919050565b5f819050815f5260205f209050919050565b5f6020601f8301049050919050565b5f82821b905092915050565b5f60088302610fcc7fffffffffffffffffffffffffffffffffffffffffffffffffffffffffffffffff82610f91565b610fd68683610f91565b95508019841693508086168417925050509392505050565b5f819050919050565b5f819050919050565b5f61101a61101561101084610fee565b610ff7565b610fee565b9050919050565b5f819050919050565b61103383611000565b61104761103f82611021565b848454610f9d565b825550505050565b5f5f905090565b61105e61104f565b61106981848461102a565b505050565b5b8181101561108c576110815f82611056565b60018101905061106f565b5050565b601f8211156110d1576110a281610f70565b6110ab84610f82565b810160208510156110ba578190505b6110ce6110c685610f82565b83018261106e565b50505b505050565b5f82821c905092915050565b5f6110f15f19846008026110d6565b1980831691505092915050565b5f61110983836110e2565b9150826002028217905092915050565b61112282610edc565b67ffffffffffffffff81111561113b5761113a610ee6565b5b6111458254610f40565b611150828285611090565b5f60209050601f831160018114611181575f841561116f578287015190505b61117985826110fe565b8655506111e0565b601f19841661118f86610f70565b5f5b828110156111b657848901518255600182019150602085019450602081019050611191565b868310156111d357848901516111cf601f8916826110e2565b8355505b6001600288020188555050505b505050505050565b7f4e487b71000000000000000000000000000000000000000000000000000000005f52601160045260245ffd5b5f8160011c9050919050565b5f5f8291508390505b600185111561126a57808604811115611246576112456111e8565b5b60018516156112555780820291505b808102905061126385611215565b945061122a565b94509492505050565b5f82611282576001905061133d565b8161128f575f905061133d565b81600181146112a557600281146112af576112de565b600191505061133d565b60ff8411156112c1576112c06111e8565b5b8360020a9150848211156112d8576112d76111e8565b5b5061133d565b5060208310610133831016604e8410600b84101617156113135782820a90508381111561130e5761130d6111e8565b5b61133d565b6113208484846001611221565b92509050818404811115611337576113366111e8565b5b81810290505b9392505050565b5f60ff82169050919050565b5f61135a82610fee565b915061136583611344565b92506113927fffffffffffffffffffffffffffffffffffffffffffffffffffffffffffffffff8484611273565b905092915050565b5f6113a482610fee565b91506113af83610fee565b92508282026113bd81610fee565b915082820484148315176113d4576113d36111e8565b5b5092915050565b5f819050919050565b6113ed816113db565b82525050565b6113fc81610fee565b82525050565b5f73ffffffffffffffffffffffffffffffffffffffff82169050919050565b5f61142b82611402565b9050919050565b61143b81611421565b82525050565b5f60a0820190506114545f8301886113e4565b61146160208301876113e4565b61146e60408301866113e4565b61147b60608301856113f3565b6114886080830184611432565b9695505050505050565b5f82825260208201905092915050565b8281835e5f83830152505050565b5f601f19601f8301169050919050565b5f6114ca82610edc565b6114d48185611492565b93506114e48185602086016114a2565b6114ed816114b0565b840191505092915050565b5f6020820190508181035f83015261151081846114c0565b905092915050565b5f81519050919050565b5f819050602082019050919050565b5f61153c82516113db565b80915050919050565b5f61154f82611518565b8261155984611522565b905061156481611531565b925060208210156115a45761159f7fffffffffffffffffffffffffffffffffffffffffffffffffffffffffffffffff83602003600802610f91565b831692505b5050919050565b7f4552433230566f7465733a20746f74616c20737570706c79207269736b73206f5f8201527f766572666c6f77696e6720766f74657300000000000000000000000000000000602082015250565b5f611605603083611492565b9150611610826115ab565b604082019050919050565b5f6020820190508181035f830152611632816115f9565b9050919050565b7f45524332303a206d696e7420746f20746865207a65726f2061646472657373005f82015250565b5f61166d601f83611492565b915061167882611639565b602082019050919050565b5f6020820190508181035f83015261169a81611661565b9050919050565b5f6116ab82610fee565b91506116b683610fee565b92508282019050808211156116ce576116cd6111e8565b5b92915050565b5f6020820190506116e75f8301846113f3565b92915050565b7f53616665436173743a2076616c756520646f65736e27742066697420696e20325f8201527f3234206269747300000000000000000000000000000000000000000000000000602082015250565b5f611747602783611492565b9150611752826116ed565b604082019050919050565b5f6020820190508181035f8301526117748161173b565b9050919050565b7f53616665436173743a2076616c756520646f65736e27742066697420696e20335f8201527f3220626974730000000000000000000000000000000000000000000000000000602082015250565b5f6117d5602683611492565b91506117e08261177b565b604082019050919050565b5f6020820190508181035f830152611802816117c9565b9050919050565b7f5061757361626c653a20706175736564000000000000000000000000000000005f82015250565b5f61183d601083611492565b915061184882611809565b602082019050919050565b5f6020820190508181035f83015261186a81611831565b9050919050565b7f53616665436173743a2076616c756520646f65736e27742066697420696e20345f8201527f3820626974730000000000000000000000000000000000000000000000000000602082015250565b5f6118cb602683611492565b91506118d682611871565b604082019050919050565b5f6020820190508181035f8301526118f8816118bf565b9050919050565b5f6040820190506119125f8301856113f3565b61191f60208301846113f3565b9392505050565b5f61193082610fee565b915061193b83610fee565b9250828203905081811115611953576119526111e8565b5b92915050565b60805160a05160c05160e051610100516101205161014051615bfb6119aa5f395f61106d01525f61103901525f612a8001525f612a5f01525f61210d01525f61216301525f61218c0152615bfb5ff3fe608060405234801561000f575f5ffd5b5060043610610272575f3560e01c8063715018a61161014f5780639ab24eb0116100c1578063d505accf11610085578063d505accf14610782578063dd62ed3e1461079e578063f1127ed8146107ce578063f2fde38b146107fe578063fce589d81461081a578063ff768c401461083857610272565b80639ab24eb0146106b8578063a457c2d7146106e8578063a9059cbb14610718578063bc063e1a14610748578063c3cda5201461076657610272565b80638da5cb5b116101135780638da5cb5b146105f25780638e539e8c146106105780638ea5220f1461064057806391ddadf41461065e57806395d89b411461067c57806398118cb41461069a57610272565b8063715018a61461056c57806375f0a874146105765780637ecebe00146105945780638456cb59146105c457806384b0196e146105ce57610272565b80633f4ba83a116101e85780635c975abb116101ac5780635c975abb146104965780636029bf9f146104b45780636827e764146104d05780636b67c4df146104ee5780636fcfff451461050c57806370a082311461053c57610272565b80633f4ba83a1461040657806342966c68146104105780634bf5d7e91461042c578063587cde1e1461044a5780635c19a95c1461047a57610272565b8063313ce5671161023a578063313ce5671461032e57806335917c641461034c5780633644e5151461036a57806339509351146103885780633a46b1a8146103b85780633b2d081c146103e857610272565b806304a66b481461027657806306fdde0314610292578063095ea7b3146102b057806318160ddd146102e057806323b872dd146102fe575b5f5ffd5b610290600480360381019061028b9190613b14565b610854565b005b61029a610964565b6040516102a79190613bfb565b60405180910390f35b6102ca60048036038101906102c59190613c75565b6109f4565b6040516102d79190613ccd565b60405180910390f35b6102e8610a16565b6040516102f59190613cf5565b60405180910390f35b61031860048036038101906103139190613d0e565b610a1f565b6040516103259190613ccd565b60405180910390f35b610336610a4d565b6040516103439190613d79565b60405180910390f35b610354610a55565b6040516103619190613cf5565b60405180910390f35b610372610a64565b60405161037f9190613daa565b60405180910390f35b6103a2600480360381019061039d9190613c75565b610a72565b6040516103af9190613ccd565b60405180910390f35b6103d260048036038101906103cd9190613c75565b610aa8565b6040516103df9190613cf5565b60405180910390f35b6103f0610b48565b6040516103fd9190613cf5565b60405180910390f35b61040e610b4e565b005b61042a60048036038101906104259190613dc3565b610b60565b005b610434610bcd565b6040516104419190613bfb565b60405180910390f35b610464600480360381019061045f9190613dee565b610c5b565b6040516104719190613e28565b60405180910390f35b610494600480360381019061048f9190613dee565b610cc0565b005b61049e610cd4565b6040516104ab9190613ccd565b60405180910390f35b6104ce60048036038101906104c99190613dc3565b610cea565b005b6104d8610ef0565b6040516104e59190613cf5565b60405180910390f35b6104f6610ef6565b6040516105039190613cf5565b60405180910390f35b61052660048036038101906105219190613dee565b610efc565b6040516105339190613e5f565b60405180910390f35b61055660048036038101906105519190613dee565b610f4d565b6040516105639190613cf5565b60405180910390f35b610574610f92565b005b61057e610fa5565b60405161058b9190613e28565b60405180910390f35b6105ae60048036038101906105a99190613dee565b610fca565b6040516105bb9190613cf5565b60405180910390f35b6105cc611017565b005b6105d6611029565b6040516105e99796959493929190613f69565b60405180910390f35b6105fa611126565b6040516106079190613e28565b60405180910390f35b61062a60048036038101906106259190613dc3565b61114e565b6040516106379190613cf5565b60405180910390f35b6106486111b2565b6040516106559190613e28565b60405180910390f35b6106666111d7565b604051610673919061400b565b60405180910390f35b6106846111e6565b6040516106919190613bfb565b60405180910390f35b6106a2611276565b6040516106af9190613cf5565b60405180910390f35b6106d260048036038101906106cd9190613dee565b61127c565b6040516106df9190613cf5565b60405180910390f35b61070260048036038101906106fd9190613c75565b61137a565b60405161070f9190613ccd565b60405180910390f35b610732600480360381019061072d9190613c75565b6113ef565b60405161073f9190613ccd565b60405180910390f35b610750611411565b60405161075d9190613cf5565b60405180910390f35b610780600480360381019061077b9190614078565b611417565b005b61079c60048036038101906107979190614101565b61151a565b005b6107b860048036038101906107b3919061419e565b611659565b6040516107c59190613cf5565b60405180910390f35b6107e860048036038101906107e39190614206565b6116db565b6040516107f591906142b6565b60405180910390f35b61081860048036038101906108139190613dee565b6117e4565b005b610822611866565b60405161082f9190613cf5565b60405180910390f35b610852600480360381019061084d91906142cf565b61186c565b005b61085c611126565b73ffffffffffffffffffffffffffffffffffffffff163373ffffffffffffffffffffffffffffffffffffffff16146108c9576040517f08c379a00000000000000000000000000000000000000000000000000000000081526004016108c090614390565b60405180910390fd5b61271081838587896108db91906143db565b6108e591906143db565b6108ef91906143db565b6108f991906143db565b111561093a576040517f08c379a000000000000000000000000000000000000000000000000000000000815260040161093190614458565b60405180910390fd5b84600e8190555083600f819055508260108190555081601181905550806012819055505050505050565b606060038054610973906144a3565b80601f016020809104026020016040519081016040528092919081815260200182805461099f906144a3565b80156109ea5780601f106109c1576101008083540402835291602001916109ea565b820191905f5260205f20905b8154815290600101906020018083116109cd57829003601f168201915b5050505050905090565b5f5f6109fe611c49565b9050610a0b818585611c50565b600191505092915050565b5f600254905090565b5f5f610a29611c49565b9050610a36858285611e13565b610a41858585611e9e565b60019150509392505050565b5f6012905090565b6a52b7d2dcc80cd2e400000081565b5f610a6d61210a565b905090565b5f5f610a7c611c49565b9050610a9d818585610a8e8589611659565b610a9891906143db565b611c50565b600191505092915050565b5f610ab16111d7565b65ffffffffffff168210610afa576040517f08c379a0000000000000000000000000000000000000000000000000000000008152600401610af19061451d565b60405180910390fd5b610b40600a5f8573ffffffffffffffffffffffffffffffffffffffff1673ffffffffffffffffffffffffffffffffffffffff1681526020019081526020015f20836121c0565b905092915050565b600e5481565b610b56612300565b610b5e61237e565b565b6a52b7d2dcc80cd2e400000081610b75610a16565b610b7f919061453b565b1015610bc0576040517f08c379a0000000000000000000000000000000000000000000000000000000008152600401610bb7906145de565b60405180910390fd5b610bca33826123e0565b50565b606043610bd86111d7565b65ffffffffffff1614610c20576040517f08c379a0000000000000000000000000000000000000000000000000000000008152600401610c1790614646565b60405180910390fd5b6040518060400160405280601d81526020017f6d6f64653d626c6f636b6e756d6265722666726f6d3d64656661756c74000000815250905090565b5f60095f8373ffffffffffffffffffffffffffffffffffffffff1673ffffffffffffffffffffffffffffffffffffffff1681526020019081526020015f205f9054906101000a900473ffffffffffffffffffffffffffffffffffffffff169050919050565b610cd1610ccb611c49565b826123ee565b50565b5f600c60149054906101000a900460ff16905090565b610cf2611126565b73ffffffffffffffffffffffffffffffffffffffff163373ffffffffffffffffffffffffffffffffffffffff1614610d5f576040517f08c379a0000000000000000000000000000000000000000000000000000000008152600401610d5690614390565b60405180910390fd5b80610d6933610f4d565b1015610daa576040517f08c379a0000000000000000000000000000000000000000000000000000000008152600401610da1906146ae565b60405180910390fd5b5f61271060105483610dbc91906146cc565b610dc6919061473a565b90505f61271060125484610dda91906146cc565b610de4919061473a565b90505f612710600f5485610df891906146cc565b610e02919061473a565b90505f831115610e5957610e5860135f9054906101000a900473ffffffffffffffffffffffffffffffffffffffff16843073ffffffffffffffffffffffffffffffffffffffff166125039092919063ffffffff16565b5b5f821115610eae57610ead60145f9054906101000a900473ffffffffffffffffffffffffffffffffffffffff16833073ffffffffffffffffffffffffffffffffffffffff166125039092919063ffffffff16565b5b5f81118015610eda57506a52b7d2dcc80cd2e400000081610ecd610a16565b610ed7919061453b565b10155b15610eea57610ee933826123e0565b5b50505050565b60105481565b60125481565b5f610f46600a5f8473ffffffffffffffffffffffffffffffffffffffff1673ffffffffffffffffffffffffffffffffffffffff1681526020019081526020015f2080549050612589565b9050919050565b5f5f5f8373ffffffffffffffffffffffffffffffffffffffff1673ffffffffffffffffffffffffffffffffffffffff1681526020019081526020015f20549050919050565b610f9a612300565b610fa35f6125db565b565b60145f9054906101000a900473ffffffffffffffffffffffffffffffffffffffff1681565b5f61101060075f8473ffffffffffffffffffffffffffffffffffffffff1673ffffffffffffffffffffffffffffffffffffffff1681526020019081526020015f2061269e565b9050919050565b61101f612300565b6110276126aa565b565b5f6060805f5f5f606061106660057f000000000000000000000000000000000000000000000000000000000000000061270d90919063ffffffff16565b61109a60067f000000000000000000000000000000000000000000000000000000000000000061270d90919063ffffffff16565b46305f5f1b5f67ffffffffffffffff8111156110b9576110b861476a565b5b6040519080825280602002602001820160405280156110e75781602001602082028036833780820191505090505b507f0f00000000000000000000000000000000000000000000000000000000000000959493929190965096509650965096509650965090919293949596565b5f600c5f9054906101000a900473ffffffffffffffffffffffffffffffffffffffff16905090565b5f6111576111d7565b65ffffffffffff1682106111a0576040517f08c379a00000000000000000000000000000000000000000000000000000000081526004016111979061451d565b60405180910390fd5b6111ab600b836121c0565b9050919050565b60135f9054906101000a900473ffffffffffffffffffffffffffffffffffffffff1681565b5f6111e1436127ba565b905090565b6060600480546111f5906144a3565b80601f0160208091040260200160405190810160405280929190818152602001828054611221906144a3565b801561126c5780601f106112435761010080835404028352916020019161126c565b820191905f5260205f20905b81548152906001019060200180831161124f57829003601f168201915b5050505050905090565b60115481565b5f5f600a5f8473ffffffffffffffffffffffffffffffffffffffff1673ffffffffffffffffffffffffffffffffffffffff1681526020019081526020015f208054905090505f811461135257600a5f8473ffffffffffffffffffffffffffffffffffffffff1673ffffffffffffffffffffffffffffffffffffffff1681526020019081526020015f20600182038154811061131a57611319614797565b5b905f5260205f20015f0160049054906101000a90047bffffffffffffffffffffffffffffffffffffffffffffffffffffffff16611354565b5f5b7bffffffffffffffffffffffffffffffffffffffffffffffffffffffff16915050919050565b5f5f611384611c49565b90505f6113918286611659565b9050838110156113d6576040517f08c379a00000000000000000000000000000000000000000000000000000000081526004016113cd90614834565b60405180910390fd5b6113e38286868403611c50565b60019250505092915050565b5f5f6113f9611c49565b9050611406818585611e9e565b600191505092915050565b61271081565b8342111561145a576040517f08c379a00000000000000000000000000000000000000000000000000000000081526004016114519061489c565b60405180910390fd5b5f6114bb6114b37fe48329057bfd03d55e49b547132e39cffd9c1820ad7b9d4c5307691425d15adf89898960405160200161149894939291906148ba565b6040516020818303038152906040528051906020012061280e565b858585612827565b90506114c681612850565b8614611507576040517f08c379a00000000000000000000000000000000000000000000000000000000081526004016114fe90614947565b60405180910390fd5b61151181886123ee565b50505050505050565b8342111561155d576040517f08c379a0000000000000000000000000000000000000000000000000000000008152600401611554906149af565b60405180910390fd5b5f7f6e71edae12b1b97f4d1f60370fef10105fa2faae0126114a169c64845d6126c988888861158b8c612850565b896040516020016115a1969594939291906149cd565b6040516020818303038152906040528051906020012090505f6115c38261280e565b90505f6115d282878787612827565b90508973ffffffffffffffffffffffffffffffffffffffff168173ffffffffffffffffffffffffffffffffffffffff1614611642576040517f08c379a000000000000000000000000000000000000000000000000000000000815260040161163990614a76565b60405180910390fd5b61164d8a8a8a611c50565b50505050505050505050565b5f60015f8473ffffffffffffffffffffffffffffffffffffffff1673ffffffffffffffffffffffffffffffffffffffff1681526020019081526020015f205f8373ffffffffffffffffffffffffffffffffffffffff1673ffffffffffffffffffffffffffffffffffffffff1681526020019081526020015f2054905092915050565b6116e3613a94565b600a5f8473ffffffffffffffffffffffffffffffffffffffff1673ffffffffffffffffffffffffffffffffffffffff1681526020019081526020015f208263ffffffff168154811061173857611737614797565b5b905f5260205f20016040518060400160405290815f82015f9054906101000a900463ffffffff1663ffffffff1663ffffffff1681526020015f820160049054906101000a90047bffffffffffffffffffffffffffffffffffffffffffffffffffffffff167bffffffffffffffffffffffffffffffffffffffffffffffffffffffff167bffffffffffffffffffffffffffffffffffffffffffffffffffffffff1681525050905092915050565b6117ec612300565b5f73ffffffffffffffffffffffffffffffffffffffff168173ffffffffffffffffffffffffffffffffffffffff160361185a576040517f08c379a000000000000000000000000000000000000000000000000000000000815260040161185190614b04565b60405180910390fd5b611863816125db565b50565b600f5481565b611874611126565b73ffffffffffffffffffffffffffffffffffffffff163373ffffffffffffffffffffffffffffffffffffffff16146118e1576040517f08c379a00000000000000000000000000000000000000000000000000000000081526004016118d890614390565b60405180910390fd5b6118e96128ab565b5f831161192b576040517f08c379a000000000000000000000000000000000000000000000000000000000815260040161192290614b6c565b60405180910390fd5b5f73ffffffffffffffffffffffffffffffffffffffff168573ffffffffffffffffffffffffffffffffffffffff1603611999576040517f08c379a000000000000000000000000000000000000000000000000000000000815260040161199090614bd4565b60405180910390fd5b5f73ffffffffffffffffffffffffffffffffffffffff168473ffffffffffffffffffffffffffffffffffffffff1603611a07576040517f08c379a00000000000000000000000000000000000000000000000000000000081526004016119fe90614c3c565b60405180910390fd5b5f73ffffffffffffffffffffffffffffffffffffffff168173ffffffffffffffffffffffffffffffffffffffff1603611a75576040517f08c379a0000000000000000000000000000000000000000000000000000000008152600401611a6c90614ca4565b60405180910390fd5b611aa085843073ffffffffffffffffffffffffffffffffffffffff166128fa9092919063ffffffff16565b5f600267ffffffffffffffff811115611abc57611abb61476a565b5b604051908082528060200260200182016040528015611aea5781602001602082028036833780820191505090505b50905030815f81518110611b0157611b00614797565b5b602002602001019073ffffffffffffffffffffffffffffffffffffffff16908173ffffffffffffffffffffffffffffffffffffffff16815250508181600181518110611b5057611b4f614797565b5b602002602001019073ffffffffffffffffffffffffffffffffffffffff16908173ffffffffffffffffffffffffffffffffffffffff16815250508573ffffffffffffffffffffffffffffffffffffffff166338ed173985858489426040518663ffffffff1660e01b8152600401611bcb959493929190614d79565b5f604051808303815f875af1158015611be6573d5f5f3e3d5ffd5b505050506040513d5f823e3d601f19601f82011682018060405250810190611c0e9190614ef8565b5050611c18612a09565b5050505050565b5f8183611c2c91906143db565b905092915050565b5f8183611c41919061453b565b905092915050565b5f33905090565b5f73ffffffffffffffffffffffffffffffffffffffff168373ffffffffffffffffffffffffffffffffffffffff1603611cbe576040517f08c379a0000000000000000000000000000000000000000000000000000000008152600401611cb590614faf565b60405180910390fd5b5f73ffffffffffffffffffffffffffffffffffffffff168273ffffffffffffffffffffffffffffffffffffffff1603611d2c576040517f08c379a0000000000000000000000000000000000000000000000000000000008152600401611d239061503d565b60405180910390fd5b8060015f8573ffffffffffffffffffffffffffffffffffffffff1673ffffffffffffffffffffffffffffffffffffffff1681526020019081526020015f205f8473ffffffffffffffffffffffffffffffffffffffff1673ffffffffffffffffffffffffffffffffffffffff1681526020019081526020015f20819055508173ffffffffffffffffffffffffffffffffffffffff168373ffffffffffffffffffffffffffffffffffffffff167f8c5be1e5ebec7d5bd14f71427d1e84f3dd0314c0f7b2291e5b200ac8c7c3b92583604051611e069190613cf5565b60405180910390a3505050565b5f611e1e8484611659565b90507fffffffffffffffffffffffffffffffffffffffffffffffffffffffffffffffff8114611e985781811015611e8a576040517f08c379a0000000000000000000000000000000000000000000000000000000008152600401611e81906150a5565b60405180910390fd5b611e978484848403611c50565b5b50505050565b5f73ffffffffffffffffffffffffffffffffffffffff168373ffffffffffffffffffffffffffffffffffffffff1603611f0c576040517f08c379a0000000000000000000000000000000000000000000000000000000008152600401611f0390615133565b60405180910390fd5b5f73ffffffffffffffffffffffffffffffffffffffff168273ffffffffffffffffffffffffffffffffffffffff1603611f7a576040517f08c379a0000000000000000000000000000000000000000000000000000000008152600401611f71906151c1565b60405180910390fd5b611f85838383612a13565b5f5f5f8573ffffffffffffffffffffffffffffffffffffffff1673ffffffffffffffffffffffffffffffffffffffff1681526020019081526020015f2054905081811015612008576040517f08c379a0000000000000000000000000000000000000000000000000000000008152600401611fff9061524f565b60405180910390fd5b8181035f5f8673ffffffffffffffffffffffffffffffffffffffff1673ffffffffffffffffffffffffffffffffffffffff1681526020019081526020015f2081905550815f5f8573ffffffffffffffffffffffffffffffffffffffff1673ffffffffffffffffffffffffffffffffffffffff1681526020019081526020015f205f82825401925050819055508273ffffffffffffffffffffffffffffffffffffffff168473ffffffffffffffffffffffffffffffffffffffff167fddf252ad1be2c89b69c2b068fc378daa952ba7f163c4a11628f55a4df523b3ef846040516120f19190613cf5565b60405180910390a3612104848484612a2b565b50505050565b5f7f000000000000000000000000000000000000000000000000000000000000000073ffffffffffffffffffffffffffffffffffffffff163073ffffffffffffffffffffffffffffffffffffffff1614801561218557507f000000000000000000000000000000000000000000000000000000000000000046145b156121b2577f000000000000000000000000000000000000000000000000000000000000000090506121bd565b6121ba612a3b565b90505b90565b5f5f838054905090505f5f90505f8290506005831115612234575f6121e484612ad0565b846121ef919061453b565b9050856121fc8883612bc6565b5f015f9054906101000a900463ffffffff1663ffffffff16111561222257809150612232565b60018161222f91906143db565b92505b505b5b80821015612291575f6122488383612bd8565b9050856122558883612bc6565b5f015f9054906101000a900463ffffffff1663ffffffff16111561227b5780915061228b565b60018161228891906143db565b92505b50612235565b5f81146122d5576122a58660018303612bc6565b5f0160049054906101000a90047bffffffffffffffffffffffffffffffffffffffffffffffffffffffff166122d7565b5f5b7bffffffffffffffffffffffffffffffffffffffffffffffffffffffff16935050505092915050565b612308611c49565b73ffffffffffffffffffffffffffffffffffffffff16612326611126565b73ffffffffffffffffffffffffffffffffffffffff161461237c576040517f08c379a0000000000000000000000000000000000000000000000000000000008152600401612373906152b7565b60405180910390fd5b565b612386612bfd565b5f600c60146101000a81548160ff0219169083151502179055507f5db9ee0a495bf2e6ff9c91a7834c1ba4fdd244a5e8aa4e537bd38aeae4b073aa6123c9611c49565b6040516123d69190613e28565b60405180910390a1565b6123ea8282612c46565b5050565b5f6123f883610c5b565b90505f61240484610f4d565b90508260095f8673ffffffffffffffffffffffffffffffffffffffff1673ffffffffffffffffffffffffffffffffffffffff1681526020019081526020015f205f6101000a81548173ffffffffffffffffffffffffffffffffffffffff021916908373ffffffffffffffffffffffffffffffffffffffff1602179055508273ffffffffffffffffffffffffffffffffffffffff168273ffffffffffffffffffffffffffffffffffffffff168573ffffffffffffffffffffffffffffffffffffffff167f3134e8a2e6d97e929a7e54011ea5485d7d196dd5f0ba4d4ef95803e8e3fc257f60405160405180910390a46124fd828483612c64565b50505050565b6125848363a9059cbb60e01b84846040516024016125229291906152d5565b604051602081830303815290604052907bffffffffffffffffffffffffffffffffffffffffffffffffffffffff19166020820180517bffffffffffffffffffffffffffffffffffffffffffffffffffffffff8381831617835250505050612e54565b505050565b5f63ffffffff80168211156125d3576040517f08c379a00000000000000000000000000000000000000000000000000000000081526004016125ca9061536c565b60405180910390fd5b819050919050565b5f600c5f9054906101000a900473ffffffffffffffffffffffffffffffffffffffff16905081600c5f6101000a81548173ffffffffffffffffffffffffffffffffffffffff021916908373ffffffffffffffffffffffffffffffffffffffff1602179055508173ffffffffffffffffffffffffffffffffffffffff168173ffffffffffffffffffffffffffffffffffffffff167f8be0079c531659141344cd1fd0a4f28419497f9722a3daafe3b4186f6b6457e060405160405180910390a35050565b5f815f01549050919050565b6126b2612f1a565b6001600c60146101000a81548160ff0219169083151502179055507f62e78cea01bee320cd4e420270b5ea74000d11b0c9f74754ebdbfc544b05a2586126f6611c49565b6040516127039190613e28565b60405180910390a1565b606060ff5f1b83146127295761272283612f64565b90506127b4565b818054612735906144a3565b80601f0160208091040260200160405190810160405280929190818152602001828054612761906144a3565b80156127ac5780601f10612783576101008083540402835291602001916127ac565b820191905f5260205f20905b81548152906001019060200180831161278f57829003601f168201915b505050505090505b92915050565b5f65ffffffffffff8016821115612806576040517f08c379a00000000000000000000000000000000000000000000000000000000081526004016127fd906153fa565b60405180910390fd5b819050919050565b5f61282061281a61210a565b83612fd6565b9050919050565b5f5f5f61283687878787613016565b91509150612843816130ee565b8192505050949350505050565b5f5f60075f8473ffffffffffffffffffffffffffffffffffffffff1673ffffffffffffffffffffffffffffffffffffffff1681526020019081526020015f20905061289a8161269e565b91506128a581613253565b50919050565b6002600d54036128f0576040517f08c379a00000000000000000000000000000000000000000000000000000000081526004016128e790615462565b60405180910390fd5b6002600d81905550565b5f8373ffffffffffffffffffffffffffffffffffffffff1663dd62ed3e30856040518363ffffffff1660e01b8152600401612936929190615480565b602060405180830381865afa158015612951573d5f5f3e3d5ffd5b505050506040513d601f19601f8201168201806040525081019061297591906154a7565b9050612a038463095ea7b360e01b85858561299091906143db565b6040516024016129a19291906152d5565b604051602081830303815290604052907bffffffffffffffffffffffffffffffffffffffffffffffffffffffff19166020820180517bffffffffffffffffffffffffffffffffffffffffffffffffffffffff8381831617835250505050612e54565b50505050565b6001600d81905550565b612a1b612f1a565b612a26838383613267565b505050565b612a3683838361326c565b505050565b5f7f8b73c3c69bb8fe3d512ecc4cf759cc79239f7b179b0ffacaa9a75d522b39400f7f00000000000000000000000000000000000000000000000000000000000000007f00000000000000000000000000000000000000000000000000000000000000004630604051602001612ab59594939291906154d2565b60405160208183030381529060405280519060200120905090565b5f5f8203612ae0575f9050612bc1565b5f6001612aec84613297565b901c6001901b90506001818481612b0657612b0561470d565b5b048201901c90506001818481612b1f57612b1e61470d565b5b048201901c90506001818481612b3857612b3761470d565b5b048201901c90506001818481612b5157612b5061470d565b5b048201901c90506001818481612b6a57612b6961470d565b5b048201901c90506001818481612b8357612b8261470d565b5b048201901c90506001818481612b9c57612b9b61470d565b5b048201901c9050612bbd81828581612bb757612bb661470d565b5b0461336e565b9150505b919050565b5f825f528160205f2001905092915050565b5f6002828418612be8919061473a565b828416612bf591906143db565b905092915050565b612c05610cd4565b612c44576040517f08c379a0000000000000000000000000000000000000000000000000000000008152600401612c3b9061556d565b60405180910390fd5b565b612c508282613386565b612c5e600b611c3483613549565b50505050565b8173ffffffffffffffffffffffffffffffffffffffff168373ffffffffffffffffffffffffffffffffffffffff1614158015612c9f57505f81115b15612e4f575f73ffffffffffffffffffffffffffffffffffffffff168373ffffffffffffffffffffffffffffffffffffffff1614612d79575f5f612d22600a5f8773ffffffffffffffffffffffffffffffffffffffff1673ffffffffffffffffffffffffffffffffffffffff1681526020019081526020015f20611c3485613549565b915091508473ffffffffffffffffffffffffffffffffffffffff167fdec2bacdd2f05b59de34da9b523dff8be42e5e38e818c82fdb0bae774387a7248383604051612d6e92919061558b565b60405180910390a250505b5f73ffffffffffffffffffffffffffffffffffffffff168273ffffffffffffffffffffffffffffffffffffffff1614612e4e575f5f612df7600a5f8673ffffffffffffffffffffffffffffffffffffffff1673ffffffffffffffffffffffffffffffffffffffff1681526020019081526020015f20611c1f85613549565b915091508373ffffffffffffffffffffffffffffffffffffffff167fdec2bacdd2f05b59de34da9b523dff8be42e5e38e818c82fdb0bae774387a7248383604051612e4392919061558b565b60405180910390a250505b5b505050565b5f612eb5826040518060400160405280602081526020017f5361666545524332303a206c6f772d6c6576656c2063616c6c206661696c65648152508573ffffffffffffffffffffffffffffffffffffffff166138129092919063ffffffff16565b90505f81511480612ed6575080806020019051810190612ed591906155dc565b5b612f15576040517f08c379a0000000000000000000000000000000000000000000000000000000008152600401612f0c90615677565b60405180910390fd5b505050565b612f22610cd4565b15612f62576040517f08c379a0000000000000000000000000000000000000000000000000000000008152600401612f59906156df565b60405180910390fd5b565b60605f612f7083613829565b90505f602067ffffffffffffffff811115612f8e57612f8d61476a565b5b6040519080825280601f01601f191660200182016040528015612fc05781602001600182028036833780820191505090505b5090508181528360208201528092505050919050565b5f6040517f190100000000000000000000000000000000000000000000000000000000000081528360028201528260228201526042812091505092915050565b5f5f7f7fffffffffffffffffffffffffffffff5d576e7357a4501ddfe92f46681b20a0835f1c111561304e575f6003915091506130e5565b5f6001878787876040515f815260200160405260405161307194939291906156fd565b6020604051602081039080840390855afa158015613091573d5f5f3e3d5ffd5b5050506020604051035190505f73ffffffffffffffffffffffffffffffffffffffff168173ffffffffffffffffffffffffffffffffffffffff16036130dd575f600192509250506130e5565b805f92509250505b94509492505050565b5f600481111561310157613100615740565b5b81600481111561311457613113615740565b5b0315613250576001600481111561312e5761312d615740565b5b81600481111561314157613140615740565b5b03613181576040517f08c379a0000000000000000000000000000000000000000000000000000000008152600401613178906157b7565b60405180910390fd5b6002600481111561319557613194615740565b5b8160048111156131a8576131a7615740565b5b036131e8576040517f08c379a00000000000000000000000000000000000000000000000000000000081526004016131df9061581f565b60405180910390fd5b600360048111156131fc576131fb615740565b5b81600481111561320f5761320e615740565b5b0361324f576040517f08c379a0000000000000000000000000000000000000000000000000000000008152600401613246906158ad565b60405180910390fd5b5b50565b6001815f015f828254019250508190555050565b505050565b613277838383613877565b61329261328384610c5b565b61328c84610c5b565b83612c64565b505050565b5f5f5f90505f608084901c11156132b657608083901c92506080810190505b5f604084901c11156132d057604083901c92506040810190505b5f602084901c11156132ea57602083901c92506020810190505b5f601084901c111561330457601083901c92506010810190505b5f600884901c111561331e57600883901c92506008810190505b5f600484901c111561333857600483901c92506004810190505b5f600284901c111561335257600283901c92506002810190505b5f600184901c1115613365576001810190505b80915050919050565b5f81831061337c578161337e565b825b905092915050565b5f73ffffffffffffffffffffffffffffffffffffffff168273ffffffffffffffffffffffffffffffffffffffff16036133f4576040517f08c379a00000000000000000000000000000000000000000000000000000000081526004016133eb9061593b565b60405180910390fd5b6133ff825f83612a13565b5f5f5f8473ffffffffffffffffffffffffffffffffffffffff1673ffffffffffffffffffffffffffffffffffffffff1681526020019081526020015f2054905081811015613482576040517f08c379a0000000000000000000000000000000000000000000000000000000008152600401613479906159c9565b60405180910390fd5b8181035f5f8573ffffffffffffffffffffffffffffffffffffffff1673ffffffffffffffffffffffffffffffffffffffff1681526020019081526020015f20819055508160025f82825403925050819055505f73ffffffffffffffffffffffffffffffffffffffff168373ffffffffffffffffffffffffffffffffffffffff167fddf252ad1be2c89b69c2b068fc378daa952ba7f163c4a11628f55a4df523b3ef846040516135319190613cf5565b60405180910390a3613544835f84612a2b565b505050565b5f5f5f858054905090505f5f8214613609576135688760018403612bc6565b6040518060400160405290815f82015f9054906101000a900463ffffffff1663ffffffff1663ffffffff1681526020015f820160049054906101000a90047bffffffffffffffffffffffffffffffffffffffffffffffffffffffff167bffffffffffffffffffffffffffffffffffffffffffffffffffffffff167bffffffffffffffffffffffffffffffffffffffffffffffffffffffff1681525050613643565b60405180604001604052805f63ffffffff1681526020015f7bffffffffffffffffffffffffffffffffffffffffffffffffffffffff168152505b905080602001517bffffffffffffffffffffffffffffffffffffffffffffffffffffffff16935061367884868863ffffffff16565b92505f821180156136a0575061368c6111d7565b65ffffffffffff16815f015163ffffffff16145b15613710576136ae8361387c565b6136bb8860018503612bc6565b5f0160046101000a8154817bffffffffffffffffffffffffffffffffffffffffffffffffffffffff02191690837bffffffffffffffffffffffffffffffffffffffffffffffffffffffff160217905550613808565b8660405180604001604052806137346137276111d7565b65ffffffffffff16612589565b63ffffffff1681526020016137488661387c565b7bffffffffffffffffffffffffffffffffffffffffffffffffffffffff16815250908060018154018082558091505060019003905f5260205f20015f909190919091505f820151815f015f6101000a81548163ffffffff021916908363ffffffff1602179055506020820151815f0160046101000a8154817bffffffffffffffffffffffffffffffffffffffffffffffffffffffff02191690837bffffffffffffffffffffffffffffffffffffffffffffffffffffffff16021790555050505b5050935093915050565b606061382084845f856138e6565b90509392505050565b5f5f60ff835f1c169050601f81111561386e576040517fb3512b0c00000000000000000000000000000000000000000000000000000000815260040160405180910390fd5b80915050919050565b505050565b5f7bffffffffffffffffffffffffffffffffffffffffffffffffffffffff80168211156138de576040517f08c379a00000000000000000000000000000000000000000000000000000000081526004016138d590615a57565b60405180910390fd5b819050919050565b60608247101561392b576040517f08c379a000000000000000000000000000000000000000000000000000000000815260040161392290615ae5565b60405180910390fd5b5f5f8673ffffffffffffffffffffffffffffffffffffffff1685876040516139539190615b47565b5f6040518083038185875af1925050503d805f811461398d576040519150601f19603f3d011682016040523d82523d5f602084013e613992565b606091505b50915091506139a3878383876139af565b92505050949350505050565b60608315613a10575f835103613a08576139c885613a23565b613a07576040517f08c379a00000000000000000000000000000000000000000000000000000000081526004016139fe90615ba7565b60405180910390fd5b5b829050613a1b565b613a1a8383613a45565b5b949350505050565b5f5f8273ffffffffffffffffffffffffffffffffffffffff163b119050919050565b5f82511115613a575781518083602001fd5b806040517f08c379a0000000000000000000000000000000000000000000000000000000008152600401613a8b9190613bfb565b60405180910390fd5b60405180604001604052805f63ffffffff1681526020015f7bffffffffffffffffffffffffffffffffffffffffffffffffffffffff1681525090565b5f604051905090565b5f5ffd5b5f5ffd5b5f819050919050565b613af381613ae1565b8114613afd575f5ffd5b50565b5f81359050613b0e81613aea565b92915050565b5f5f5f5f5f60a08688031215613b2d57613b2c613ad9565b5b5f613b3a88828901613b00565b9550506020613b4b88828901613b00565b9450506040613b5c88828901613b00565b9350506060613b6d88828901613b00565b9250506080613b7e88828901613b00565b9150509295509295909350565b5f81519050919050565b5f82825260208201905092915050565b8281835e5f83830152505050565b5f601f19601f8301169050919050565b5f613bcd82613b8b565b613bd78185613b95565b9350613be7818560208601613ba5565b613bf081613bb3565b840191505092915050565b5f6020820190508181035f830152613c138184613bc3565b905092915050565b5f73ffffffffffffffffffffffffffffffffffffffff82169050919050565b5f613c4482613c1b565b9050919050565b613c5481613c3a565b8114613c5e575f5ffd5b50565b5f81359050613c6f81613c4b565b92915050565b5f5f60408385031215613c8b57613c8a613ad9565b5b5f613c9885828601613c61565b9250506020613ca985828601613b00565b9150509250929050565b5f8115159050919050565b613cc781613cb3565b82525050565b5f602082019050613ce05f830184613cbe565b92915050565b613cef81613ae1565b82525050565b5f602082019050613d085f830184613ce6565b92915050565b5f5f5f60608486031215613d2557613d24613ad9565b5b5f613d3286828701613c61565b9350506020613d4386828701613c61565b9250506040613d5486828701613b00565b9150509250925092565b5f60ff82169050919050565b613d7381613d5e565b82525050565b5f602082019050613d8c5f830184613d6a565b92915050565b5f819050919050565b613da481613d92565b82525050565b5f602082019050613dbd5f830184613d9b565b92915050565b5f60208284031215613dd857613dd7613ad9565b5b5f613de584828501613b00565b91505092915050565b5f60208284031215613e0357613e02613ad9565b5b5f613e1084828501613c61565b91505092915050565b613e2281613c3a565b82525050565b5f602082019050613e3b5f830184613e19565b92915050565b5f63ffffffff82169050919050565b613e5981613e41565b82525050565b5f602082019050613e725f830184613e50565b92915050565b5f7fff0000000000000000000000000000000000000000000000000000000000000082169050919050565b613eac81613e78565b82525050565b5f81519050919050565b5f82825260208201905092915050565b5f819050602082019050919050565b613ee481613ae1565b82525050565b5f613ef58383613edb565b60208301905092915050565b5f602082019050919050565b5f613f1782613eb2565b613f218185613ebc565b9350613f2c83613ecc565b805f5b83811015613f5c578151613f438882613eea565b9750613f4e83613f01565b925050600181019050613f2f565b5085935050505092915050565b5f60e082019050613f7c5f83018a613ea3565b8181036020830152613f8e8189613bc3565b90508181036040830152613fa28188613bc3565b9050613fb16060830187613ce6565b613fbe6080830186613e19565b613fcb60a0830185613d9b565b81810360c0830152613fdd8184613f0d565b905098975050505050505050565b5f65ffffffffffff82169050919050565b61400581613feb565b82525050565b5f60208201905061401e5f830184613ffc565b92915050565b61402d81613d5e565b8114614037575f5ffd5b50565b5f8135905061404881614024565b92915050565b61405781613d92565b8114614061575f5ffd5b50565b5f813590506140728161404e565b92915050565b5f5f5f5f5f5f60c0878903121561409257614091613ad9565b5b5f61409f89828a01613c61565b96505060206140b089828a01613b00565b95505060406140c189828a01613b00565b94505060606140d289828a0161403a565b93505060806140e389828a01614064565b92505060a06140f489828a01614064565b9150509295509295509295565b5f5f5f5f5f5f5f60e0888a03121561411c5761411b613ad9565b5b5f6141298a828b01613c61565b975050602061413a8a828b01613c61565b965050604061414b8a828b01613b00565b955050606061415c8a828b01613b00565b945050608061416d8a828b0161403a565b93505060a061417e8a828b01614064565b92505060c061418f8a828b01614064565b91505092959891949750929550565b5f5f604083850312156141b4576141b3613ad9565b5b5f6141c185828601613c61565b92505060206141d285828601613c61565b9150509250929050565b6141e581613e41565b81146141ef575f5ffd5b50565b5f81359050614200816141dc565b92915050565b5f5f6040838503121561421c5761421b613ad9565b5b5f61422985828601613c61565b925050602061423a858286016141f2565b9150509250929050565b61424d81613e41565b82525050565b5f7bffffffffffffffffffffffffffffffffffffffffffffffffffffffff82169050919050565b61428381614253565b82525050565b604082015f82015161429d5f850182614244565b5060208201516142b0602085018261427a565b50505050565b5f6040820190506142c95f830184614289565b92915050565b5f5f5f5f5f60a086880312156142e8576142e7613ad9565b5b5f6142f588828901613c61565b955050602061430688828901613c61565b945050604061431788828901613b00565b935050606061432888828901613b00565b925050608061433988828901613c61565b9150509295509295909350565b7f4f6e6c79206f776e6572000000000000000000000000000000000000000000005f82015250565b5f61437a600a83613b95565b915061438582614346565b602082019050919050565b5f6020820190508181035f8301526143a78161436e565b9050919050565b7f4e487b71000000000000000000000000000000000000000000000000000000005f52601160045260245ffd5b5f6143e582613ae1565b91506143f083613ae1565b9250828201905080821115614408576144076143ae565b5b92915050565b7f546f74616c2066656573206d757374206265203c3d20313030250000000000005f82015250565b5f614442601a83613b95565b915061444d8261440e565b602082019050919050565b5f6020820190508181035f83015261446f81614436565b9050919050565b7f4e487b71000000000000000000000000000000000000000000000000000000005f52602260045260245ffd5b5f60028204905060018216806144ba57607f821691505b6020821081036144cd576144cc614476565b5b50919050565b7f4552433230566f7465733a20667574757265206c6f6f6b7570000000000000005f82015250565b5f614507601983613b95565b9150614512826144d3565b602082019050919050565b5f6020820190508181035f830152614534816144fb565b9050919050565b5f61454582613ae1565b915061455083613ae1565b9250828203905081811115614568576145676143ae565b5b92915050565b7f4275726e2073746f707065643a206d696e696d756d20737570706c79207265615f8201527f6368656400000000000000000000000000000000000000000000000000000000602082015250565b5f6145c8602483613b95565b91506145d38261456e565b604082019050919050565b5f6020820190508181035f8301526145f5816145bc565b9050919050565b7f4552433230566f7465733a2062726f6b656e20636c6f636b206d6f64650000005f82015250565b5f614630601d83613b95565b915061463b826145fc565b602082019050919050565b5f6020820190508181035f83015261465d81614624565b9050919050565b7f4e6f7420656e6f75676820746f6b656e730000000000000000000000000000005f82015250565b5f614698601183613b95565b91506146a382614664565b602082019050919050565b5f6020820190508181035f8301526146c58161468c565b9050919050565b5f6146d682613ae1565b91506146e183613ae1565b92508282026146ef81613ae1565b91508282048414831517614706576147056143ae565b5b5092915050565b7f4e487b71000000000000000000000000000000000000000000000000000000005f52601260045260245ffd5b5f61474482613ae1565b915061474f83613ae1565b92508261475f5761475e61470d565b5b828204905092915050565b7f4e487b71000000000000000000000000000000000000000000000000000000005f52604160045260245ffd5b7f4e487b71000000000000000000000000000000000000000000000000000000005f52603260045260245ffd5b7f45524332303a2064656372656173656420616c6c6f77616e63652062656c6f775f8201527f207a65726f000000000000000000000000000000000000000000000000000000602082015250565b5f61481e602583613b95565b9150614829826147c4565b604082019050919050565b5f6020820190508181035f83015261484b81614812565b9050919050565b7f4552433230566f7465733a207369676e617475726520657870697265640000005f82015250565b5f614886601d83613b95565b915061489182614852565b602082019050919050565b5f6020820190508181035f8301526148b38161487a565b9050919050565b5f6080820190506148cd5f830187613d9b565b6148da6020830186613e19565b6148e76040830185613ce6565b6148f46060830184613ce6565b95945050505050565b7f4552433230566f7465733a20696e76616c6964206e6f6e6365000000000000005f82015250565b5f614931601983613b95565b915061493c826148fd565b602082019050919050565b5f6020820190508181035f83015261495e81614925565b9050919050565b7f45524332305065726d69743a206578706972656420646561646c696e650000005f82015250565b5f614999601d83613b95565b91506149a482614965565b602082019050919050565b5f6020820190508181035f8301526149c68161498d565b9050919050565b5f60c0820190506149e05f830189613d9b565b6149ed6020830188613e19565b6149fa6040830187613e19565b614a076060830186613ce6565b614a146080830185613ce6565b614a2160a0830184613ce6565b979650505050505050565b7f45524332305065726d69743a20696e76616c6964207369676e617475726500005f82015250565b5f614a60601e83613b95565b9150614a6b82614a2c565b602082019050919050565b5f6020820190508181035f830152614a8d81614a54565b9050919050565b7f4f776e61626c653a206e6577206f776e657220697320746865207a65726f20615f8201527f6464726573730000000000000000000000000000000000000000000000000000602082015250565b5f614aee602683613b95565b9150614af982614a94565b604082019050919050565b5f6020820190508181035f830152614b1b81614ae2565b9050919050565b7f416d6f756e74206d757374206265203e203000000000000000000000000000005f82015250565b5f614b56601283613b95565b9150614b6182614b22565b602082019050919050565b5f6020820190508181035f830152614b8381614b4a565b9050919050565b7f526f75746572206164647265737320696e76616c6964000000000000000000005f82015250565b5f614bbe601683613b95565b9150614bc982614b8a565b602082019050919050565b5f6020820190508181035f830152614beb81614bb2565b9050919050565b7f526563697069656e74206164647265737320696e76616c6964000000000000005f82015250565b5f614c26601983613b95565b9150614c3182614bf2565b602082019050919050565b5f6020820190508181035f830152614c5381614c1a565b9050919050565b7f57726170706564206e617469766520746f6b656e20696e76616c6964000000005f82015250565b5f614c8e601c83613b95565b9150614c9982614c5a565b602082019050919050565b5f6020820190508181035f830152614cbb81614c82565b9050919050565b5f81519050919050565b5f82825260208201905092915050565b5f819050602082019050919050565b614cf481613c3a565b82525050565b5f614d058383614ceb565b60208301905092915050565b5f602082019050919050565b5f614d2782614cc2565b614d318185614ccc565b9350614d3c83614cdc565b805f5b83811015614d6c578151614d538882614cfa565b9750614d5e83614d11565b925050600181019050614d3f565b5085935050505092915050565b5f60a082019050614d8c5f830188613ce6565b614d996020830187613ce6565b8181036040830152614dab8186614d1d565b9050614dba6060830185613e19565b614dc76080830184613ce6565b9695505050505050565b5f5ffd5b614dde82613bb3565b810181811067ffffffffffffffff82111715614dfd57614dfc61476a565b5b80604052505050565b5f614e0f613ad0565b9050614e1b8282614dd5565b919050565b5f67ffffffffffffffff821115614e3a57614e3961476a565b5b602082029050602081019050919050565b5f5ffd5b5f81519050614e5d81613aea565b92915050565b5f614e75614e7084614e20565b614e06565b90508083825260208201905060208402830185811115614e9857614e97614e4b565b5b835b81811015614ec15780614ead8882614e4f565b845260208401935050602081019050614e9a565b5050509392505050565b5f82601f830112614edf57614ede614dd1565b5b8151614eef848260208601614e63565b91505092915050565b5f60208284031215614f0d57614f0c613ad9565b5b5f82015167ffffffffffffffff811115614f2a57614f29613add565b5b614f3684828501614ecb565b91505092915050565b7f45524332303a20617070726f76652066726f6d20746865207a65726f206164645f8201527f7265737300000000000000000000000000000000000000000000000000000000602082015250565b5f614f99602483613b95565b9150614fa482614f3f565b604082019050919050565b5f6020820190508181035f830152614fc681614f8d565b9050919050565b7f45524332303a20617070726f766520746f20746865207a65726f2061646472655f8201527f7373000000000000000000000000000000000000000000000000000000000000602082015250565b5f615027602283613b95565b915061503282614fcd565b604082019050919050565b5f6020820190508181035f8301526150548161501b565b9050919050565b7f45524332303a20696e73756666696369656e7420616c6c6f77616e63650000005f82015250565b5f61508f601d83613b95565b915061509a8261505b565b602082019050919050565b5f6020820190508181035f8301526150bc81615083565b9050919050565b7f45524332303a207472616e736665722066726f6d20746865207a65726f2061645f8201527f6472657373000000000000000000000000000000000000000000000000000000602082015250565b5f61511d602583613b95565b9150615128826150c3565b604082019050919050565b5f6020820190508181035f83015261514a81615111565b9050919050565b7f45524332303a207472616e7366657220746f20746865207a65726f20616464725f8201527f6573730000000000000000000000000000000000000000000000000000000000602082015250565b5f6151ab602383613b95565b91506151b682615151565b604082019050919050565b5f6020820190508181035f8301526151d88161519f565b9050919050565b7f45524332303a207472616e7366657220616d6f756e74206578636565647320625f8201527f616c616e63650000000000000000000000000000000000000000000000000000602082015250565b5f615239602683613b95565b9150615244826151df565b604082019050919050565b5f6020820190508181035f8301526152668161522d565b9050919050565b7f4f776e61626c653a2063616c6c6572206973206e6f7420746865206f776e65725f82015250565b5f6152a1602083613b95565b91506152ac8261526d565b602082019050919050565b5f6020820190508181035f8301526152ce81615295565b9050919050565b5f6040820190506152e85f830185613e19565b6152f56020830184613ce6565b9392505050565b7f53616665436173743a2076616c756520646f65736e27742066697420696e20335f8201527f3220626974730000000000000000000000000000000000000000000000000000602082015250565b5f615356602683613b95565b9150615361826152fc565b604082019050919050565b5f6020820190508181035f8301526153838161534a565b9050919050565b7f53616665436173743a2076616c756520646f65736e27742066697420696e20345f8201527f3820626974730000000000000000000000000000000000000000000000000000602082015250565b5f6153e4602683613b95565b91506153ef8261538a565b604082019050919050565b5f6020820190508181035f830152615411816153d8565b9050919050565b7f5265656e7472616e637947756172643a207265656e7472616e742063616c6c005f82015250565b5f61544c601f83613b95565b915061545782615418565b602082019050919050565b5f6020820190508181035f83015261547981615440565b9050919050565b5f6040820190506154935f830185613e19565b6154a06020830184613e19565b9392505050565b5f602082840312156154bc576154bb613ad9565b5b5f6154c984828501614e4f565b91505092915050565b5f60a0820190506154e55f830188613d9b565b6154f26020830187613d9b565b6154ff6040830186613d9b565b61550c6060830185613ce6565b6155196080830184613e19565b9695505050505050565b7f5061757361626c653a206e6f74207061757365640000000000000000000000005f82015250565b5f615557601483613b95565b915061556282615523565b602082019050919050565b5f6020820190508181035f8301526155848161554b565b9050919050565b5f60408201905061559e5f830185613ce6565b6155ab6020830184613ce6565b9392505050565b6155bb81613cb3565b81146155c5575f5ffd5b50565b5f815190506155d6816155b2565b92915050565b5f602082840312156155f1576155f0613ad9565b5b5f6155fe848285016155c8565b91505092915050565b7f5361666545524332303a204552433230206f7065726174696f6e20646964206e5f8201527f6f74207375636365656400000000000000000000000000000000000000000000602082015250565b5f615661602a83613b95565b915061566c82615607565b604082019050919050565b5f6020820190508181035f83015261568e81615655565b9050919050565b7f5061757361626c653a20706175736564000000000000000000000000000000005f82015250565b5f6156c9601083613b95565b91506156d482615695565b602082019050919050565b5f6020820190508181035f8301526156f6816156bd565b9050919050565b5f6080820190506157105f830187613d9b565b61571d6020830186613d6a565b61572a6040830185613d9b565b6157376060830184613d9b565b95945050505050565b7f4e487b71000000000000000000000000000000000000000000000000000000005f52602160045260245ffd5b7f45434453413a20696e76616c6964207369676e617475726500000000000000005f82015250565b5f6157a1601883613b95565b91506157ac8261576d565b602082019050919050565b5f6020820190508181035f8301526157ce81615795565b9050919050565b7f45434453413a20696e76616c6964207369676e6174757265206c656e677468005f82015250565b5f615809601f83613b95565b9150615814826157d5565b602082019050919050565b5f6020820190508181035f830152615836816157fd565b9050919050565b7f45434453413a20696e76616c6964207369676e6174757265202773272076616c5f8201527f7565000000000000000000000000000000000000000000000000000000000000602082015250565b5f615897602283613b95565b91506158a28261583d565b604082019050919050565b5f6020820190508181035f8301526158c48161588b565b9050919050565b7f45524332303a206275726e2066726f6d20746865207a65726f206164647265735f8201527f7300000000000000000000000000000000000000000000000000000000000000602082015250565b5f615925602183613b95565b9150615930826158cb565b604082019050919050565b5f6020820190508181035f83015261595281615919565b9050919050565b7f45524332303a206275726e20616d6f756e7420657863656564732062616c616e5f8201527f6365000000000000000000000000000000000000000000000000000000000000602082015250565b5f6159b3602283613b95565b91506159be82615959565b604082019050919050565b5f6020820190508181035f8301526159e0816159a7565b9050919050565b7f53616665436173743a2076616c756520646f65736e27742066697420696e20325f8201527f3234206269747300000000000000000000000000000000000000000000000000602082015250565b5f615a41602783613b95565b9150615a4c826159e7565b604082019050919050565b5f6020820190508181035f830152615a6e81615a35565b9050919050565b7f416464726573733a20696e73756666696369656e742062616c616e636520666f5f8201527f722063616c6c0000000000000000000000000000000000000000000000000000602082015250565b5f615acf602683613b95565b9150615ada82615a75565b604082019050919050565b5f6020820190508181035f830152615afc81615ac3565b9050919050565b5f81519050919050565b5f81905092915050565b5f615b2182615b03565b615b2b8185615b0d565b9350615b3b818560208601613ba5565b80840191505092915050565b5f615b528284615b17565b915081905092915050565b7f416464726573733a2063616c6c20746f206e6f6e2d636f6e74726163740000005f82015250565b5f615b91601d83613b95565b9150615b9c82615b5d565b602082019050919050565b5f6020820190508181035f830152615bbe81615b85565b905091905056fea26469706673582212205656bf215fc4e73dabfb720d774ce5fd42e5e2d66571d1dfa8fdc54b2a1564a364736f6c634300081e0033",
			"opcodes": "PUSH2 0x160 PUSH1 0x40 MSTORE CALLVALUE DUP1 ISZERO PUSH2 0x10 JUMPI PUSH0 PUSH0 REVERT JUMPDEST POP PUSH1 0x40 MLOAD DUP1 PUSH1 0x40 ADD PUSH1 0x40 MSTORE DUP1 PUSH1 0xF DUP2 MSTORE PUSH1 0x20 ADD PUSH32 0x4461696C7952656D6974546F6B656E0000000000000000000000000000000000 DUP2 MSTORE POP DUP1 PUSH1 0x40 MLOAD DUP1 PUSH1 0x40 ADD PUSH1 0x40 MSTORE DUP1 PUSH1 0x1 DUP2 MSTORE PUSH1 0x20 ADD PUSH32 0x3100000000000000000000000000000000000000000000000000000000000000 DUP2 MSTORE POP PUSH1 0x40 MLOAD DUP1 PUSH1 0x40 ADD PUSH1 0x40 MSTORE DUP1 PUSH1 0xF DUP2 MSTORE PUSH1 0x20 ADD PUSH32 0x4461696C7952656D6974546F6B656E0000000000000000000000000000000000 DUP2 MSTORE POP PUSH1 0x40 MLOAD DUP1 PUSH1 0x40 ADD PUSH1 0x40 MSTORE DUP1 PUSH1 0x3 DUP2 MSTORE PUSH1 0x20 ADD PUSH32 0x4452540000000000000000000000000000000000000000000000000000000000 DUP2 MSTORE POP DUP2 PUSH1 0x3 SWAP1 DUP2 PUSH2 0xF9 SWAP2 SWAP1 PUSH2 0x1119 JUMP JUMPDEST POP DUP1 PUSH1 0x4 SWAP1 DUP2 PUSH2 0x109 SWAP2 SWAP1 PUSH2 0x1119 JUMP JUMPDEST POP POP POP PUSH2 0x120 PUSH1 0x5 DUP4 PUSH2 0x302 PUSH1 0x20 SHL SWAP1 SWAP2 SWAP1 PUSH1 0x20 SHR JUMP JUMPDEST PUSH2 0x120 DUP2 DUP2 MSTORE POP POP PUSH2 0x13C PUSH1 0x6 DUP3 PUSH2 0x302 PUSH1 0x20 SHL SWAP1 SWAP2 SWAP1 PUSH1 0x20 SHR JUMP JUMPDEST PUSH2 0x140 DUP2 DUP2 MSTORE POP POP DUP2 DUP1 MLOAD SWAP1 PUSH1 0x20 ADD KECCAK256 PUSH1 0xE0 DUP2 DUP2 MSTORE POP POP DUP1 DUP1 MLOAD SWAP1 PUSH1 0x20 ADD KECCAK256 PUSH2 0x100 DUP2 DUP2 MSTORE POP POP CHAINID PUSH1 0xA0 DUP2 DUP2 MSTORE POP POP PUSH2 0x179 PUSH2 0x34F PUSH1 0x20 SHL PUSH1 0x20 SHR JUMP JUMPDEST PUSH1 0x80 DUP2 DUP2 MSTORE POP POP ADDRESS PUSH20 0xFFFFFFFFFFFFFFFFFFFFFFFFFFFFFFFFFFFFFFFF AND PUSH1 0xC0 DUP2 PUSH20 0xFFFFFFFFFFFFFFFFFFFFFFFFFFFFFFFFFFFFFFFF AND DUP2 MSTORE POP POP POP POP POP PUSH2 0x1D3 PUSH2 0x1C8 PUSH2 0x3A9 PUSH1 0x20 SHL PUSH1 0x20 SHR JUMP JUMPDEST PUSH2 0x3B0 PUSH1 0x20 SHL PUSH1 0x20 SHR JUMP JUMPDEST PUSH0 PUSH1 0xC PUSH1 0x14 PUSH2 0x100 EXP DUP2 SLOAD DUP2 PUSH1 0xFF MUL NOT AND SWAP1 DUP4 ISZERO ISZERO MUL OR SWAP1 SSTORE POP PUSH1 0x1 PUSH1 0xD DUP2 SWAP1 SSTORE POP PUSH2 0x22D CALLER PUSH2 0x207 PUSH2 0x473 PUSH1 0x20 SHL PUSH1 0x20 SHR JUMP JUMPDEST PUSH1 0xA PUSH2 0x213 SWAP2 SWAP1 PUSH2 0x1350 JUMP JUMPDEST PUSH4 0x3B9ACA00 PUSH2 0x222 SWAP2 SWAP1 PUSH2 0x139A JUMP JUMPDEST PUSH2 0x47B PUSH1 0x20 SHL PUSH1 0x20 SHR JUMP JUMPDEST PUSH20 0xAE1E1C414D88F5DF9DF3F75DE05924EBFFBDAA84 PUSH1 0x13 PUSH0 PUSH2 0x100 EXP DUP2 SLOAD DUP2 PUSH20 0xFFFFFFFFFFFFFFFFFFFFFFFFFFFFFFFFFFFFFFFF MUL NOT AND SWAP1 DUP4 PUSH20 0xFFFFFFFFFFFFFFFFFFFFFFFFFFFFFFFFFFFFFFFF AND MUL OR SWAP1 SSTORE POP PUSH20 0xD346F0787E0FB3D21D7370E6708C55107BB0E150 PUSH1 0x14 PUSH0 PUSH2 0x100 EXP DUP2 SLOAD DUP2 PUSH20 0xFFFFFFFFFFFFFFFFFFFFFFFFFFFFFFFFFFFFFFFF MUL NOT AND SWAP1 DUP4 PUSH20 0xFFFFFFFFFFFFFFFFFFFFFFFFFFFFFFFFFFFFFFFF AND MUL OR SWAP1 SSTORE POP PUSH1 0x64 PUSH1 0xE DUP2 SWAP1 SSTORE POP PUSH1 0x64 PUSH1 0xF DUP2 SWAP1 SSTORE POP PUSH1 0x64 PUSH1 0x10 DUP2 SWAP1 SSTORE POP PUSH1 0x64 PUSH1 0x11 DUP2 SWAP1 SSTORE POP PUSH1 0x64 PUSH1 0x12 DUP2 SWAP1 SSTORE POP PUSH2 0x1959 JUMP JUMPDEST PUSH0 PUSH1 0x20 DUP4 MLOAD LT ISZERO PUSH2 0x323 JUMPI PUSH2 0x31C DUP4 PUSH2 0x48F PUSH1 0x20 SHL PUSH1 0x20 SHR JUMP JUMPDEST SWAP1 POP PUSH2 0x349 JUMP JUMPDEST DUP3 PUSH2 0x333 DUP4 PUSH2 0x4F4 PUSH1 0x20 SHL PUSH1 0x20 SHR JUMP JUMPDEST PUSH0 ADD SWAP1 DUP2 PUSH2 0x341 SWAP2 SWAP1 PUSH2 0x1119 JUMP JUMPDEST POP PUSH1 0xFF PUSH0 SHL SWAP1 POP JUMPDEST SWAP3 SWAP2 POP POP JUMP JUMPDEST PUSH0 PUSH32 0x8B73C3C69BB8FE3D512ECC4CF759CC79239F7B179B0FFACAA9A75D522B39400F PUSH1 0xE0 MLOAD PUSH2 0x100 MLOAD CHAINID ADDRESS PUSH1 0x40 MLOAD PUSH1 0x20 ADD PUSH2 0x38E SWAP6 SWAP5 SWAP4 SWAP3 SWAP2 SWAP1 PUSH2 0x1441 JUMP JUMPDEST PUSH1 0x40 MLOAD PUSH1 0x20 DUP2 DUP4 SUB SUB DUP2 MSTORE SWAP1 PUSH1 0x40 MSTORE DUP1 MLOAD SWAP1 PUSH1 0x20 ADD KECCAK256 SWAP1 POP SWAP1 JUMP JUMPDEST PUSH0 CALLER SWAP1 POP SWAP1 JUMP JUMPDEST PUSH0 PUSH1 0xC PUSH0 SWAP1 SLOAD SWAP1 PUSH2 0x100 EXP SWAP1 DIV PUSH20 0xFFFFFFFFFFFFFFFFFFFFFFFFFFFFFFFFFFFFFFFF AND SWAP1 POP DUP2 PUSH1 0xC PUSH0 PUSH2 0x100 EXP DUP2 SLOAD DUP2 PUSH20 0xFFFFFFFFFFFFFFFFFFFFFFFFFFFFFFFFFFFFFFFF MUL NOT AND SWAP1 DUP4 PUSH20 0xFFFFFFFFFFFFFFFFFFFFFFFFFFFFFFFFFFFFFFFF AND MUL OR SWAP1 SSTORE POP DUP2 PUSH20 0xFFFFFFFFFFFFFFFFFFFFFFFFFFFFFFFFFFFFFFFF AND DUP2 PUSH20 0xFFFFFFFFFFFFFFFFFFFFFFFFFFFFFFFFFFFFFFFF AND PUSH32 0x8BE0079C531659141344CD1FD0A4F28419497F9722A3DAAFE3B4186F6B6457E0 PUSH1 0x40 MLOAD PUSH1 0x40 MLOAD DUP1 SWAP2 SUB SWAP1 LOG3 POP POP JUMP JUMPDEST PUSH0 PUSH1 0x12 SWAP1 POP SWAP1 JUMP JUMPDEST PUSH2 0x48B DUP3 DUP3 PUSH2 0x4FD PUSH1 0x20 SHL PUSH1 0x20 SHR JUMP JUMPDEST POP POP JUMP JUMPDEST PUSH0 PUSH0 DUP3 SWAP1 POP PUSH1 0x1F DUP2 MLOAD GT ISZERO PUSH2 0x4DB JUMPI DUP3 PUSH1 0x40 MLOAD PUSH32 0x305A27A900000000000000000000000000000000000000000000000000000000 DUP2 MSTORE PUSH1 0x4 ADD PUSH2 0x4D2 SWAP2 SWAP1 PUSH2 0x14F8 JUMP JUMPDEST PUSH1 0x40 MLOAD DUP1 SWAP2 SUB SWAP1 REVERT JUMPDEST DUP1 MLOAD DUP2 PUSH2 0x4E7 SWAP1 PUSH2 0x1545 JUMP JUMPDEST PUSH0 SHR OR PUSH0 SHL SWAP2 POP POP SWAP2 SWAP1 POP JUMP JUMPDEST PUSH0 DUP2 SWAP1 POP SWAP2 SWAP1 POP JUMP JUMPDEST PUSH2 0x50D DUP3 DUP3 PUSH2 0x5A9 PUSH1 0x20 SHL PUSH1 0x20 SHR JUMP JUMPDEST PUSH2 0x51B PUSH2 0x703 PUSH1 0x20 SHL PUSH1 0x20 SHR JUMP JUMPDEST PUSH28 0xFFFFFFFFFFFFFFFFFFFFFFFFFFFFFFFFFFFFFFFFFFFFFFFFFFFFFFFF AND PUSH2 0x547 PUSH2 0x726 PUSH1 0x20 SHL PUSH1 0x20 SHR JUMP JUMPDEST GT ISZERO PUSH2 0x588 JUMPI PUSH1 0x40 MLOAD PUSH32 0x8C379A000000000000000000000000000000000000000000000000000000000 DUP2 MSTORE PUSH1 0x4 ADD PUSH2 0x57F SWAP1 PUSH2 0x161B JUMP JUMPDEST PUSH1 0x40 MLOAD DUP1 SWAP2 SUB SWAP1 REVERT JUMPDEST PUSH2 0x5A3 PUSH1 0xB PUSH2 0x72F PUSH1 0x20 SHL PUSH2 0x1C1F OR DUP4 PUSH2 0x744 PUSH1 0x20 SHL PUSH1 0x20 SHR JUMP JUMPDEST POP POP POP POP JUMP JUMPDEST PUSH0 PUSH20 0xFFFFFFFFFFFFFFFFFFFFFFFFFFFFFFFFFFFFFFFF AND DUP3 PUSH20 0xFFFFFFFFFFFFFFFFFFFFFFFFFFFFFFFFFFFFFFFF AND SUB PUSH2 0x617 JUMPI PUSH1 0x40 MLOAD PUSH32 0x8C379A000000000000000000000000000000000000000000000000000000000 DUP2 MSTORE PUSH1 0x4 ADD PUSH2 0x60E SWAP1 PUSH2 0x1683 JUMP JUMPDEST PUSH1 0x40 MLOAD DUP1 SWAP2 SUB SWAP1 REVERT JUMPDEST PUSH2 0x628 PUSH0 DUP4 DUP4 PUSH2 0xA34 PUSH1 0x20 SHL PUSH1 0x20 SHR JUMP JUMPDEST DUP1 PUSH1 0x2 PUSH0 DUP3 DUP3 SLOAD PUSH2 0x639 SWAP2 SWAP1 PUSH2 0x16A1 JUMP JUMPDEST SWAP3 POP POP DUP2 SWAP1 SSTORE POP DUP1 PUSH0 PUSH0 DUP5 PUSH20 0xFFFFFFFFFFFFFFFFFFFFFFFFFFFFFFFFFFFFFFFF AND PUSH20 0xFFFFFFFFFFFFFFFFFFFFFFFFFFFFFFFFFFFFFFFF AND DUP2 MSTORE PUSH1 0x20 ADD SWAP1 DUP2 MSTORE PUSH1 0x20 ADD PUSH0 KECCAK256 PUSH0 DUP3 DUP3 SLOAD ADD SWAP3 POP POP DUP2 SWAP1 SSTORE POP DUP2 PUSH20 0xFFFFFFFFFFFFFFFFFFFFFFFFFFFFFFFFFFFFFFFF AND PUSH0 PUSH20 0xFFFFFFFFFFFFFFFFFFFFFFFFFFFFFFFFFFFFFFFF AND PUSH32 0xDDF252AD1BE2C89B69C2B068FC378DAA952BA7F163C4A11628F55A4DF523B3EF DUP4 PUSH1 0x40 MLOAD PUSH2 0x6E6 SWAP2 SWAP1 PUSH2 0x16D4 JUMP JUMPDEST PUSH1 0x40 MLOAD DUP1 SWAP2 SUB SWAP1 LOG3 PUSH2 0x6FF PUSH0 DUP4 DUP4 PUSH2 0xA58 PUSH1 0x20 SHL PUSH1 0x20 SHR JUMP JUMPDEST POP POP JUMP JUMPDEST PUSH0 PUSH28 0xFFFFFFFFFFFFFFFFFFFFFFFFFFFFFFFFFFFFFFFFFFFFFFFFFFFFFFFF SWAP1 POP SWAP1 JUMP JUMPDEST PUSH0 PUSH1 0x2 SLOAD SWAP1 POP SWAP1 JUMP JUMPDEST PUSH0 DUP2 DUP4 PUSH2 0x73C SWAP2 SWAP1 PUSH2 0x16A1 JUMP JUMPDEST SWAP1 POP SWAP3 SWAP2 POP POP JUMP JUMPDEST PUSH0 PUSH0 PUSH0 DUP6 DUP1 SLOAD SWAP1 POP SWAP1 POP PUSH0 PUSH0 DUP3 EQ PUSH2 0x80A JUMPI PUSH2 0x769 DUP8 PUSH1 0x1 DUP5 SUB PUSH2 0xA6E PUSH1 0x20 SHL PUSH1 0x20 SHR JUMP JUMPDEST PUSH1 0x40 MLOAD DUP1 PUSH1 0x40 ADD PUSH1 0x40 MSTORE SWAP1 DUP2 PUSH0 DUP3 ADD PUSH0 SWAP1 SLOAD SWAP1 PUSH2 0x100 EXP SWAP1 DIV PUSH4 0xFFFFFFFF AND PUSH4 0xFFFFFFFF AND PUSH4 0xFFFFFFFF AND DUP2 MSTORE PUSH1 0x20 ADD PUSH0 DUP3 ADD PUSH1 0x4 SWAP1 SLOAD SWAP1 PUSH2 0x100 EXP SWAP1 DIV PUSH28 0xFFFFFFFFFFFFFFFFFFFFFFFFFFFFFFFFFFFFFFFFFFFFFFFFFFFFFFFF AND PUSH28 0xFFFFFFFFFFFFFFFFFFFFFFFFFFFFFFFFFFFFFFFFFFFFFFFFFFFFFFFF AND PUSH28 0xFFFFFFFFFFFFFFFFFFFFFFFFFFFFFFFFFFFFFFFFFFFFFFFFFFFFFFFF AND DUP2 MSTORE POP POP PUSH2 0x844 JUMP JUMPDEST PUSH1 0x40 MLOAD DUP1 PUSH1 0x40 ADD PUSH1 0x40 MSTORE DUP1 PUSH0 PUSH4 0xFFFFFFFF AND DUP2 MSTORE PUSH1 0x20 ADD PUSH0 PUSH28 0xFFFFFFFFFFFFFFFFFFFFFFFFFFFFFFFFFFFFFFFFFFFFFFFFFFFFFFFF AND DUP2 MSTORE POP JUMPDEST SWAP1 POP DUP1 PUSH1 0x20 ADD MLOAD PUSH28 0xFFFFFFFFFFFFFFFFFFFFFFFFFFFFFFFFFFFFFFFFFFFFFFFFFFFFFFFF AND SWAP4 POP PUSH2 0x876 DUP5 DUP7 DUP9 PUSH1 0x20 SHR JUMP JUMPDEST SWAP3 POP PUSH0 DUP3 GT DUP1 ISZERO PUSH2 0x8A4 JUMPI POP PUSH2 0x890 PUSH2 0xA80 PUSH1 0x20 SHL PUSH1 0x20 SHR JUMP JUMPDEST PUSH6 0xFFFFFFFFFFFF AND DUP2 PUSH0 ADD MLOAD PUSH4 0xFFFFFFFF AND EQ JUMPDEST ISZERO PUSH2 0x920 JUMPI PUSH2 0x8B8 DUP4 PUSH2 0xA95 PUSH1 0x20 SHL PUSH1 0x20 SHR JUMP JUMPDEST PUSH2 0x8CB DUP9 PUSH1 0x1 DUP6 SUB PUSH2 0xA6E PUSH1 0x20 SHL PUSH1 0x20 SHR JUMP JUMPDEST PUSH0 ADD PUSH1 0x4 PUSH2 0x100 EXP DUP2 SLOAD DUP2 PUSH28 0xFFFFFFFFFFFFFFFFFFFFFFFFFFFFFFFFFFFFFFFFFFFFFFFFFFFFFFFF MUL NOT AND SWAP1 DUP4 PUSH28 0xFFFFFFFFFFFFFFFFFFFFFFFFFFFFFFFFFFFFFFFFFFFFFFFFFFFFFFFF AND MUL OR SWAP1 SSTORE POP PUSH2 0xA2A JUMP JUMPDEST DUP7 PUSH1 0x40 MLOAD DUP1 PUSH1 0x40 ADD PUSH1 0x40 MSTORE DUP1 PUSH2 0x950 PUSH2 0x93D PUSH2 0xA80 PUSH1 0x20 SHL PUSH1 0x20 SHR JUMP JUMPDEST PUSH6 0xFFFFFFFFFFFF AND PUSH2 0xAFF PUSH1 0x20 SHL PUSH1 0x20 SHR JUMP JUMPDEST PUSH4 0xFFFFFFFF AND DUP2 MSTORE PUSH1 0x20 ADD PUSH2 0x96A DUP7 PUSH2 0xA95 PUSH1 0x20 SHL PUSH1 0x20 SHR JUMP JUMPDEST PUSH28 0xFFFFFFFFFFFFFFFFFFFFFFFFFFFFFFFFFFFFFFFFFFFFFFFFFFFFFFFF AND DUP2 MSTORE POP SWAP1 DUP1 PUSH1 0x1 DUP2 SLOAD ADD DUP1 DUP3 SSTORE DUP1 SWAP2 POP POP PUSH1 0x1 SWAP1 SUB SWAP1 PUSH0 MSTORE PUSH1 0x20 PUSH0 KECCAK256 ADD PUSH0 SWAP1 SWAP2 SWAP1 SWAP2 SWAP1 SWAP2 POP PUSH0 DUP3 ADD MLOAD DUP2 PUSH0 ADD PUSH0 PUSH2 0x100 EXP DUP2 SLOAD DUP2 PUSH4 0xFFFFFFFF MUL NOT AND SWAP1 DUP4 PUSH4 0xFFFFFFFF AND MUL OR SWAP1 SSTORE POP PUSH1 0x20 DUP3 ADD MLOAD DUP2 PUSH0 ADD PUSH1 0x4 PUSH2 0x100 EXP DUP2 SLOAD DUP2 PUSH28 0xFFFFFFFFFFFFFFFFFFFFFFFFFFFFFFFFFFFFFFFFFFFFFFFFFFFFFFFF MUL NOT AND SWAP1 DUP4 PUSH28 0xFFFFFFFFFFFFFFFFFFFFFFFFFFFFFFFFFFFFFFFFFFFFFFFFFFFFFFFF AND MUL OR SWAP1 SSTORE POP POP POP JUMPDEST POP POP SWAP4 POP SWAP4 SWAP2 POP POP JUMP JUMPDEST PUSH2 0xA42 PUSH2 0xB51 PUSH1 0x20 SHL PUSH1 0x20 SHR JUMP JUMPDEST PUSH2 0xA53 DUP4 DUP4 DUP4 PUSH2 0xBA1 PUSH1 0x20 SHL PUSH1 0x20 SHR JUMP JUMPDEST POP POP POP JUMP JUMPDEST PUSH2 0xA69 DUP4 DUP4 DUP4 PUSH2 0xBA6 PUSH1 0x20 SHL PUSH1 0x20 SHR JUMP JUMPDEST POP POP POP JUMP JUMPDEST PUSH0 DUP3 PUSH0 MSTORE DUP2 PUSH1 0x20 PUSH0 KECCAK256 ADD SWAP1 POP SWAP3 SWAP2 POP POP JUMP JUMPDEST PUSH0 PUSH2 0xA90 NUMBER PUSH2 0xBE9 PUSH1 0x20 SHL PUSH1 0x20 SHR JUMP JUMPDEST SWAP1 POP SWAP1 JUMP JUMPDEST PUSH0 PUSH28 0xFFFFFFFFFFFFFFFFFFFFFFFFFFFFFFFFFFFFFFFFFFFFFFFFFFFFFFFF DUP1 AND DUP3 GT ISZERO PUSH2 0xAF7 JUMPI PUSH1 0x40 MLOAD PUSH32 0x8C379A000000000000000000000000000000000000000000000000000000000 DUP2 MSTORE PUSH1 0x4 ADD PUSH2 0xAEE SWAP1 PUSH2 0x175D JUMP JUMPDEST PUSH1 0x40 MLOAD DUP1 SWAP2 SUB SWAP1 REVERT JUMPDEST DUP2 SWAP1 POP SWAP2 SWAP1 POP JUMP JUMPDEST PUSH0 PUSH4 0xFFFFFFFF DUP1 AND DUP3 GT ISZERO PUSH2 0xB49 JUMPI PUSH1 0x40 MLOAD PUSH32 0x8C379A000000000000000000000000000000000000000000000000000000000 DUP2 MSTORE PUSH1 0x4 ADD PUSH2 0xB40 SWAP1 PUSH2 0x17EB JUMP JUMPDEST PUSH1 0x40 MLOAD DUP1 SWAP2 SUB SWAP1 REVERT JUMPDEST DUP2 SWAP1 POP SWAP2 SWAP1 POP JUMP JUMPDEST PUSH2 0xB5F PUSH2 0xC3D PUSH1 0x20 SHL PUSH1 0x20 SHR JUMP JUMPDEST ISZERO PUSH2 0xB9F JUMPI PUSH1 0x40 MLOAD PUSH32 0x8C379A000000000000000000000000000000000000000000000000000000000 DUP2 MSTORE PUSH1 0x4 ADD PUSH2 0xB96 SWAP1 PUSH2 0x1853 JUMP JUMPDEST PUSH1 0x40 MLOAD DUP1 SWAP2 SUB SWAP1 REVERT JUMPDEST JUMP JUMPDEST POP POP POP JUMP JUMPDEST PUSH2 0xBB7 DUP4 DUP4 DUP4 PUSH2 0xC53 PUSH1 0x20 SHL PUSH1 0x20 SHR JUMP JUMPDEST PUSH2 0xBE4 PUSH2 0xBC9 DUP5 PUSH2 0xC58 PUSH1 0x20 SHL PUSH1 0x20 SHR JUMP JUMPDEST PUSH2 0xBD8 DUP5 PUSH2 0xC58 PUSH1 0x20 SHL PUSH1 0x20 SHR JUMP JUMPDEST DUP4 PUSH2 0xCBD PUSH1 0x20 SHL PUSH1 0x20 SHR JUMP JUMPDEST POP POP POP JUMP JUMPDEST PUSH0 PUSH6 0xFFFFFFFFFFFF DUP1 AND DUP3 GT ISZERO PUSH2 0xC35 JUMPI PUSH1 0x40 MLOAD PUSH32 0x8C379A000000000000000000000000000000000000000000000000000000000 DUP2 MSTORE PUSH1 0x4 ADD PUSH2 0xC2C SWAP1 PUSH2 0x18E1 JUMP JUMPDEST PUSH1 0x40 MLOAD DUP1 SWAP2 SUB SWAP1 REVERT JUMPDEST DUP2 SWAP1 POP SWAP2 SWAP1 POP JUMP JUMPDEST PUSH0 PUSH1 0xC PUSH1 0x14 SWAP1 SLOAD SWAP1 PUSH2 0x100 EXP SWAP1 DIV PUSH1 0xFF AND SWAP1 POP SWAP1 JUMP JUMPDEST POP POP POP JUMP JUMPDEST PUSH0 PUSH1 0x9 PUSH0 DUP4 PUSH20 0xFFFFFFFFFFFFFFFFFFFFFFFFFFFFFFFFFFFFFFFF AND PUSH20 0xFFFFFFFFFFFFFFFFFFFFFFFFFFFFFFFFFFFFFFFF AND DUP2 MSTORE PUSH1 0x20 ADD SWAP1 DUP2 MSTORE PUSH1 0x20 ADD PUSH0 KECCAK256 PUSH0 SWAP1 SLOAD SWAP1 PUSH2 0x100 EXP SWAP1 DIV PUSH20 0xFFFFFFFFFFFFFFFFFFFFFFFFFFFFFFFFFFFFFFFF AND SWAP1 POP SWAP2 SWAP1 POP JUMP JUMPDEST DUP2 PUSH20 0xFFFFFFFFFFFFFFFFFFFFFFFFFFFFFFFFFFFFFFFF AND DUP4 PUSH20 0xFFFFFFFFFFFFFFFFFFFFFFFFFFFFFFFFFFFFFFFF AND EQ ISZERO DUP1 ISZERO PUSH2 0xCF8 JUMPI POP PUSH0 DUP2 GT JUMPDEST ISZERO PUSH2 0xEC2 JUMPI PUSH0 PUSH20 0xFFFFFFFFFFFFFFFFFFFFFFFFFFFFFFFFFFFFFFFF AND DUP4 PUSH20 0xFFFFFFFFFFFFFFFFFFFFFFFFFFFFFFFFFFFFFFFF AND EQ PUSH2 0xDDF JUMPI PUSH0 PUSH0 PUSH2 0xD88 PUSH1 0xA PUSH0 DUP8 PUSH20 0xFFFFFFFFFFFFFFFFFFFFFFFFFFFFFFFFFFFFFFFF AND PUSH20 0xFFFFFFFFFFFFFFFFFFFFFFFFFFFFFFFFFFFFFFFF AND DUP2 MSTORE PUSH1 0x20 ADD SWAP1 DUP2 MSTORE PUSH1 0x20 ADD PUSH0 KECCAK256 PUSH2 0xEC7 PUSH1 0x20 SHL PUSH2 0x1C34 OR DUP6 PUSH2 0x744 PUSH1 0x20 SHL PUSH1 0x20 SHR JUMP JUMPDEST SWAP2 POP SWAP2 POP DUP5 PUSH20 0xFFFFFFFFFFFFFFFFFFFFFFFFFFFFFFFFFFFFFFFF AND PUSH32 0xDEC2BACDD2F05B59DE34DA9B523DFF8BE42E5E38E818C82FDB0BAE774387A724 DUP4 DUP4 PUSH1 0x40 MLOAD PUSH2 0xDD4 SWAP3 SWAP2 SWAP1 PUSH2 0x18FF JUMP JUMPDEST PUSH1 0x40 MLOAD DUP1 SWAP2 SUB SWAP1 LOG2 POP POP JUMPDEST PUSH0 PUSH20 0xFFFFFFFFFFFFFFFFFFFFFFFFFFFFFFFFFFFFFFFF AND DUP3 PUSH20 0xFFFFFFFFFFFFFFFFFFFFFFFFFFFFFFFFFFFFFFFF AND EQ PUSH2 0xEC1 JUMPI PUSH0 PUSH0 PUSH2 0xE6A PUSH1 0xA PUSH0 DUP7 PUSH20 0xFFFFFFFFFFFFFFFFFFFFFFFFFFFFFFFFFFFFFFFF AND PUSH20 0xFFFFFFFFFFFFFFFFFFFFFFFFFFFFFFFFFFFFFFFF AND DUP2 MSTORE PUSH1 0x20 ADD SWAP1 DUP2 MSTORE PUSH1 0x20 ADD PUSH0 KECCAK256 PUSH2 0x72F PUSH1 0x20 SHL PUSH2 0x1C1F OR DUP6 PUSH2 0x744 PUSH1 0x20 SHL PUSH1 0x20 SHR JUMP JUMPDEST SWAP2 POP SWAP2 POP DUP4 PUSH20 0xFFFFFFFFFFFFFFFFFFFFFFFFFFFFFFFFFFFFFFFF AND PUSH32 0xDEC2BACDD2F05B59DE34DA9B523DFF8BE42E5E38E818C82FDB0BAE774387A724 DUP4 DUP4 PUSH1 0x40 MLOAD PUSH2 0xEB6 SWAP3 SWAP2 SWAP1 PUSH2 0x18FF JUMP JUMPDEST PUSH1 0x40 MLOAD DUP1 SWAP2 SUB SWAP1 LOG2 POP POP JUMPDEST JUMPDEST POP POP POP JUMP JUMPDEST PUSH0 DUP2 DUP4 PUSH2 0xED4 SWAP2 SWAP1 PUSH2 0x1926 JUMP JUMPDEST SWAP1 POP SWAP3 SWAP2 POP POP JUMP JUMPDEST PUSH0 DUP2 MLOAD SWAP1 POP SWAP2 SWAP1 POP JUMP JUMPDEST PUSH32 0x4E487B7100000000000000000000000000000000000000000000000000000000 PUSH0 MSTORE PUSH1 0x41 PUSH1 0x4 MSTORE PUSH1 0x24 PUSH0 REVERT JUMPDEST PUSH32 0x4E487B7100000000000000000000000000000000000000000000000000000000 PUSH0 MSTORE PUSH1 0x22 PUSH1 0x4 MSTORE PUSH1 0x24 PUSH0 REVERT JUMPDEST PUSH0 PUSH1 0x2 DUP3 DIV SWAP1 POP PUSH1 0x1 DUP3 AND DUP1 PUSH2 0xF57 JUMPI PUSH1 0x7F DUP3 AND SWAP2 POP JUMPDEST PUSH1 0x20 DUP3 LT DUP2 SUB PUSH2 0xF6A JUMPI PUSH2 0xF69 PUSH2 0xF13 JUMP JUMPDEST JUMPDEST POP SWAP2 SWAP1 POP JUMP JUMPDEST PUSH0 DUP2 SWAP1 POP DUP2 PUSH0 MSTORE PUSH1 0x20 PUSH0 KECCAK256 SWAP1 POP SWAP2 SWAP1 POP JUMP JUMPDEST PUSH0 PUSH1 0x20 PUSH1 0x1F DUP4 ADD DIV SWAP1 POP SWAP2 SWAP1 POP JUMP JUMPDEST PUSH0 DUP3 DUP3 SHL SWAP1 POP SWAP3 SWAP2 POP POP JUMP JUMPDEST PUSH0 PUSH1 0x8 DUP4 MUL PUSH2 0xFCC PUSH32 0xFFFFFFFFFFFFFFFFFFFFFFFFFFFFFFFFFFFFFFFFFFFFFFFFFFFFFFFFFFFFFFFF DUP3 PUSH2 0xF91 JUMP JUMPDEST PUSH2 0xFD6 DUP7 DUP4 PUSH2 0xF91 JUMP JUMPDEST SWAP6 POP DUP1 NOT DUP5 AND SWAP4 POP DUP1 DUP7 AND DUP5 OR SWAP3 POP POP POP SWAP4 SWAP3 POP POP POP JUMP JUMPDEST PUSH0 DUP2 SWAP1 POP SWAP2 SWAP1 POP JUMP JUMPDEST PUSH0 DUP2 SWAP1 POP SWAP2 SWAP1 POP JUMP JUMPDEST PUSH0 PUSH2 0x101A PUSH2 0x1015 PUSH2 0x1010 DUP5 PUSH2 0xFEE JUMP JUMPDEST PUSH2 0xFF7 JUMP JUMPDEST PUSH2 0xFEE JUMP JUMPDEST SWAP1 POP SWAP2 SWAP1 POP JUMP JUMPDEST PUSH0 DUP2 SWAP1 POP SWAP2 SWAP1 POP JUMP JUMPDEST PUSH2 0x1033 DUP4 PUSH2 0x1000 JUMP JUMPDEST PUSH2 0x1047 PUSH2 0x103F DUP3 PUSH2 0x1021 JUMP JUMPDEST DUP5 DUP5 SLOAD PUSH2 0xF9D JUMP JUMPDEST DUP3 SSTORE POP POP POP POP JUMP JUMPDEST PUSH0 PUSH0 SWAP1 POP SWAP1 JUMP JUMPDEST PUSH2 0x105E PUSH2 0x104F JUMP JUMPDEST PUSH2 0x1069 DUP2 DUP5 DUP5 PUSH2 0x102A JUMP JUMPDEST POP POP POP JUMP JUMPDEST JUMPDEST DUP2 DUP2 LT ISZERO PUSH2 0x108C JUMPI PUSH2 0x1081 PUSH0 DUP3 PUSH2 0x1056 JUMP JUMPDEST PUSH1 0x1 DUP2 ADD SWAP1 POP PUSH2 0x106F JUMP JUMPDEST POP POP JUMP JUMPDEST PUSH1 0x1F DUP3 GT ISZERO PUSH2 0x10D1 JUMPI PUSH2 0x10A2 DUP2 PUSH2 0xF70 JUMP JUMPDEST PUSH2 0x10AB DUP5 PUSH2 0xF82 JUMP JUMPDEST DUP2 ADD PUSH1 0x20 DUP6 LT ISZERO PUSH2 0x10BA JUMPI DUP2 SWAP1 POP JUMPDEST PUSH2 0x10CE PUSH2 0x10C6 DUP6 PUSH2 0xF82 JUMP JUMPDEST DUP4 ADD DUP3 PUSH2 0x106E JUMP JUMPDEST POP POP JUMPDEST POP POP POP JUMP JUMPDEST PUSH0 DUP3 DUP3 SHR SWAP1 POP SWAP3 SWAP2 POP POP JUMP JUMPDEST PUSH0 PUSH2 0x10F1 PUSH0 NOT DUP5 PUSH1 0x8 MUL PUSH2 0x10D6 JUMP JUMPDEST NOT DUP1 DUP4 AND SWAP2 POP POP SWAP3 SWAP2 POP POP JUMP JUMPDEST PUSH0 PUSH2 0x1109 DUP4 DUP4 PUSH2 0x10E2 JUMP JUMPDEST SWAP2 POP DUP3 PUSH1 0x2 MUL DUP3 OR SWAP1 POP SWAP3 SWAP2 POP POP JUMP JUMPDEST PUSH2 0x1122 DUP3 PUSH2 0xEDC JUMP JUMPDEST PUSH8 0xFFFFFFFFFFFFFFFF DUP2 GT ISZERO PUSH2 0x113B JUMPI PUSH2 0x113A PUSH2 0xEE6 JUMP JUMPDEST JUMPDEST PUSH2 0x1145 DUP3 SLOAD PUSH2 0xF40 JUMP JUMPDEST PUSH2 0x1150 DUP3 DUP3 DUP6 PUSH2 0x1090 JUMP JUMPDEST PUSH0 PUSH1 0x20 SWAP1 POP PUSH1 0x1F DUP4 GT PUSH1 0x1 DUP2 EQ PUSH2 0x1181 JUMPI PUSH0 DUP5 ISZERO PUSH2 0x116F JUMPI DUP3 DUP8 ADD MLOAD SWAP1 POP JUMPDEST PUSH2 0x1179 DUP6 DUP3 PUSH2 0x10FE JUMP JUMPDEST DUP7 SSTORE POP PUSH2 0x11E0 JUMP JUMPDEST PUSH1 0x1F NOT DUP5 AND PUSH2 0x118F DUP7 PUSH2 0xF70 JUMP JUMPDEST PUSH0 JUMPDEST DUP3 DUP2 LT ISZERO PUSH2 0x11B6 JUMPI DUP5 DUP10 ADD MLOAD DUP3 SSTORE PUSH1 0x1 DUP3 ADD SWAP2 POP PUSH1 0x20 DUP6 ADD SWAP5 POP PUSH1 0x20 DUP2 ADD SWAP1 POP PUSH2 0x1191 JUMP JUMPDEST DUP7 DUP4 LT ISZERO PUSH2 0x11D3 JUMPI DUP5 DUP10 ADD MLOAD PUSH2 0x11CF PUSH1 0x1F DUP10 AND DUP3 PUSH2 0x10E2 JUMP JUMPDEST DUP4 SSTORE POP JUMPDEST PUSH1 0x1 PUSH1 0x2 DUP9 MUL ADD DUP9 SSTORE POP POP POP JUMPDEST POP POP POP POP POP POP JUMP JUMPDEST PUSH32 0x4E487B7100000000000000000000000000000000000000000000000000000000 PUSH0 MSTORE PUSH1 0x11 PUSH1 0x4 MSTORE PUSH1 0x24 PUSH0 REVERT JUMPDEST PUSH0 DUP2 PUSH1 0x1 SHR SWAP1 POP SWAP2 SWAP1 POP JUMP JUMPDEST PUSH0 PUSH0 DUP3 SWAP2 POP DUP4 SWAP1 POP JUMPDEST PUSH1 0x1 DUP6 GT ISZERO PUSH2 0x126A JUMPI DUP1 DUP7 DIV DUP2 GT ISZERO PUSH2 0x1246 JUMPI PUSH2 0x1245 PUSH2 0x11E8 JUMP JUMPDEST JUMPDEST PUSH1 0x1 DUP6 AND ISZERO PUSH2 0x1255 JUMPI DUP1 DUP3 MUL SWAP2 POP JUMPDEST DUP1 DUP2 MUL SWAP1 POP PUSH2 0x1263 DUP6 PUSH2 0x1215 JUMP JUMPDEST SWAP5 POP PUSH2 0x122A JUMP JUMPDEST SWAP5 POP SWAP5 SWAP3 POP POP POP JUMP JUMPDEST PUSH0 DUP3 PUSH2 0x1282 JUMPI PUSH1 0x1 SWAP1 POP PUSH2 0x133D JUMP JUMPDEST DUP2 PUSH2 0x128F JUMPI PUSH0 SWAP1 POP PUSH2 0x133D JUMP JUMPDEST DUP2 PUSH1 0x1 DUP2 EQ PUSH2 0x12A5 JUMPI PUSH1 0x2 DUP2 EQ PUSH2 0x12AF JUMPI PUSH2 0x12DE JUMP JUMPDEST PUSH1 0x1 SWAP2 POP POP PUSH2 0x133D JUMP JUMPDEST PUSH1 0xFF DUP5 GT ISZERO PUSH2 0x12C1 JUMPI PUSH2 0x12C0 PUSH2 0x11E8 JUMP JUMPDEST JUMPDEST DUP4 PUSH1 0x2 EXP SWAP2 POP DUP5 DUP3 GT ISZERO PUSH2 0x12D8 JUMPI PUSH2 0x12D7 PUSH2 0x11E8 JUMP JUMPDEST JUMPDEST POP PUSH2 0x133D JUMP JUMPDEST POP PUSH1 0x20 DUP4 LT PUSH2 0x133 DUP4 LT AND PUSH1 0x4E DUP5 LT PUSH1 0xB DUP5 LT AND OR ISZERO PUSH2 0x1313 JUMPI DUP3 DUP3 EXP SWAP1 POP DUP4 DUP2 GT ISZERO PUSH2 0x130E JUMPI PUSH2 0x130D PUSH2 0x11E8 JUMP JUMPDEST JUMPDEST PUSH2 0x133D JUMP JUMPDEST PUSH2 0x1320 DUP5 DUP5 DUP5 PUSH1 0x1 PUSH2 0x1221 JUMP JUMPDEST SWAP3 POP SWAP1 POP DUP2 DUP5 DIV DUP2 GT ISZERO PUSH2 0x1337 JUMPI PUSH2 0x1336 PUSH2 0x11E8 JUMP JUMPDEST JUMPDEST DUP2 DUP2 MUL SWAP1 POP JUMPDEST SWAP4 SWAP3 POP POP POP JUMP JUMPDEST PUSH0 PUSH1 0xFF DUP3 AND SWAP1 POP SWAP2 SWAP1 POP JUMP JUMPDEST PUSH0 PUSH2 0x135A DUP3 PUSH2 0xFEE JUMP JUMPDEST SWAP2 POP PUSH2 0x1365 DUP4 PUSH2 0x1344 JUMP JUMPDEST SWAP3 POP PUSH2 0x1392 PUSH32 0xFFFFFFFFFFFFFFFFFFFFFFFFFFFFFFFFFFFFFFFFFFFFFFFFFFFFFFFFFFFFFFFF DUP5 DUP5 PUSH2 0x1273 JUMP JUMPDEST SWAP1 POP SWAP3 SWAP2 POP POP JUMP JUMPDEST PUSH0 PUSH2 0x13A4 DUP3 PUSH2 0xFEE JUMP JUMPDEST SWAP2 POP PUSH2 0x13AF DUP4 PUSH2 0xFEE JUMP JUMPDEST SWAP3 POP DUP3 DUP3 MUL PUSH2 0x13BD DUP2 PUSH2 0xFEE JUMP JUMPDEST SWAP2 POP DUP3 DUP3 DIV DUP5 EQ DUP4 ISZERO OR PUSH2 0x13D4 JUMPI PUSH2 0x13D3 PUSH2 0x11E8 JUMP JUMPDEST JUMPDEST POP SWAP3 SWAP2 POP POP JUMP JUMPDEST PUSH0 DUP2 SWAP1 POP SWAP2 SWAP1 POP JUMP JUMPDEST PUSH2 0x13ED DUP2 PUSH2 0x13DB JUMP JUMPDEST DUP3 MSTORE POP POP JUMP JUMPDEST PUSH2 0x13FC DUP2 PUSH2 0xFEE JUMP JUMPDEST DUP3 MSTORE POP POP JUMP JUMPDEST PUSH0 PUSH20 0xFFFFFFFFFFFFFFFFFFFFFFFFFFFFFFFFFFFFFFFF DUP3 AND SWAP1 POP SWAP2 SWAP1 POP JUMP JUMPDEST PUSH0 PUSH2 0x142B DUP3 PUSH2 0x1402 JUMP JUMPDEST SWAP1 POP SWAP2 SWAP1 POP JUMP JUMPDEST PUSH2 0x143B DUP2 PUSH2 0x1421 JUMP JUMPDEST DUP3 MSTORE POP POP JUMP JUMPDEST PUSH0 PUSH1 0xA0 DUP3 ADD SWAP1 POP PUSH2 0x1454 PUSH0 DUP4 ADD DUP9 PUSH2 0x13E4 JUMP JUMPDEST PUSH2 0x1461 PUSH1 0x20 DUP4 ADD DUP8 PUSH2 0x13E4 JUMP JUMPDEST PUSH2 0x146E PUSH1 0x40 DUP4 ADD DUP7 PUSH2 0x13E4 JUMP JUMPDEST PUSH2 0x147B PUSH1 0x60 DUP4 ADD DUP6 PUSH2 0x13F3 JUMP JUMPDEST PUSH2 0x1488 PUSH1 0x80 DUP4 ADD DUP5 PUSH2 0x1432 JUMP JUMPDEST SWAP7 SWAP6 POP POP POP POP POP POP JUMP JUMPDEST PUSH0 DUP3 DUP3 MSTORE PUSH1 0x20 DUP3 ADD SWAP1 POP SWAP3 SWAP2 POP POP JUMP JUMPDEST DUP3 DUP2 DUP4 MCOPY PUSH0 DUP4 DUP4 ADD MSTORE POP POP POP JUMP JUMPDEST PUSH0 PUSH1 0x1F NOT PUSH1 0x1F DUP4 ADD AND SWAP1 POP SWAP2 SWAP1 POP JUMP JUMPDEST PUSH0 PUSH2 0x14CA DUP3 PUSH2 0xEDC JUMP JUMPDEST PUSH2 0x14D4 DUP2 DUP6 PUSH2 0x1492 JUMP JUMPDEST SWAP4 POP PUSH2 0x14E4 DUP2 DUP6 PUSH1 0x20 DUP7 ADD PUSH2 0x14A2 JUMP JUMPDEST PUSH2 0x14ED DUP2 PUSH2 0x14B0 JUMP JUMPDEST DUP5 ADD SWAP2 POP POP SWAP3 SWAP2 POP POP JUMP JUMPDEST PUSH0 PUSH1 0x20 DUP3 ADD SWAP1 POP DUP2 DUP2 SUB PUSH0 DUP4 ADD MSTORE PUSH2 0x1510 DUP2 DUP5 PUSH2 0x14C0 JUMP JUMPDEST SWAP1 POP SWAP3 SWAP2 POP POP JUMP JUMPDEST PUSH0 DUP2 MLOAD SWAP1 POP SWAP2 SWAP1 POP JUMP JUMPDEST PUSH0 DUP2 SWAP1 POP PUSH1 0x20 DUP3 ADD SWAP1 POP SWAP2 SWAP1 POP JUMP JUMPDEST PUSH0 PUSH2 0x153C DUP3 MLOAD PUSH2 0x13DB JUMP JUMPDEST DUP1 SWAP2 POP POP SWAP2 SWAP1 POP JUMP JUMPDEST PUSH0 PUSH2 0x154F DUP3 PUSH2 0x1518 JUMP JUMPDEST DUP3 PUSH2 0x1559 DUP5 PUSH2 0x1522 JUMP JUMPDEST SWAP1 POP PUSH2 0x1564 DUP2 PUSH2 0x1531 JUMP JUMPDEST SWAP3 POP PUSH1 0x20 DUP3 LT ISZERO PUSH2 0x15A4 JUMPI PUSH2 0x159F PUSH32 0xFFFFFFFFFFFFFFFFFFFFFFFFFFFFFFFFFFFFFFFFFFFFFFFFFFFFFFFFFFFFFFFF DUP4 PUSH1 0x20 SUB PUSH1 0x8 MUL PUSH2 0xF91 JUMP JUMPDEST DUP4 AND SWAP3 POP JUMPDEST POP POP SWAP2 SWAP1 POP JUMP JUMPDEST PUSH32 0x4552433230566F7465733A20746F74616C20737570706C79207269736B73206F PUSH0 DUP3 ADD MSTORE PUSH32 0x766572666C6F77696E6720766F74657300000000000000000000000000000000 PUSH1 0x20 DUP3 ADD MSTORE POP JUMP JUMPDEST PUSH0 PUSH2 0x1605 PUSH1 0x30 DUP4 PUSH2 0x1492 JUMP JUMPDEST SWAP2 POP PUSH2 0x1610 DUP3 PUSH2 0x15AB JUMP JUMPDEST PUSH1 0x40 DUP3 ADD SWAP1 POP SWAP2 SWAP1 POP JUMP JUMPDEST PUSH0 PUSH1 0x20 DUP3 ADD SWAP1 POP DUP2 DUP2 SUB PUSH0 DUP4 ADD MSTORE PUSH2 0x1632 DUP2 PUSH2 0x15F9 JUMP JUMPDEST SWAP1 POP SWAP2 SWAP1 POP JUMP JUMPDEST PUSH32 0x45524332303A206D696E7420746F20746865207A65726F206164647265737300 PUSH0 DUP3 ADD MSTORE POP JUMP JUMPDEST PUSH0 PUSH2 0x166D PUSH1 0x1F DUP4 PUSH2 0x1492 JUMP JUMPDEST SWAP2 POP PUSH2 0x1678 DUP3 PUSH2 0x1639 JUMP JUMPDEST PUSH1 0x20 DUP3 ADD SWAP1 POP SWAP2 SWAP1 POP JUMP JUMPDEST PUSH0 PUSH1 0x20 DUP3 ADD SWAP1 POP DUP2 DUP2 SUB PUSH0 DUP4 ADD MSTORE PUSH2 0x169A DUP2 PUSH2 0x1661 JUMP JUMPDEST SWAP1 POP SWAP2 SWAP1 POP JUMP JUMPDEST PUSH0 PUSH2 0x16AB DUP3 PUSH2 0xFEE JUMP JUMPDEST SWAP2 POP PUSH2 0x16B6 DUP4 PUSH2 0xFEE JUMP JUMPDEST SWAP3 POP DUP3 DUP3 ADD SWAP1 POP DUP1 DUP3 GT ISZERO PUSH2 0x16CE JUMPI PUSH2 0x16CD PUSH2 0x11E8 JUMP JUMPDEST JUMPDEST SWAP3 SWAP2 POP POP JUMP JUMPDEST PUSH0 PUSH1 0x20 DUP3 ADD SWAP1 POP PUSH2 0x16E7 PUSH0 DUP4 ADD DUP5 PUSH2 0x13F3 JUMP JUMPDEST SWAP3 SWAP2 POP POP JUMP JUMPDEST PUSH32 0x53616665436173743A2076616C756520646F65736E27742066697420696E2032 PUSH0 DUP3 ADD MSTORE PUSH32 0x3234206269747300000000000000000000000000000000000000000000000000 PUSH1 0x20 DUP3 ADD MSTORE POP JUMP JUMPDEST PUSH0 PUSH2 0x1747 PUSH1 0x27 DUP4 PUSH2 0x1492 JUMP JUMPDEST SWAP2 POP PUSH2 0x1752 DUP3 PUSH2 0x16ED JUMP JUMPDEST PUSH1 0x40 DUP3 ADD SWAP1 POP SWAP2 SWAP1 POP JUMP JUMPDEST PUSH0 PUSH1 0x20 DUP3 ADD SWAP1 POP DUP2 DUP2 SUB PUSH0 DUP4 ADD MSTORE PUSH2 0x1774 DUP2 PUSH2 0x173B JUMP JUMPDEST SWAP1 POP SWAP2 SWAP1 POP JUMP JUMPDEST PUSH32 0x53616665436173743A2076616C756520646F65736E27742066697420696E2033 PUSH0 DUP3 ADD MSTORE PUSH32 0x3220626974730000000000000000000000000000000000000000000000000000 PUSH1 0x20 DUP3 ADD MSTORE POP JUMP JUMPDEST PUSH0 PUSH2 0x17D5 PUSH1 0x26 DUP4 PUSH2 0x1492 JUMP JUMPDEST SWAP2 POP PUSH2 0x17E0 DUP3 PUSH2 0x177B JUMP JUMPDEST PUSH1 0x40 DUP3 ADD SWAP1 POP SWAP2 SWAP1 POP JUMP JUMPDEST PUSH0 PUSH1 0x20 DUP3 ADD SWAP1 POP DUP2 DUP2 SUB PUSH0 DUP4 ADD MSTORE PUSH2 0x1802 DUP2 PUSH2 0x17C9 JUMP JUMPDEST SWAP1 POP SWAP2 SWAP1 POP JUMP JUMPDEST PUSH32 0x5061757361626C653A2070617573656400000000000000000000000000000000 PUSH0 DUP3 ADD MSTORE POP JUMP JUMPDEST PUSH0 PUSH2 0x183D PUSH1 0x10 DUP4 PUSH2 0x1492 JUMP JUMPDEST SWAP2 POP PUSH2 0x1848 DUP3 PUSH2 0x1809 JUMP JUMPDEST PUSH1 0x20 DUP3 ADD SWAP1 POP SWAP2 SWAP1 POP JUMP JUMPDEST PUSH0 PUSH1 0x20 DUP3 ADD SWAP1 POP DUP2 DUP2 SUB PUSH0 DUP4 ADD MSTORE PUSH2 0x186A DUP2 PUSH2 0x1831 JUMP JUMPDEST SWAP1 POP SWAP2 SWAP1 POP JUMP JUMPDEST PUSH32 0x53616665436173743A2076616C756520646F65736E27742066697420696E2034 PUSH0 DUP3 ADD MSTORE PUSH32 0x3820626974730000000000000000000000000000000000000000000000000000 PUSH1 0x20 DUP3 ADD MSTORE POP JUMP JUMPDEST PUSH0 PUSH2 0x18CB PUSH1 0x26 DUP4 PUSH2 0x1492 JUMP JUMPDEST SWAP2 POP PUSH2 0x18D6 DUP3 PUSH2 0x1871 JUMP JUMPDEST PUSH1 0x40 DUP3 ADD SWAP1 POP SWAP2 SWAP1 POP JUMP JUMPDEST PUSH0 PUSH1 0x20 DUP3 ADD SWAP1 POP DUP2 DUP2 SUB PUSH0 DUP4 ADD MSTORE PUSH2 0x18F8 DUP2 PUSH2 0x18BF JUMP JUMPDEST SWAP1 POP SWAP2 SWAP1 POP JUMP JUMPDEST PUSH0 PUSH1 0x40 DUP3 ADD SWAP1 POP PUSH2 0x1912 PUSH0 DUP4 ADD DUP6 PUSH2 0x13F3 JUMP JUMPDEST PUSH2 0x191F PUSH1 0x20 DUP4 ADD DUP5 PUSH2 0x13F3 JUMP JUMPDEST SWAP4 SWAP3 POP POP POP JUMP JUMPDEST PUSH0 PUSH2 0x1930 DUP3 PUSH2 0xFEE JUMP JUMPDEST SWAP2 POP PUSH2 0x193B DUP4 PUSH2 0xFEE JUMP JUMPDEST SWAP3 POP DUP3 DUP3 SUB SWAP1 POP DUP2 DUP2 GT ISZERO PUSH2 0x1953 JUMPI PUSH2 0x1952 PUSH2 0x11E8 JUMP JUMPDEST JUMPDEST SWAP3 SWAP2 POP POP JUMP JUMPDEST PUSH1 0x80 MLOAD PUSH1 0xA0 MLOAD PUSH1 0xC0 MLOAD PUSH1 0xE0 MLOAD PUSH2 0x100 MLOAD PUSH2 0x120 MLOAD PUSH2 0x140 MLOAD PUSH2 0x5BFB PUSH2 0x19AA PUSH0 CODECOPY PUSH0 PUSH2 0x106D ADD MSTORE PUSH0 PUSH2 0x1039 ADD MSTORE PUSH0 PUSH2 0x2A80 ADD MSTORE PUSH0 PUSH2 0x2A5F ADD MSTORE PUSH0 PUSH2 0x210D ADD MSTORE PUSH0 PUSH2 0x2163 ADD MSTORE PUSH0 PUSH2 0x218C ADD MSTORE PUSH2 0x5BFB PUSH0 RETURN INVALID PUSH1 0x80 PUSH1 0x40 MSTORE CALLVALUE DUP1 ISZERO PUSH2 0xF JUMPI PUSH0 PUSH0 REVERT JUMPDEST POP PUSH1 0x4 CALLDATASIZE LT PUSH2 0x272 JUMPI PUSH0 CALLDATALOAD PUSH1 0xE0 SHR DUP1 PUSH4 0x715018A6 GT PUSH2 0x14F JUMPI DUP1 PUSH4 0x9AB24EB0 GT PUSH2 0xC1 JUMPI DUP1 PUSH4 0xD505ACCF GT PUSH2 0x85 JUMPI DUP1 PUSH4 0xD505ACCF EQ PUSH2 0x782 JUMPI DUP1 PUSH4 0xDD62ED3E EQ PUSH2 0x79E JUMPI DUP1 PUSH4 0xF1127ED8 EQ PUSH2 0x7CE JUMPI DUP1 PUSH4 0xF2FDE38B EQ PUSH2 0x7FE JUMPI DUP1 PUSH4 0xFCE589D8 EQ PUSH2 0x81A JUMPI DUP1 PUSH4 0xFF768C40 EQ PUSH2 0x838 JUMPI PUSH2 0x272 JUMP JUMPDEST DUP1 PUSH4 0x9AB24EB0 EQ PUSH2 0x6B8 JUMPI DUP1 PUSH4 0xA457C2D7 EQ PUSH2 0x6E8 JUMPI DUP1 PUSH4 0xA9059CBB EQ PUSH2 0x718 JUMPI DUP1 PUSH4 0xBC063E1A EQ PUSH2 0x748 JUMPI DUP1 PUSH4 0xC3CDA520 EQ PUSH2 0x766 JUMPI PUSH2 0x272 JUMP JUMPDEST DUP1 PUSH4 0x8DA5CB5B GT PUSH2 0x113 JUMPI DUP1 PUSH4 0x8DA5CB5B EQ PUSH2 0x5F2 JUMPI DUP1 PUSH4 0x8E539E8C EQ PUSH2 0x610 JUMPI DUP1 PUSH4 0x8EA5220F EQ PUSH2 0x640 JUMPI DUP1 PUSH4 0x91DDADF4 EQ PUSH2 0x65E JUMPI DUP1 PUSH4 0x95D89B41 EQ PUSH2 0x67C JUMPI DUP1 PUSH4 0x98118CB4 EQ PUSH2 0x69A JUMPI PUSH2 0x272 JUMP JUMPDEST DUP1 PUSH4 0x715018A6 EQ PUSH2 0x56C JUMPI DUP1 PUSH4 0x75F0A874 EQ PUSH2 0x576 JUMPI DUP1 PUSH4 0x7ECEBE00 EQ PUSH2 0x594 JUMPI DUP1 PUSH4 0x8456CB59 EQ PUSH2 0x5C4 JUMPI DUP1 PUSH4 0x84B0196E EQ PUSH2 0x5CE JUMPI PUSH2 0x272 JUMP JUMPDEST DUP1 PUSH4 0x3F4BA83A GT PUSH2 0x1E8 JUMPI DUP1 PUSH4 0x5C975ABB GT PUSH2 0x1AC JUMPI DUP1 PUSH4 0x5C975ABB EQ PUSH2 0x496 JUMPI DUP1 PUSH4 0x6029BF9F EQ PUSH2 0x4B4 JUMPI DUP1 PUSH4 0x6827E764 EQ PUSH2 0x4D0 JUMPI DUP1 PUSH4 0x6B67C4DF EQ PUSH2 0x4EE JUMPI DUP1 PUSH4 0x6FCFFF45 EQ PUSH2 0x50C JUMPI DUP1 PUSH4 0x70A08231 EQ PUSH2 0x53C JUMPI PUSH2 0x272 JUMP JUMPDEST DUP1 PUSH4 0x3F4BA83A EQ PUSH2 0x406 JUMPI DUP1 PUSH4 0x42966C68 EQ PUSH2 0x410 JUMPI DUP1 PUSH4 0x4BF5D7E9 EQ PUSH2 0x42C JUMPI DUP1 PUSH4 0x587CDE1E EQ PUSH2 0x44A JUMPI DUP1 PUSH4 0x5C19A95C EQ PUSH2 0x47A JUMPI PUSH2 0x272 JUMP JUMPDEST DUP1 PUSH4 0x313CE567 GT PUSH2 0x23A JUMPI DUP1 PUSH4 0x313CE567 EQ PUSH2 0x32E JUMPI DUP1 PUSH4 0x35917C64 EQ PUSH2 0x34C JUMPI DUP1 PUSH4 0x3644E515 EQ PUSH2 0x36A JUMPI DUP1 PUSH4 0x39509351 EQ PUSH2 0x388 JUMPI DUP1 PUSH4 0x3A46B1A8 EQ PUSH2 0x3B8 JUMPI DUP1 PUSH4 0x3B2D081C EQ PUSH2 0x3E8 JUMPI PUSH2 0x272 JUMP JUMPDEST DUP1 PUSH4 0x4A66B48 EQ PUSH2 0x276 JUMPI DUP1 PUSH4 0x6FDDE03 EQ PUSH2 0x292 JUMPI DUP1 PUSH4 0x95EA7B3 EQ PUSH2 0x2B0 JUMPI DUP1 PUSH4 0x18160DDD EQ PUSH2 0x2E0 JUMPI DUP1 PUSH4 0x23B872DD EQ PUSH2 0x2FE JUMPI JUMPDEST PUSH0 PUSH0 REVERT JUMPDEST PUSH2 0x290 PUSH1 0x4 DUP1 CALLDATASIZE SUB DUP2 ADD SWAP1 PUSH2 0x28B SWAP2 SWAP1 PUSH2 0x3B14 JUMP JUMPDEST PUSH2 0x854 JUMP JUMPDEST STOP JUMPDEST PUSH2 0x29A PUSH2 0x964 JUMP JUMPDEST PUSH1 0x40 MLOAD PUSH2 0x2A7 SWAP2 SWAP1 PUSH2 0x3BFB JUMP JUMPDEST PUSH1 0x40 MLOAD DUP1 SWAP2 SUB SWAP1 RETURN JUMPDEST PUSH2 0x2CA PUSH1 0x4 DUP1 CALLDATASIZE SUB DUP2 ADD SWAP1 PUSH2 0x2C5 SWAP2 SWAP1 PUSH2 0x3C75 JUMP JUMPDEST PUSH2 0x9F4 JUMP JUMPDEST PUSH1 0x40 MLOAD PUSH2 0x2D7 SWAP2 SWAP1 PUSH2 0x3CCD JUMP JUMPDEST PUSH1 0x40 MLOAD DUP1 SWAP2 SUB SWAP1 RETURN JUMPDEST PUSH2 0x2E8 PUSH2 0xA16 JUMP JUMPDEST PUSH1 0x40 MLOAD PUSH2 0x2F5 SWAP2 SWAP1 PUSH2 0x3CF5 JUMP JUMPDEST PUSH1 0x40 MLOAD DUP1 SWAP2 SUB SWAP1 RETURN JUMPDEST PUSH2 0x318 PUSH1 0x4 DUP1 CALLDATASIZE SUB DUP2 ADD SWAP1 PUSH2 0x313 SWAP2 SWAP1 PUSH2 0x3D0E JUMP JUMPDEST PUSH2 0xA1F JUMP JUMPDEST PUSH1 0x40 MLOAD PUSH2 0x325 SWAP2 SWAP1 PUSH2 0x3CCD JUMP JUMPDEST PUSH1 0x40 MLOAD DUP1 SWAP2 SUB SWAP1 RETURN JUMPDEST PUSH2 0x336 PUSH2 0xA4D JUMP JUMPDEST PUSH1 0x40 MLOAD PUSH2 0x343 SWAP2 SWAP1 PUSH2 0x3D79 JUMP JUMPDEST PUSH1 0x40 MLOAD DUP1 SWAP2 SUB SWAP1 RETURN JUMPDEST PUSH2 0x354 PUSH2 0xA55 JUMP JUMPDEST PUSH1 0x40 MLOAD PUSH2 0x361 SWAP2 SWAP1 PUSH2 0x3CF5 JUMP JUMPDEST PUSH1 0x40 MLOAD DUP1 SWAP2 SUB SWAP1 RETURN JUMPDEST PUSH2 0x372 PUSH2 0xA64 JUMP JUMPDEST PUSH1 0x40 MLOAD PUSH2 0x37F SWAP2 SWAP1 PUSH2 0x3DAA JUMP JUMPDEST PUSH1 0x40 MLOAD DUP1 SWAP2 SUB SWAP1 RETURN JUMPDEST PUSH2 0x3A2 PUSH1 0x4 DUP1 CALLDATASIZE SUB DUP2 ADD SWAP1 PUSH2 0x39D SWAP2 SWAP1 PUSH2 0x3C75 JUMP JUMPDEST PUSH2 0xA72 JUMP JUMPDEST PUSH1 0x40 MLOAD PUSH2 0x3AF SWAP2 SWAP1 PUSH2 0x3CCD JUMP JUMPDEST PUSH1 0x40 MLOAD DUP1 SWAP2 SUB SWAP1 RETURN JUMPDEST PUSH2 0x3D2 PUSH1 0x4 DUP1 CALLDATASIZE SUB DUP2 ADD SWAP1 PUSH2 0x3CD SWAP2 SWAP1 PUSH2 0x3C75 JUMP JUMPDEST PUSH2 0xAA8 JUMP JUMPDEST PUSH1 0x40 MLOAD PUSH2 0x3DF SWAP2 SWAP1 PUSH2 0x3CF5 JUMP JUMPDEST PUSH1 0x40 MLOAD DUP1 SWAP2 SUB SWAP1 RETURN JUMPDEST PUSH2 0x3F0 PUSH2 0xB48 JUMP JUMPDEST PUSH1 0x40 MLOAD PUSH2 0x3FD SWAP2 SWAP1 PUSH2 0x3CF5 JUMP JUMPDEST PUSH1 0x40 MLOAD DUP1 SWAP2 SUB SWAP1 RETURN JUMPDEST PUSH2 0x40E PUSH2 0xB4E JUMP JUMPDEST STOP JUMPDEST PUSH2 0x42A PUSH1 0x4 DUP1 CALLDATASIZE SUB DUP2 ADD SWAP1 PUSH2 0x425 SWAP2 SWAP1 PUSH2 0x3DC3 JUMP JUMPDEST PUSH2 0xB60 JUMP JUMPDEST STOP JUMPDEST PUSH2 0x434 PUSH2 0xBCD JUMP JUMPDEST PUSH1 0x40 MLOAD PUSH2 0x441 SWAP2 SWAP1 PUSH2 0x3BFB JUMP JUMPDEST PUSH1 0x40 MLOAD DUP1 SWAP2 SUB SWAP1 RETURN JUMPDEST PUSH2 0x464 PUSH1 0x4 DUP1 CALLDATASIZE SUB DUP2 ADD SWAP1 PUSH2 0x45F SWAP2 SWAP1 PUSH2 0x3DEE JUMP JUMPDEST PUSH2 0xC5B JUMP JUMPDEST PUSH1 0x40 MLOAD PUSH2 0x471 SWAP2 SWAP1 PUSH2 0x3E28 JUMP JUMPDEST PUSH1 0x40 MLOAD DUP1 SWAP2 SUB SWAP1 RETURN JUMPDEST PUSH2 0x494 PUSH1 0x4 DUP1 CALLDATASIZE SUB DUP2 ADD SWAP1 PUSH2 0x48F SWAP2 SWAP1 PUSH2 0x3DEE JUMP JUMPDEST PUSH2 0xCC0 JUMP JUMPDEST STOP JUMPDEST PUSH2 0x49E PUSH2 0xCD4 JUMP JUMPDEST PUSH1 0x40 MLOAD PUSH2 0x4AB SWAP2 SWAP1 PUSH2 0x3CCD JUMP JUMPDEST PUSH1 0x40 MLOAD DUP1 SWAP2 SUB SWAP1 RETURN JUMPDEST PUSH2 0x4CE PUSH1 0x4 DUP1 CALLDATASIZE SUB DUP2 ADD SWAP1 PUSH2 0x4C9 SWAP2 SWAP1 PUSH2 0x3DC3 JUMP JUMPDEST PUSH2 0xCEA JUMP JUMPDEST STOP JUMPDEST PUSH2 0x4D8 PUSH2 0xEF0 JUMP JUMPDEST PUSH1 0x40 MLOAD PUSH2 0x4E5 SWAP2 SWAP1 PUSH2 0x3CF5 JUMP JUMPDEST PUSH1 0x40 MLOAD DUP1 SWAP2 SUB SWAP1 RETURN JUMPDEST PUSH2 0x4F6 PUSH2 0xEF6 JUMP JUMPDEST PUSH1 0x40 MLOAD PUSH2 0x503 SWAP2 SWAP1 PUSH2 0x3CF5 JUMP JUMPDEST PUSH1 0x40 MLOAD DUP1 SWAP2 SUB SWAP1 RETURN JUMPDEST PUSH2 0x526 PUSH1 0x4 DUP1 CALLDATASIZE SUB DUP2 ADD SWAP1 PUSH2 0x521 SWAP2 SWAP1 PUSH2 0x3DEE JUMP JUMPDEST PUSH2 0xEFC JUMP JUMPDEST PUSH1 0x40 MLOAD PUSH2 0x533 SWAP2 SWAP1 PUSH2 0x3E5F JUMP JUMPDEST PUSH1 0x40 MLOAD DUP1 SWAP2 SUB SWAP1 RETURN JUMPDEST PUSH2 0x556 PUSH1 0x4 DUP1 CALLDATASIZE SUB DUP2 ADD SWAP1 PUSH2 0x551 SWAP2 SWAP1 PUSH2 0x3DEE JUMP JUMPDEST PUSH2 0xF4D JUMP JUMPDEST PUSH1 0x40 MLOAD PUSH2 0x563 SWAP2 SWAP1 PUSH2 0x3CF5 JUMP JUMPDEST PUSH1 0x40 MLOAD DUP1 SWAP2 SUB SWAP1 RETURN JUMPDEST PUSH2 0x574 PUSH2 0xF92 JUMP JUMPDEST STOP JUMPDEST PUSH2 0x57E PUSH2 0xFA5 JUMP JUMPDEST PUSH1 0x40 MLOAD PUSH2 0x58B SWAP2 SWAP1 PUSH2 0x3E28 JUMP JUMPDEST PUSH1 0x40 MLOAD DUP1 SWAP2 SUB SWAP1 RETURN JUMPDEST PUSH2 0x5AE PUSH1 0x4 DUP1 CALLDATASIZE SUB DUP2 ADD SWAP1 PUSH2 0x5A9 SWAP2 SWAP1 PUSH2 0x3DEE JUMP JUMPDEST PUSH2 0xFCA JUMP JUMPDEST PUSH1 0x40 MLOAD PUSH2 0x5BB SWAP2 SWAP1 PUSH2 0x3CF5 JUMP JUMPDEST PUSH1 0x40 MLOAD DUP1 SWAP2 SUB SWAP1 RETURN JUMPDEST PUSH2 0x5CC PUSH2 0x1017 JUMP JUMPDEST STOP JUMPDEST PUSH2 0x5D6 PUSH2 0x1029 JUMP JUMPDEST PUSH1 0x40 MLOAD PUSH2 0x5E9 SWAP8 SWAP7 SWAP6 SWAP5 SWAP4 SWAP3 SWAP2 SWAP1 PUSH2 0x3F69 JUMP JUMPDEST PUSH1 0x40 MLOAD DUP1 SWAP2 SUB SWAP1 RETURN JUMPDEST PUSH2 0x5FA PUSH2 0x1126 JUMP JUMPDEST PUSH1 0x40 MLOAD PUSH2 0x607 SWAP2 SWAP1 PUSH2 0x3E28 JUMP JUMPDEST PUSH1 0x40 MLOAD DUP1 SWAP2 SUB SWAP1 RETURN JUMPDEST PUSH2 0x62A PUSH1 0x4 DUP1 CALLDATASIZE SUB DUP2 ADD SWAP1 PUSH2 0x625 SWAP2 SWAP1 PUSH2 0x3DC3 JUMP JUMPDEST PUSH2 0x114E JUMP JUMPDEST PUSH1 0x40 MLOAD PUSH2 0x637 SWAP2 SWAP1 PUSH2 0x3CF5 JUMP JUMPDEST PUSH1 0x40 MLOAD DUP1 SWAP2 SUB SWAP1 RETURN JUMPDEST PUSH2 0x648 PUSH2 0x11B2 JUMP JUMPDEST PUSH1 0x40 MLOAD PUSH2 0x655 SWAP2 SWAP1 PUSH2 0x3E28 JUMP JUMPDEST PUSH1 0x40 MLOAD DUP1 SWAP2 SUB SWAP1 RETURN JUMPDEST PUSH2 0x666 PUSH2 0x11D7 JUMP JUMPDEST PUSH1 0x40 MLOAD PUSH2 0x673 SWAP2 SWAP1 PUSH2 0x400B JUMP JUMPDEST PUSH1 0x40 MLOAD DUP1 SWAP2 SUB SWAP1 RETURN JUMPDEST PUSH2 0x684 PUSH2 0x11E6 JUMP JUMPDEST PUSH1 0x40 MLOAD PUSH2 0x691 SWAP2 SWAP1 PUSH2 0x3BFB JUMP JUMPDEST PUSH1 0x40 MLOAD DUP1 SWAP2 SUB SWAP1 RETURN JUMPDEST PUSH2 0x6A2 PUSH2 0x1276 JUMP JUMPDEST PUSH1 0x40 MLOAD PUSH2 0x6AF SWAP2 SWAP1 PUSH2 0x3CF5 JUMP JUMPDEST PUSH1 0x40 MLOAD DUP1 SWAP2 SUB SWAP1 RETURN JUMPDEST PUSH2 0x6D2 PUSH1 0x4 DUP1 CALLDATASIZE SUB DUP2 ADD SWAP1 PUSH2 0x6CD SWAP2 SWAP1 PUSH2 0x3DEE JUMP JUMPDEST PUSH2 0x127C JUMP JUMPDEST PUSH1 0x40 MLOAD PUSH2 0x6DF SWAP2 SWAP1 PUSH2 0x3CF5 JUMP JUMPDEST PUSH1 0x40 MLOAD DUP1 SWAP2 SUB SWAP1 RETURN JUMPDEST PUSH2 0x702 PUSH1 0x4 DUP1 CALLDATASIZE SUB DUP2 ADD SWAP1 PUSH2 0x6FD SWAP2 SWAP1 PUSH2 0x3C75 JUMP JUMPDEST PUSH2 0x137A JUMP JUMPDEST PUSH1 0x40 MLOAD PUSH2 0x70F SWAP2 SWAP1 PUSH2 0x3CCD JUMP JUMPDEST PUSH1 0x40 MLOAD DUP1 SWAP2 SUB SWAP1 RETURN JUMPDEST PUSH2 0x732 PUSH1 0x4 DUP1 CALLDATASIZE SUB DUP2 ADD SWAP1 PUSH2 0x72D SWAP2 SWAP1 PUSH2 0x3C75 JUMP JUMPDEST PUSH2 0x13EF JUMP JUMPDEST PUSH1 0x40 MLOAD PUSH2 0x73F SWAP2 SWAP1 PUSH2 0x3CCD JUMP JUMPDEST PUSH1 0x40 MLOAD DUP1 SWAP2 SUB SWAP1 RETURN JUMPDEST PUSH2 0x750 PUSH2 0x1411 JUMP JUMPDEST PUSH1 0x40 MLOAD PUSH2 0x75D SWAP2 SWAP1 PUSH2 0x3CF5 JUMP JUMPDEST PUSH1 0x40 MLOAD DUP1 SWAP2 SUB SWAP1 RETURN JUMPDEST PUSH2 0x780 PUSH1 0x4 DUP1 CALLDATASIZE SUB DUP2 ADD SWAP1 PUSH2 0x77B SWAP2 SWAP1 PUSH2 0x4078 JUMP JUMPDEST PUSH2 0x1417 JUMP JUMPDEST STOP JUMPDEST PUSH2 0x79C PUSH1 0x4 DUP1 CALLDATASIZE SUB DUP2 ADD SWAP1 PUSH2 0x797 SWAP2 SWAP1 PUSH2 0x4101 JUMP JUMPDEST PUSH2 0x151A JUMP JUMPDEST STOP JUMPDEST PUSH2 0x7B8 PUSH1 0x4 DUP1 CALLDATASIZE SUB DUP2 ADD SWAP1 PUSH2 0x7B3 SWAP2 SWAP1 PUSH2 0x419E JUMP JUMPDEST PUSH2 0x1659 JUMP JUMPDEST PUSH1 0x40 MLOAD PUSH2 0x7C5 SWAP2 SWAP1 PUSH2 0x3CF5 JUMP JUMPDEST PUSH1 0x40 MLOAD DUP1 SWAP2 SUB SWAP1 RETURN JUMPDEST PUSH2 0x7E8 PUSH1 0x4 DUP1 CALLDATASIZE SUB DUP2 ADD SWAP1 PUSH2 0x7E3 SWAP2 SWAP1 PUSH2 0x4206 JUMP JUMPDEST PUSH2 0x16DB JUMP JUMPDEST PUSH1 0x40 MLOAD PUSH2 0x7F5 SWAP2 SWAP1 PUSH2 0x42B6 JUMP JUMPDEST PUSH1 0x40 MLOAD DUP1 SWAP2 SUB SWAP1 RETURN JUMPDEST PUSH2 0x818 PUSH1 0x4 DUP1 CALLDATASIZE SUB DUP2 ADD SWAP1 PUSH2 0x813 SWAP2 SWAP1 PUSH2 0x3DEE JUMP JUMPDEST PUSH2 0x17E4 JUMP JUMPDEST STOP JUMPDEST PUSH2 0x822 PUSH2 0x1866 JUMP JUMPDEST PUSH1 0x40 MLOAD PUSH2 0x82F SWAP2 SWAP1 PUSH2 0x3CF5 JUMP JUMPDEST PUSH1 0x40 MLOAD DUP1 SWAP2 SUB SWAP1 RETURN JUMPDEST PUSH2 0x852 PUSH1 0x4 DUP1 CALLDATASIZE SUB DUP2 ADD SWAP1 PUSH2 0x84D SWAP2 SWAP1 PUSH2 0x42CF JUMP JUMPDEST PUSH2 0x186C JUMP JUMPDEST STOP JUMPDEST PUSH2 0x85C PUSH2 0x1126 JUMP JUMPDEST PUSH20 0xFFFFFFFFFFFFFFFFFFFFFFFFFFFFFFFFFFFFFFFF AND CALLER PUSH20 0xFFFFFFFFFFFFFFFFFFFFFFFFFFFFFFFFFFFFFFFF AND EQ PUSH2 0x8C9 JUMPI PUSH1 0x40 MLOAD PUSH32 0x8C379A000000000000000000000000000000000000000000000000000000000 DUP2 MSTORE PUSH1 0x4 ADD PUSH2 0x8C0 SWAP1 PUSH2 0x4390 JUMP JUMPDEST PUSH1 0x40 MLOAD DUP1 SWAP2 SUB SWAP1 REVERT JUMPDEST PUSH2 0x2710 DUP2 DUP4 DUP6 DUP8 DUP10 PUSH2 0x8DB SWAP2 SWAP1 PUSH2 0x43DB JUMP JUMPDEST PUSH2 0x8E5 SWAP2 SWAP1 PUSH2 0x43DB JUMP JUMPDEST PUSH2 0x8EF SWAP2 SWAP1 PUSH2 0x43DB JUMP JUMPDEST PUSH2 0x8F9 SWAP2 SWAP1 PUSH2 0x43DB JUMP JUMPDEST GT ISZERO PUSH2 0x93A JUMPI PUSH1 0x40 MLOAD PUSH32 0x8C379A000000000000000000000000000000000000000000000000000000000 DUP2 MSTORE PUSH1 0x4 ADD PUSH2 0x931 SWAP1 PUSH2 0x4458 JUMP JUMPDEST PUSH1 0x40 MLOAD DUP1 SWAP2 SUB SWAP1 REVERT JUMPDEST DUP5 PUSH1 0xE DUP2 SWAP1 SSTORE POP DUP4 PUSH1 0xF DUP2 SWAP1 SSTORE POP DUP3 PUSH1 0x10 DUP2 SWAP1 SSTORE POP DUP2 PUSH1 0x11 DUP2 SWAP1 SSTORE POP DUP1 PUSH1 0x12 DUP2 SWAP1 SSTORE POP POP POP POP POP POP JUMP JUMPDEST PUSH1 0x60 PUSH1 0x3 DUP1 SLOAD PUSH2 0x973 SWAP1 PUSH2 0x44A3 JUMP JUMPDEST DUP1 PUSH1 0x1F ADD PUSH1 0x20 DUP1 SWAP2 DIV MUL PUSH1 0x20 ADD PUSH1 0x40 MLOAD SWAP1 DUP2 ADD PUSH1 0x40 MSTORE DUP1 SWAP3 SWAP2 SWAP1 DUP2 DUP2 MSTORE PUSH1 0x20 ADD DUP3 DUP1 SLOAD PUSH2 0x99F SWAP1 PUSH2 0x44A3 JUMP JUMPDEST DUP1 ISZERO PUSH2 0x9EA JUMPI DUP1 PUSH1 0x1F LT PUSH2 0x9C1 JUMPI PUSH2 0x100 DUP1 DUP4 SLOAD DIV MUL DUP4 MSTORE SWAP2 PUSH1 0x20 ADD SWAP2 PUSH2 0x9EA JUMP JUMPDEST DUP3 ADD SWAP2 SWAP1 PUSH0 MSTORE PUSH1 0x20 PUSH0 KECCAK256 SWAP1 JUMPDEST DUP2 SLOAD DUP2 MSTORE SWAP1 PUSH1 0x1 ADD SWAP1 PUSH1 0x20 ADD DUP1 DUP4 GT PUSH2 0x9CD JUMPI DUP3 SWAP1 SUB PUSH1 0x1F AND DUP3 ADD SWAP2 JUMPDEST POP POP POP POP POP SWAP1 POP SWAP1 JUMP JUMPDEST PUSH0 PUSH0 PUSH2 0x9FE PUSH2 0x1C49 JUMP JUMPDEST SWAP1 POP PUSH2 0xA0B DUP2 DUP6 DUP6 PUSH2 0x1C50 JUMP JUMPDEST PUSH1 0x1 SWAP2 POP POP SWAP3 SWAP2 POP POP JUMP JUMPDEST PUSH0 PUSH1 0x2 SLOAD SWAP1 POP SWAP1 JUMP JUMPDEST PUSH0 PUSH0 PUSH2 0xA29 PUSH2 0x1C49 JUMP JUMPDEST SWAP1 POP PUSH2 0xA36 DUP6 DUP3 DUP6 PUSH2 0x1E13 JUMP JUMPDEST PUSH2 0xA41 DUP6 DUP6 DUP6 PUSH2 0x1E9E JUMP JUMPDEST PUSH1 0x1 SWAP2 POP POP SWAP4 SWAP3 POP POP POP JUMP JUMPDEST PUSH0 PUSH1 0x12 SWAP1 POP SWAP1 JUMP JUMPDEST PUSH11 0x52B7D2DCC80CD2E4000000 DUP2 JUMP JUMPDEST PUSH0 PUSH2 0xA6D PUSH2 0x210A JUMP JUMPDEST SWAP1 POP SWAP1 JUMP JUMPDEST PUSH0 PUSH0 PUSH2 0xA7C PUSH2 0x1C49 JUMP JUMPDEST SWAP1 POP PUSH2 0xA9D DUP2 DUP6 DUP6 PUSH2 0xA8E DUP6 DUP10 PUSH2 0x1659 JUMP JUMPDEST PUSH2 0xA98 SWAP2 SWAP1 PUSH2 0x43DB JUMP JUMPDEST PUSH2 0x1C50 JUMP JUMPDEST PUSH1 0x1 SWAP2 POP POP SWAP3 SWAP2 POP POP JUMP JUMPDEST PUSH0 PUSH2 0xAB1 PUSH2 0x11D7 JUMP JUMPDEST PUSH6 0xFFFFFFFFFFFF AND DUP3 LT PUSH2 0xAFA JUMPI PUSH1 0x40 MLOAD PUSH32 0x8C379A000000000000000000000000000000000000000000000000000000000 DUP2 MSTORE PUSH1 0x4 ADD PUSH2 0xAF1 SWAP1 PUSH2 0x451D JUMP JUMPDEST PUSH1 0x40 MLOAD DUP1 SWAP2 SUB SWAP1 REVERT JUMPDEST PUSH2 0xB40 PUSH1 0xA PUSH0 DUP6 PUSH20 0xFFFFFFFFFFFFFFFFFFFFFFFFFFFFFFFFFFFFFFFF AND PUSH20 0xFFFFFFFFFFFFFFFFFFFFFFFFFFFFFFFFFFFFFFFF AND DUP2 MSTORE PUSH1 0x20 ADD SWAP1 DUP2 MSTORE PUSH1 0x20 ADD PUSH0 KECCAK256 DUP4 PUSH2 0x21C0 JUMP JUMPDEST SWAP1 POP SWAP3 SWAP2 POP POP JUMP JUMPDEST PUSH1 0xE SLOAD DUP2 JUMP JUMPDEST PUSH2 0xB56 PUSH2 0x2300 JUMP JUMPDEST PUSH2 0xB5E PUSH2 0x237E JUMP JUMPDEST JUMP JUMPDEST PUSH11 0x52B7D2DCC80CD2E4000000 DUP2 PUSH2 0xB75 PUSH2 0xA16 JUMP JUMPDEST PUSH2 0xB7F SWAP2 SWAP1 PUSH2 0x453B JUMP JUMPDEST LT ISZERO PUSH2 0xBC0 JUMPI PUSH1 0x40 MLOAD PUSH32 0x8C379A000000000000000000000000000000000000000000000000000000000 DUP2 MSTORE PUSH1 0x4 ADD PUSH2 0xBB7 SWAP1 PUSH2 0x45DE JUMP JUMPDEST PUSH1 0x40 MLOAD DUP1 SWAP2 SUB SWAP1 REVERT JUMPDEST PUSH2 0xBCA CALLER DUP3 PUSH2 0x23E0 JUMP JUMPDEST POP JUMP JUMPDEST PUSH1 0x60 NUMBER PUSH2 0xBD8 PUSH2 0x11D7 JUMP JUMPDEST PUSH6 0xFFFFFFFFFFFF AND EQ PUSH2 0xC20 JUMPI PUSH1 0x40 MLOAD PUSH32 0x8C379A000000000000000000000000000000000000000000000000000000000 DUP2 MSTORE PUSH1 0x4 ADD PUSH2 0xC17 SWAP1 PUSH2 0x4646 JUMP JUMPDEST PUSH1 0x40 MLOAD DUP1 SWAP2 SUB SWAP1 REVERT JUMPDEST PUSH1 0x40 MLOAD DUP1 PUSH1 0x40 ADD PUSH1 0x40 MSTORE DUP1 PUSH1 0x1D DUP2 MSTORE PUSH1 0x20 ADD PUSH32 0x6D6F64653D626C6F636B6E756D6265722666726F6D3D64656661756C74000000 DUP2 MSTORE POP SWAP1 POP SWAP1 JUMP JUMPDEST PUSH0 PUSH1 0x9 PUSH0 DUP4 PUSH20 0xFFFFFFFFFFFFFFFFFFFFFFFFFFFFFFFFFFFFFFFF AND PUSH20 0xFFFFFFFFFFFFFFFFFFFFFFFFFFFFFFFFFFFFFFFF AND DUP2 MSTORE PUSH1 0x20 ADD SWAP1 DUP2 MSTORE PUSH1 0x20 ADD PUSH0 KECCAK256 PUSH0 SWAP1 SLOAD SWAP1 PUSH2 0x100 EXP SWAP1 DIV PUSH20 0xFFFFFFFFFFFFFFFFFFFFFFFFFFFFFFFFFFFFFFFF AND SWAP1 POP SWAP2 SWAP1 POP JUMP JUMPDEST PUSH2 0xCD1 PUSH2 0xCCB PUSH2 0x1C49 JUMP JUMPDEST DUP3 PUSH2 0x23EE JUMP JUMPDEST POP JUMP JUMPDEST PUSH0 PUSH1 0xC PUSH1 0x14 SWAP1 SLOAD SWAP1 PUSH2 0x100 EXP SWAP1 DIV PUSH1 0xFF AND SWAP1 POP SWAP1 JUMP JUMPDEST PUSH2 0xCF2 PUSH2 0x1126 JUMP JUMPDEST PUSH20 0xFFFFFFFFFFFFFFFFFFFFFFFFFFFFFFFFFFFFFFFF AND CALLER PUSH20 0xFFFFFFFFFFFFFFFFFFFFFFFFFFFFFFFFFFFFFFFF AND EQ PUSH2 0xD5F JUMPI PUSH1 0x40 MLOAD PUSH32 0x8C379A000000000000000000000000000000000000000000000000000000000 DUP2 MSTORE PUSH1 0x4 ADD PUSH2 0xD56 SWAP1 PUSH2 0x4390 JUMP JUMPDEST PUSH1 0x40 MLOAD DUP1 SWAP2 SUB SWAP1 REVERT JUMPDEST DUP1 PUSH2 0xD69 CALLER PUSH2 0xF4D JUMP JUMPDEST LT ISZERO PUSH2 0xDAA JUMPI PUSH1 0x40 MLOAD PUSH32 0x8C379A000000000000000000000000000000000000000000000000000000000 DUP2 MSTORE PUSH1 0x4 ADD PUSH2 0xDA1 SWAP1 PUSH2 0x46AE JUMP JUMPDEST PUSH1 0x40 MLOAD DUP1 SWAP2 SUB SWAP1 REVERT JUMPDEST PUSH0 PUSH2 0x2710 PUSH1 0x10 SLOAD DUP4 PUSH2 0xDBC SWAP2 SWAP1 PUSH2 0x46CC JUMP JUMPDEST PUSH2 0xDC6 SWAP2 SWAP1 PUSH2 0x473A JUMP JUMPDEST SWAP1 POP PUSH0 PUSH2 0x2710 PUSH1 0x12 SLOAD DUP5 PUSH2 0xDDA SWAP2 SWAP1 PUSH2 0x46CC JUMP JUMPDEST PUSH2 0xDE4 SWAP2 SWAP1 PUSH2 0x473A JUMP JUMPDEST SWAP1 POP PUSH0 PUSH2 0x2710 PUSH1 0xF SLOAD DUP6 PUSH2 0xDF8 SWAP2 SWAP1 PUSH2 0x46CC JUMP JUMPDEST PUSH2 0xE02 SWAP2 SWAP1 PUSH2 0x473A JUMP JUMPDEST SWAP1 POP PUSH0 DUP4 GT ISZERO PUSH2 0xE59 JUMPI PUSH2 0xE58 PUSH1 0x13 PUSH0 SWAP1 SLOAD SWAP1 PUSH2 0x100 EXP SWAP1 DIV PUSH20 0xFFFFFFFFFFFFFFFFFFFFFFFFFFFFFFFFFFFFFFFF AND DUP5 ADDRESS PUSH20 0xFFFFFFFFFFFFFFFFFFFFFFFFFFFFFFFFFFFFFFFF AND PUSH2 0x2503 SWAP1 SWAP3 SWAP2 SWAP1 PUSH4 0xFFFFFFFF AND JUMP JUMPDEST JUMPDEST PUSH0 DUP3 GT ISZERO PUSH2 0xEAE JUMPI PUSH2 0xEAD PUSH1 0x14 PUSH0 SWAP1 SLOAD SWAP1 PUSH2 0x100 EXP SWAP1 DIV PUSH20 0xFFFFFFFFFFFFFFFFFFFFFFFFFFFFFFFFFFFFFFFF AND DUP4 ADDRESS PUSH20 0xFFFFFFFFFFFFFFFFFFFFFFFFFFFFFFFFFFFFFFFF AND PUSH2 0x2503 SWAP1 SWAP3 SWAP2 SWAP1 PUSH4 0xFFFFFFFF AND JUMP JUMPDEST JUMPDEST PUSH0 DUP2 GT DUP1 ISZERO PUSH2 0xEDA JUMPI POP PUSH11 0x52B7D2DCC80CD2E4000000 DUP2 PUSH2 0xECD PUSH2 0xA16 JUMP JUMPDEST PUSH2 0xED7 SWAP2 SWAP1 PUSH2 0x453B JUMP JUMPDEST LT ISZERO JUMPDEST ISZERO PUSH2 0xEEA JUMPI PUSH2 0xEE9 CALLER DUP3 PUSH2 0x23E0 JUMP JUMPDEST JUMPDEST POP POP POP POP JUMP JUMPDEST PUSH1 0x10 SLOAD DUP2 JUMP JUMPDEST PUSH1 0x12 SLOAD DUP2 JUMP JUMPDEST PUSH0 PUSH2 0xF46 PUSH1 0xA PUSH0 DUP5 PUSH20 0xFFFFFFFFFFFFFFFFFFFFFFFFFFFFFFFFFFFFFFFF AND PUSH20 0xFFFFFFFFFFFFFFFFFFFFFFFFFFFFFFFFFFFFFFFF AND DUP2 MSTORE PUSH1 0x20 ADD SWAP1 DUP2 MSTORE PUSH1 0x20 ADD PUSH0 KECCAK256 DUP1 SLOAD SWAP1 POP PUSH2 0x2589 JUMP JUMPDEST SWAP1 POP SWAP2 SWAP1 POP JUMP JUMPDEST PUSH0 PUSH0 PUSH0 DUP4 PUSH20 0xFFFFFFFFFFFFFFFFFFFFFFFFFFFFFFFFFFFFFFFF AND PUSH20 0xFFFFFFFFFFFFFFFFFFFFFFFFFFFFFFFFFFFFFFFF AND DUP2 MSTORE PUSH1 0x20 ADD SWAP1 DUP2 MSTORE PUSH1 0x20 ADD PUSH0 KECCAK256 SLOAD SWAP1 POP SWAP2 SWAP1 POP JUMP JUMPDEST PUSH2 0xF9A PUSH2 0x2300 JUMP JUMPDEST PUSH2 0xFA3 PUSH0 PUSH2 0x25DB JUMP JUMPDEST JUMP JUMPDEST PUSH1 0x14 PUSH0 SWAP1 SLOAD SWAP1 PUSH2 0x100 EXP SWAP1 DIV PUSH20 0xFFFFFFFFFFFFFFFFFFFFFFFFFFFFFFFFFFFFFFFF AND DUP2 JUMP JUMPDEST PUSH0 PUSH2 0x1010 PUSH1 0x7 PUSH0 DUP5 PUSH20 0xFFFFFFFFFFFFFFFFFFFFFFFFFFFFFFFFFFFFFFFF AND PUSH20 0xFFFFFFFFFFFFFFFFFFFFFFFFFFFFFFFFFFFFFFFF AND DUP2 MSTORE PUSH1 0x20 ADD SWAP1 DUP2 MSTORE PUSH1 0x20 ADD PUSH0 KECCAK256 PUSH2 0x269E JUMP JUMPDEST SWAP1 POP SWAP2 SWAP1 POP JUMP JUMPDEST PUSH2 0x101F PUSH2 0x2300 JUMP JUMPDEST PUSH2 0x1027 PUSH2 0x26AA JUMP JUMPDEST JUMP JUMPDEST PUSH0 PUSH1 0x60 DUP1 PUSH0 PUSH0 PUSH0 PUSH1 0x60 PUSH2 0x1066 PUSH1 0x5 PUSH32 0x0 PUSH2 0x270D SWAP1 SWAP2 SWAP1 PUSH4 0xFFFFFFFF AND JUMP JUMPDEST PUSH2 0x109A PUSH1 0x6 PUSH32 0x0 PUSH2 0x270D SWAP1 SWAP2 SWAP1 PUSH4 0xFFFFFFFF AND JUMP JUMPDEST CHAINID ADDRESS PUSH0 PUSH0 SHL PUSH0 PUSH8 0xFFFFFFFFFFFFFFFF DUP2 GT ISZERO PUSH2 0x10B9 JUMPI PUSH2 0x10B8 PUSH2 0x476A JUMP JUMPDEST JUMPDEST PUSH1 0x40 MLOAD SWAP1 DUP1 DUP3 MSTORE DUP1 PUSH1 0x20 MUL PUSH1 0x20 ADD DUP3 ADD PUSH1 0x40 MSTORE DUP1 ISZERO PUSH2 0x10E7 JUMPI DUP2 PUSH1 0x20 ADD PUSH1 0x20 DUP3 MUL DUP1 CALLDATASIZE DUP4 CALLDATACOPY DUP1 DUP3 ADD SWAP2 POP POP SWAP1 POP JUMPDEST POP PUSH32 0xF00000000000000000000000000000000000000000000000000000000000000 SWAP6 SWAP5 SWAP4 SWAP3 SWAP2 SWAP1 SWAP7 POP SWAP7 POP SWAP7 POP SWAP7 POP SWAP7 POP SWAP7 POP SWAP7 POP SWAP1 SWAP2 SWAP3 SWAP4 SWAP5 SWAP6 SWAP7 JUMP JUMPDEST PUSH0 PUSH1 0xC PUSH0 SWAP1 SLOAD SWAP1 PUSH2 0x100 EXP SWAP1 DIV PUSH20 0xFFFFFFFFFFFFFFFFFFFFFFFFFFFFFFFFFFFFFFFF AND SWAP1 POP SWAP1 JUMP JUMPDEST PUSH0 PUSH2 0x1157 PUSH2 0x11D7 JUMP JUMPDEST PUSH6 0xFFFFFFFFFFFF AND DUP3 LT PUSH2 0x11A0 JUMPI PUSH1 0x40 MLOAD PUSH32 0x8C379A000000000000000000000000000000000000000000000000000000000 DUP2 MSTORE PUSH1 0x4 ADD PUSH2 0x1197 SWAP1 PUSH2 0x451D JUMP JUMPDEST PUSH1 0x40 MLOAD DUP1 SWAP2 SUB SWAP1 REVERT JUMPDEST PUSH2 0x11AB PUSH1 0xB DUP4 PUSH2 0x21C0 JUMP JUMPDEST SWAP1 POP SWAP2 SWAP1 POP JUMP JUMPDEST PUSH1 0x13 PUSH0 SWAP1 SLOAD SWAP1 PUSH2 0x100 EXP SWAP1 DIV PUSH20 0xFFFFFFFFFFFFFFFFFFFFFFFFFFFFFFFFFFFFFFFF AND DUP2 JUMP JUMPDEST PUSH0 PUSH2 0x11E1 NUMBER PUSH2 0x27BA JUMP JUMPDEST SWAP1 POP SWAP1 JUMP JUMPDEST PUSH1 0x60 PUSH1 0x4 DUP1 SLOAD PUSH2 0x11F5 SWAP1 PUSH2 0x44A3 JUMP JUMPDEST DUP1 PUSH1 0x1F ADD PUSH1 0x20 DUP1 SWAP2 DIV MUL PUSH1 0x20 ADD PUSH1 0x40 MLOAD SWAP1 DUP2 ADD PUSH1 0x40 MSTORE DUP1 SWAP3 SWAP2 SWAP1 DUP2 DUP2 MSTORE PUSH1 0x20 ADD DUP3 DUP1 SLOAD PUSH2 0x1221 SWAP1 PUSH2 0x44A3 JUMP JUMPDEST DUP1 ISZERO PUSH2 0x126C JUMPI DUP1 PUSH1 0x1F LT PUSH2 0x1243 JUMPI PUSH2 0x100 DUP1 DUP4 SLOAD DIV MUL DUP4 MSTORE SWAP2 PUSH1 0x20 ADD SWAP2 PUSH2 0x126C JUMP JUMPDEST DUP3 ADD SWAP2 SWAP1 PUSH0 MSTORE PUSH1 0x20 PUSH0 KECCAK256 SWAP1 JUMPDEST DUP2 SLOAD DUP2 MSTORE SWAP1 PUSH1 0x1 ADD SWAP1 PUSH1 0x20 ADD DUP1 DUP4 GT PUSH2 0x124F JUMPI DUP3 SWAP1 SUB PUSH1 0x1F AND DUP3 ADD SWAP2 JUMPDEST POP POP POP POP POP SWAP1 POP SWAP1 JUMP JUMPDEST PUSH1 0x11 SLOAD DUP2 JUMP JUMPDEST PUSH0 PUSH0 PUSH1 0xA PUSH0 DUP5 PUSH20 0xFFFFFFFFFFFFFFFFFFFFFFFFFFFFFFFFFFFFFFFF AND PUSH20 0xFFFFFFFFFFFFFFFFFFFFFFFFFFFFFFFFFFFFFFFF AND DUP2 MSTORE PUSH1 0x20 ADD SWAP1 DUP2 MSTORE PUSH1 0x20 ADD PUSH0 KECCAK256 DUP1 SLOAD SWAP1 POP SWAP1 POP PUSH0 DUP2 EQ PUSH2 0x1352 JUMPI PUSH1 0xA PUSH0 DUP5 PUSH20 0xFFFFFFFFFFFFFFFFFFFFFFFFFFFFFFFFFFFFFFFF AND PUSH20 0xFFFFFFFFFFFFFFFFFFFFFFFFFFFFFFFFFFFFFFFF AND DUP2 MSTORE PUSH1 0x20 ADD SWAP1 DUP2 MSTORE PUSH1 0x20 ADD PUSH0 KECCAK256 PUSH1 0x1 DUP3 SUB DUP2 SLOAD DUP2 LT PUSH2 0x131A JUMPI PUSH2 0x1319 PUSH2 0x4797 JUMP JUMPDEST JUMPDEST SWAP1 PUSH0 MSTORE PUSH1 0x20 PUSH0 KECCAK256 ADD PUSH0 ADD PUSH1 0x4 SWAP1 SLOAD SWAP1 PUSH2 0x100 EXP SWAP1 DIV PUSH28 0xFFFFFFFFFFFFFFFFFFFFFFFFFFFFFFFFFFFFFFFFFFFFFFFFFFFFFFFF AND PUSH2 0x1354 JUMP JUMPDEST PUSH0 JUMPDEST PUSH28 0xFFFFFFFFFFFFFFFFFFFFFFFFFFFFFFFFFFFFFFFFFFFFFFFFFFFFFFFF AND SWAP2 POP POP SWAP2 SWAP1 POP JUMP JUMPDEST PUSH0 PUSH0 PUSH2 0x1384 PUSH2 0x1C49 JUMP JUMPDEST SWAP1 POP PUSH0 PUSH2 0x1391 DUP3 DUP7 PUSH2 0x1659 JUMP JUMPDEST SWAP1 POP DUP4 DUP2 LT ISZERO PUSH2 0x13D6 JUMPI PUSH1 0x40 MLOAD PUSH32 0x8C379A000000000000000000000000000000000000000000000000000000000 DUP2 MSTORE PUSH1 0x4 ADD PUSH2 0x13CD SWAP1 PUSH2 0x4834 JUMP JUMPDEST PUSH1 0x40 MLOAD DUP1 SWAP2 SUB SWAP1 REVERT JUMPDEST PUSH2 0x13E3 DUP3 DUP7 DUP7 DUP5 SUB PUSH2 0x1C50 JUMP JUMPDEST PUSH1 0x1 SWAP3 POP POP POP SWAP3 SWAP2 POP POP JUMP JUMPDEST PUSH0 PUSH0 PUSH2 0x13F9 PUSH2 0x1C49 JUMP JUMPDEST SWAP1 POP PUSH2 0x1406 DUP2 DUP6 DUP6 PUSH2 0x1E9E JUMP JUMPDEST PUSH1 0x1 SWAP2 POP POP SWAP3 SWAP2 POP POP JUMP JUMPDEST PUSH2 0x2710 DUP2 JUMP JUMPDEST DUP4 TIMESTAMP GT ISZERO PUSH2 0x145A JUMPI PUSH1 0x40 MLOAD PUSH32 0x8C379A000000000000000000000000000000000000000000000000000000000 DUP2 MSTORE PUSH1 0x4 ADD PUSH2 0x1451 SWAP1 PUSH2 0x489C JUMP JUMPDEST PUSH1 0x40 MLOAD DUP1 SWAP2 SUB SWAP1 REVERT JUMPDEST PUSH0 PUSH2 0x14BB PUSH2 0x14B3 PUSH32 0xE48329057BFD03D55E49B547132E39CFFD9C1820AD7B9D4C5307691425D15ADF DUP10 DUP10 DUP10 PUSH1 0x40 MLOAD PUSH1 0x20 ADD PUSH2 0x1498 SWAP5 SWAP4 SWAP3 SWAP2 SWAP1 PUSH2 0x48BA JUMP JUMPDEST PUSH1 0x40 MLOAD PUSH1 0x20 DUP2 DUP4 SUB SUB DUP2 MSTORE SWAP1 PUSH1 0x40 MSTORE DUP1 MLOAD SWAP1 PUSH1 0x20 ADD KECCAK256 PUSH2 0x280E JUMP JUMPDEST DUP6 DUP6 DUP6 PUSH2 0x2827 JUMP JUMPDEST SWAP1 POP PUSH2 0x14C6 DUP2 PUSH2 0x2850 JUMP JUMPDEST DUP7 EQ PUSH2 0x1507 JUMPI PUSH1 0x40 MLOAD PUSH32 0x8C379A000000000000000000000000000000000000000000000000000000000 DUP2 MSTORE PUSH1 0x4 ADD PUSH2 0x14FE SWAP1 PUSH2 0x4947 JUMP JUMPDEST PUSH1 0x40 MLOAD DUP1 SWAP2 SUB SWAP1 REVERT JUMPDEST PUSH2 0x1511 DUP2 DUP9 PUSH2 0x23EE JUMP JUMPDEST POP POP POP POP POP POP POP JUMP JUMPDEST DUP4 TIMESTAMP GT ISZERO PUSH2 0x155D JUMPI PUSH1 0x40 MLOAD PUSH32 0x8C379A000000000000000000000000000000000000000000000000000000000 DUP2 MSTORE PUSH1 0x4 ADD PUSH2 0x1554 SWAP1 PUSH2 0x49AF JUMP JUMPDEST PUSH1 0x40 MLOAD DUP1 SWAP2 SUB SWAP1 REVERT JUMPDEST PUSH0 PUSH32 0x6E71EDAE12B1B97F4D1F60370FEF10105FA2FAAE0126114A169C64845D6126C9 DUP9 DUP9 DUP9 PUSH2 0x158B DUP13 PUSH2 0x2850 JUMP JUMPDEST DUP10 PUSH1 0x40 MLOAD PUSH1 0x20 ADD PUSH2 0x15A1 SWAP7 SWAP6 SWAP5 SWAP4 SWAP3 SWAP2 SWAP1 PUSH2 0x49CD JUMP JUMPDEST PUSH1 0x40 MLOAD PUSH1 0x20 DUP2 DUP4 SUB SUB DUP2 MSTORE SWAP1 PUSH1 0x40 MSTORE DUP1 MLOAD SWAP1 PUSH1 0x20 ADD KECCAK256 SWAP1 POP PUSH0 PUSH2 0x15C3 DUP3 PUSH2 0x280E JUMP JUMPDEST SWAP1 POP PUSH0 PUSH2 0x15D2 DUP3 DUP8 DUP8 DUP8 PUSH2 0x2827 JUMP JUMPDEST SWAP1 POP DUP10 PUSH20 0xFFFFFFFFFFFFFFFFFFFFFFFFFFFFFFFFFFFFFFFF AND DUP2 PUSH20 0xFFFFFFFFFFFFFFFFFFFFFFFFFFFFFFFFFFFFFFFF AND EQ PUSH2 0x1642 JUMPI PUSH1 0x40 MLOAD PUSH32 0x8C379A000000000000000000000000000000000000000000000000000000000 DUP2 MSTORE PUSH1 0x4 ADD PUSH2 0x1639 SWAP1 PUSH2 0x4A76 JUMP JUMPDEST PUSH1 0x40 MLOAD DUP1 SWAP2 SUB SWAP1 REVERT JUMPDEST PUSH2 0x164D DUP11 DUP11 DUP11 PUSH2 0x1C50 JUMP JUMPDEST POP POP POP POP POP POP POP POP POP POP JUMP JUMPDEST PUSH0 PUSH1 0x1 PUSH0 DUP5 PUSH20 0xFFFFFFFFFFFFFFFFFFFFFFFFFFFFFFFFFFFFFFFF AND PUSH20 0xFFFFFFFFFFFFFFFFFFFFFFFFFFFFFFFFFFFFFFFF AND DUP2 MSTORE PUSH1 0x20 ADD SWAP1 DUP2 MSTORE PUSH1 0x20 ADD PUSH0 KECCAK256 PUSH0 DUP4 PUSH20 0xFFFFFFFFFFFFFFFFFFFFFFFFFFFFFFFFFFFFFFFF AND PUSH20 0xFFFFFFFFFFFFFFFFFFFFFFFFFFFFFFFFFFFFFFFF AND DUP2 MSTORE PUSH1 0x20 ADD SWAP1 DUP2 MSTORE PUSH1 0x20 ADD PUSH0 KECCAK256 SLOAD SWAP1 POP SWAP3 SWAP2 POP POP JUMP JUMPDEST PUSH2 0x16E3 PUSH2 0x3A94 JUMP JUMPDEST PUSH1 0xA PUSH0 DUP5 PUSH20 0xFFFFFFFFFFFFFFFFFFFFFFFFFFFFFFFFFFFFFFFF AND PUSH20 0xFFFFFFFFFFFFFFFFFFFFFFFFFFFFFFFFFFFFFFFF AND DUP2 MSTORE PUSH1 0x20 ADD SWAP1 DUP2 MSTORE PUSH1 0x20 ADD PUSH0 KECCAK256 DUP3 PUSH4 0xFFFFFFFF AND DUP2 SLOAD DUP2 LT PUSH2 0x1738 JUMPI PUSH2 0x1737 PUSH2 0x4797 JUMP JUMPDEST JUMPDEST SWAP1 PUSH0 MSTORE PUSH1 0x20 PUSH0 KECCAK256 ADD PUSH1 0x40 MLOAD DUP1 PUSH1 0x40 ADD PUSH1 0x40 MSTORE SWAP1 DUP2 PUSH0 DUP3 ADD PUSH0 SWAP1 SLOAD SWAP1 PUSH2 0x100 EXP SWAP1 DIV PUSH4 0xFFFFFFFF AND PUSH4 0xFFFFFFFF AND PUSH4 0xFFFFFFFF AND DUP2 MSTORE PUSH1 0x20 ADD PUSH0 DUP3 ADD PUSH1 0x4 SWAP1 SLOAD SWAP1 PUSH2 0x100 EXP SWAP1 DIV PUSH28 0xFFFFFFFFFFFFFFFFFFFFFFFFFFFFFFFFFFFFFFFFFFFFFFFFFFFFFFFF AND PUSH28 0xFFFFFFFFFFFFFFFFFFFFFFFFFFFFFFFFFFFFFFFFFFFFFFFFFFFFFFFF AND PUSH28 0xFFFFFFFFFFFFFFFFFFFFFFFFFFFFFFFFFFFFFFFFFFFFFFFFFFFFFFFF AND DUP2 MSTORE POP POP SWAP1 POP SWAP3 SWAP2 POP POP JUMP JUMPDEST PUSH2 0x17EC PUSH2 0x2300 JUMP JUMPDEST PUSH0 PUSH20 0xFFFFFFFFFFFFFFFFFFFFFFFFFFFFFFFFFFFFFFFF AND DUP2 PUSH20 0xFFFFFFFFFFFFFFFFFFFFFFFFFFFFFFFFFFFFFFFF AND SUB PUSH2 0x185A JUMPI PUSH1 0x40 MLOAD PUSH32 0x8C379A000000000000000000000000000000000000000000000000000000000 DUP2 MSTORE PUSH1 0x4 ADD PUSH2 0x1851 SWAP1 PUSH2 0x4B04 JUMP JUMPDEST PUSH1 0x40 MLOAD DUP1 SWAP2 SUB SWAP1 REVERT JUMPDEST PUSH2 0x1863 DUP2 PUSH2 0x25DB JUMP JUMPDEST POP JUMP JUMPDEST PUSH1 0xF SLOAD DUP2 JUMP JUMPDEST PUSH2 0x1874 PUSH2 0x1126 JUMP JUMPDEST PUSH20 0xFFFFFFFFFFFFFFFFFFFFFFFFFFFFFFFFFFFFFFFF AND CALLER PUSH20 0xFFFFFFFFFFFFFFFFFFFFFFFFFFFFFFFFFFFFFFFF AND EQ PUSH2 0x18E1 JUMPI PUSH1 0x40 MLOAD PUSH32 0x8C379A000000000000000000000000000000000000000000000000000000000 DUP2 MSTORE PUSH1 0x4 ADD PUSH2 0x18D8 SWAP1 PUSH2 0x4390 JUMP JUMPDEST PUSH1 0x40 MLOAD DUP1 SWAP2 SUB SWAP1 REVERT JUMPDEST PUSH2 0x18E9 PUSH2 0x28AB JUMP JUMPDEST PUSH0 DUP4 GT PUSH2 0x192B JUMPI PUSH1 0x40 MLOAD PUSH32 0x8C379A000000000000000000000000000000000000000000000000000000000 DUP2 MSTORE PUSH1 0x4 ADD PUSH2 0x1922 SWAP1 PUSH2 0x4B6C JUMP JUMPDEST PUSH1 0x40 MLOAD DUP1 SWAP2 SUB SWAP1 REVERT JUMPDEST PUSH0 PUSH20 0xFFFFFFFFFFFFFFFFFFFFFFFFFFFFFFFFFFFFFFFF AND DUP6 PUSH20 0xFFFFFFFFFFFFFFFFFFFFFFFFFFFFFFFFFFFFFFFF AND SUB PUSH2 0x1999 JUMPI PUSH1 0x40 MLOAD PUSH32 0x8C379A000000000000000000000000000000000000000000000000000000000 DUP2 MSTORE PUSH1 0x4 ADD PUSH2 0x1990 SWAP1 PUSH2 0x4BD4 JUMP JUMPDEST PUSH1 0x40 MLOAD DUP1 SWAP2 SUB SWAP1 REVERT JUMPDEST PUSH0 PUSH20 0xFFFFFFFFFFFFFFFFFFFFFFFFFFFFFFFFFFFFFFFF AND DUP5 PUSH20 0xFFFFFFFFFFFFFFFFFFFFFFFFFFFFFFFFFFFFFFFF AND SUB PUSH2 0x1A07 JUMPI PUSH1 0x40 MLOAD PUSH32 0x8C379A000000000000000000000000000000000000000000000000000000000 DUP2 MSTORE PUSH1 0x4 ADD PUSH2 0x19FE SWAP1 PUSH2 0x4C3C JUMP JUMPDEST PUSH1 0x40 MLOAD DUP1 SWAP2 SUB SWAP1 REVERT JUMPDEST PUSH0 PUSH20 0xFFFFFFFFFFFFFFFFFFFFFFFFFFFFFFFFFFFFFFFF AND DUP2 PUSH20 0xFFFFFFFFFFFFFFFFFFFFFFFFFFFFFFFFFFFFFFFF AND SUB PUSH2 0x1A75 JUMPI PUSH1 0x40 MLOAD PUSH32 0x8C379A000000000000000000000000000000000000000000000000000000000 DUP2 MSTORE PUSH1 0x4 ADD PUSH2 0x1A6C SWAP1 PUSH2 0x4CA4 JUMP JUMPDEST PUSH1 0x40 MLOAD DUP1 SWAP2 SUB SWAP1 REVERT JUMPDEST PUSH2 0x1AA0 DUP6 DUP5 ADDRESS PUSH20 0xFFFFFFFFFFFFFFFFFFFFFFFFFFFFFFFFFFFFFFFF AND PUSH2 0x28FA SWAP1 SWAP3 SWAP2 SWAP1 PUSH4 0xFFFFFFFF AND JUMP JUMPDEST PUSH0 PUSH1 0x2 PUSH8 0xFFFFFFFFFFFFFFFF DUP2 GT ISZERO PUSH2 0x1ABC JUMPI PUSH2 0x1ABB PUSH2 0x476A JUMP JUMPDEST JUMPDEST PUSH1 0x40 MLOAD SWAP1 DUP1 DUP3 MSTORE DUP1 PUSH1 0x20 MUL PUSH1 0x20 ADD DUP3 ADD PUSH1 0x40 MSTORE DUP1 ISZERO PUSH2 0x1AEA JUMPI DUP2 PUSH1 0x20 ADD PUSH1 0x20 DUP3 MUL DUP1 CALLDATASIZE DUP4 CALLDATACOPY DUP1 DUP3 ADD SWAP2 POP POP SWAP1 POP JUMPDEST POP SWAP1 POP ADDRESS DUP2 PUSH0 DUP2 MLOAD DUP2 LT PUSH2 0x1B01 JUMPI PUSH2 0x1B00 PUSH2 0x4797 JUMP JUMPDEST JUMPDEST PUSH1 0x20 MUL PUSH1 0x20 ADD ADD SWAP1 PUSH20 0xFFFFFFFFFFFFFFFFFFFFFFFFFFFFFFFFFFFFFFFF AND SWAP1 DUP2 PUSH20 0xFFFFFFFFFFFFFFFFFFFFFFFFFFFFFFFFFFFFFFFF AND DUP2 MSTORE POP POP DUP2 DUP2 PUSH1 0x1 DUP2 MLOAD DUP2 LT PUSH2 0x1B50 JUMPI PUSH2 0x1B4F PUSH2 0x4797 JUMP JUMPDEST JUMPDEST PUSH1 0x20 MUL PUSH1 0x20 ADD ADD SWAP1 PUSH20 0xFFFFFFFFFFFFFFFFFFFFFFFFFFFFFFFFFFFFFFFF AND SWAP1 DUP2 PUSH20 0xFFFFFFFFFFFFFFFFFFFFFFFFFFFFFFFFFFFFFFFF AND DUP2 MSTORE POP POP DUP6 PUSH20 0xFFFFFFFFFFFFFFFFFFFFFFFFFFFFFFFFFFFFFFFF AND PUSH4 0x38ED1739 DUP6 DUP6 DUP5 DUP10 TIMESTAMP PUSH1 0x40 MLOAD DUP7 PUSH4 0xFFFFFFFF AND PUSH1 0xE0 SHL DUP2 MSTORE PUSH1 0x4 ADD PUSH2 0x1BCB SWAP6 SWAP5 SWAP4 SWAP3 SWAP2 SWAP1 PUSH2 0x4D79 JUMP JUMPDEST PUSH0 PUSH1 0x40 MLOAD DUP1 DUP4 SUB DUP2 PUSH0 DUP8 GAS CALL ISZERO DUP1 ISZERO PUSH2 0x1BE6 JUMPI RETURNDATASIZE PUSH0 PUSH0 RETURNDATACOPY RETURNDATASIZE PUSH0 REVERT JUMPDEST POP POP POP POP PUSH1 0x40 MLOAD RETURNDATASIZE PUSH0 DUP3 RETURNDATACOPY RETURNDATASIZE PUSH1 0x1F NOT PUSH1 0x1F DUP3 ADD AND DUP3 ADD DUP1 PUSH1 0x40 MSTORE POP DUP2 ADD SWAP1 PUSH2 0x1C0E SWAP2 SWAP1 PUSH2 0x4EF8 JUMP JUMPDEST POP POP PUSH2 0x1C18 PUSH2 0x2A09 JUMP JUMPDEST POP POP POP POP POP JUMP JUMPDEST PUSH0 DUP2 DUP4 PUSH2 0x1C2C SWAP2 SWAP1 PUSH2 0x43DB JUMP JUMPDEST SWAP1 POP SWAP3 SWAP2 POP POP JUMP JUMPDEST PUSH0 DUP2 DUP4 PUSH2 0x1C41 SWAP2 SWAP1 PUSH2 0x453B JUMP JUMPDEST SWAP1 POP SWAP3 SWAP2 POP POP JUMP JUMPDEST PUSH0 CALLER SWAP1 POP SWAP1 JUMP JUMPDEST PUSH0 PUSH20 0xFFFFFFFFFFFFFFFFFFFFFFFFFFFFFFFFFFFFFFFF AND DUP4 PUSH20 0xFFFFFFFFFFFFFFFFFFFFFFFFFFFFFFFFFFFFFFFF AND SUB PUSH2 0x1CBE JUMPI PUSH1 0x40 MLOAD PUSH32 0x8C379A000000000000000000000000000000000000000000000000000000000 DUP2 MSTORE PUSH1 0x4 ADD PUSH2 0x1CB5 SWAP1 PUSH2 0x4FAF JUMP JUMPDEST PUSH1 0x40 MLOAD DUP1 SWAP2 SUB SWAP1 REVERT JUMPDEST PUSH0 PUSH20 0xFFFFFFFFFFFFFFFFFFFFFFFFFFFFFFFFFFFFFFFF AND DUP3 PUSH20 0xFFFFFFFFFFFFFFFFFFFFFFFFFFFFFFFFFFFFFFFF AND SUB PUSH2 0x1D2C JUMPI PUSH1 0x40 MLOAD PUSH32 0x8C379A000000000000000000000000000000000000000000000000000000000 DUP2 MSTORE PUSH1 0x4 ADD PUSH2 0x1D23 SWAP1 PUSH2 0x503D JUMP JUMPDEST PUSH1 0x40 MLOAD DUP1 SWAP2 SUB SWAP1 REVERT JUMPDEST DUP1 PUSH1 0x1 PUSH0 DUP6 PUSH20 0xFFFFFFFFFFFFFFFFFFFFFFFFFFFFFFFFFFFFFFFF AND PUSH20 0xFFFFFFFFFFFFFFFFFFFFFFFFFFFFFFFFFFFFFFFF AND DUP2 MSTORE PUSH1 0x20 ADD SWAP1 DUP2 MSTORE PUSH1 0x20 ADD PUSH0 KECCAK256 PUSH0 DUP5 PUSH20 0xFFFFFFFFFFFFFFFFFFFFFFFFFFFFFFFFFFFFFFFF AND PUSH20 0xFFFFFFFFFFFFFFFFFFFFFFFFFFFFFFFFFFFFFFFF AND DUP2 MSTORE PUSH1 0x20 ADD SWAP1 DUP2 MSTORE PUSH1 0x20 ADD PUSH0 KECCAK256 DUP2 SWAP1 SSTORE POP DUP2 PUSH20 0xFFFFFFFFFFFFFFFFFFFFFFFFFFFFFFFFFFFFFFFF AND DUP4 PUSH20 0xFFFFFFFFFFFFFFFFFFFFFFFFFFFFFFFFFFFFFFFF AND PUSH32 0x8C5BE1E5EBEC7D5BD14F71427D1E84F3DD0314C0F7B2291E5B200AC8C7C3B925 DUP4 PUSH1 0x40 MLOAD PUSH2 0x1E06 SWAP2 SWAP1 PUSH2 0x3CF5 JUMP JUMPDEST PUSH1 0x40 MLOAD DUP1 SWAP2 SUB SWAP1 LOG3 POP POP POP JUMP JUMPDEST PUSH0 PUSH2 0x1E1E DUP5 DUP5 PUSH2 0x1659 JUMP JUMPDEST SWAP1 POP PUSH32 0xFFFFFFFFFFFFFFFFFFFFFFFFFFFFFFFFFFFFFFFFFFFFFFFFFFFFFFFFFFFFFFFF DUP2 EQ PUSH2 0x1E98 JUMPI DUP2 DUP2 LT ISZERO PUSH2 0x1E8A JUMPI PUSH1 0x40 MLOAD PUSH32 0x8C379A000000000000000000000000000000000000000000000000000000000 DUP2 MSTORE PUSH1 0x4 ADD PUSH2 0x1E81 SWAP1 PUSH2 0x50A5 JUMP JUMPDEST PUSH1 0x40 MLOAD DUP1 SWAP2 SUB SWAP1 REVERT JUMPDEST PUSH2 0x1E97 DUP5 DUP5 DUP5 DUP5 SUB PUSH2 0x1C50 JUMP JUMPDEST JUMPDEST POP POP POP POP JUMP JUMPDEST PUSH0 PUSH20 0xFFFFFFFFFFFFFFFFFFFFFFFFFFFFFFFFFFFFFFFF AND DUP4 PUSH20 0xFFFFFFFFFFFFFFFFFFFFFFFFFFFFFFFFFFFFFFFF AND SUB PUSH2 0x1F0C JUMPI PUSH1 0x40 MLOAD PUSH32 0x8C379A000000000000000000000000000000000000000000000000000000000 DUP2 MSTORE PUSH1 0x4 ADD PUSH2 0x1F03 SWAP1 PUSH2 0x5133 JUMP JUMPDEST PUSH1 0x40 MLOAD DUP1 SWAP2 SUB SWAP1 REVERT JUMPDEST PUSH0 PUSH20 0xFFFFFFFFFFFFFFFFFFFFFFFFFFFFFFFFFFFFFFFF AND DUP3 PUSH20 0xFFFFFFFFFFFFFFFFFFFFFFFFFFFFFFFFFFFFFFFF AND SUB PUSH2 0x1F7A JUMPI PUSH1 0x40 MLOAD PUSH32 0x8C379A000000000000000000000000000000000000000000000000000000000 DUP2 MSTORE PUSH1 0x4 ADD PUSH2 0x1F71 SWAP1 PUSH2 0x51C1 JUMP JUMPDEST PUSH1 0x40 MLOAD DUP1 SWAP2 SUB SWAP1 REVERT JUMPDEST PUSH2 0x1F85 DUP4 DUP4 DUP4 PUSH2 0x2A13 JUMP JUMPDEST PUSH0 PUSH0 PUSH0 DUP6 PUSH20 0xFFFFFFFFFFFFFFFFFFFFFFFFFFFFFFFFFFFFFFFF AND PUSH20 0xFFFFFFFFFFFFFFFFFFFFFFFFFFFFFFFFFFFFFFFF AND DUP2 MSTORE PUSH1 0x20 ADD SWAP1 DUP2 MSTORE PUSH1 0x20 ADD PUSH0 KECCAK256 SLOAD SWAP1 POP DUP2 DUP2 LT ISZERO PUSH2 0x2008 JUMPI PUSH1 0x40 MLOAD PUSH32 0x8C379A000000000000000000000000000000000000000000000000000000000 DUP2 MSTORE PUSH1 0x4 ADD PUSH2 0x1FFF SWAP1 PUSH2 0x524F JUMP JUMPDEST PUSH1 0x40 MLOAD DUP1 SWAP2 SUB SWAP1 REVERT JUMPDEST DUP2 DUP2 SUB PUSH0 PUSH0 DUP7 PUSH20 0xFFFFFFFFFFFFFFFFFFFFFFFFFFFFFFFFFFFFFFFF AND PUSH20 0xFFFFFFFFFFFFFFFFFFFFFFFFFFFFFFFFFFFFFFFF AND DUP2 MSTORE PUSH1 0x20 ADD SWAP1 DUP2 MSTORE PUSH1 0x20 ADD PUSH0 KECCAK256 DUP2 SWAP1 SSTORE POP DUP2 PUSH0 PUSH0 DUP6 PUSH20 0xFFFFFFFFFFFFFFFFFFFFFFFFFFFFFFFFFFFFFFFF AND PUSH20 0xFFFFFFFFFFFFFFFFFFFFFFFFFFFFFFFFFFFFFFFF AND DUP2 MSTORE PUSH1 0x20 ADD SWAP1 DUP2 MSTORE PUSH1 0x20 ADD PUSH0 KECCAK256 PUSH0 DUP3 DUP3 SLOAD ADD SWAP3 POP POP DUP2 SWAP1 SSTORE POP DUP3 PUSH20 0xFFFFFFFFFFFFFFFFFFFFFFFFFFFFFFFFFFFFFFFF AND DUP5 PUSH20 0xFFFFFFFFFFFFFFFFFFFFFFFFFFFFFFFFFFFFFFFF AND PUSH32 0xDDF252AD1BE2C89B69C2B068FC378DAA952BA7F163C4A11628F55A4DF523B3EF DUP5 PUSH1 0x40 MLOAD PUSH2 0x20F1 SWAP2 SWAP1 PUSH2 0x3CF5 JUMP JUMPDEST PUSH1 0x40 MLOAD DUP1 SWAP2 SUB SWAP1 LOG3 PUSH2 0x2104 DUP5 DUP5 DUP5 PUSH2 0x2A2B JUMP JUMPDEST POP POP POP POP JUMP JUMPDEST PUSH0 PUSH32 0x0 PUSH20 0xFFFFFFFFFFFFFFFFFFFFFFFFFFFFFFFFFFFFFFFF AND ADDRESS PUSH20 0xFFFFFFFFFFFFFFFFFFFFFFFFFFFFFFFFFFFFFFFF AND EQ DUP1 ISZERO PUSH2 0x2185 JUMPI POP PUSH32 0x0 CHAINID EQ JUMPDEST ISZERO PUSH2 0x21B2 JUMPI PUSH32 0x0 SWAP1 POP PUSH2 0x21BD JUMP JUMPDEST PUSH2 0x21BA PUSH2 0x2A3B JUMP JUMPDEST SWAP1 POP JUMPDEST SWAP1 JUMP JUMPDEST PUSH0 PUSH0 DUP4 DUP1 SLOAD SWAP1 POP SWAP1 POP PUSH0 PUSH0 SWAP1 POP PUSH0 DUP3 SWAP1 POP PUSH1 0x5 DUP4 GT ISZERO PUSH2 0x2234 JUMPI PUSH0 PUSH2 0x21E4 DUP5 PUSH2 0x2AD0 JUMP JUMPDEST DUP5 PUSH2 0x21EF SWAP2 SWAP1 PUSH2 0x453B JUMP JUMPDEST SWAP1 POP DUP6 PUSH2 0x21FC DUP9 DUP4 PUSH2 0x2BC6 JUMP JUMPDEST PUSH0 ADD PUSH0 SWAP1 SLOAD SWAP1 PUSH2 0x100 EXP SWAP1 DIV PUSH4 0xFFFFFFFF AND PUSH4 0xFFFFFFFF AND GT ISZERO PUSH2 0x2222 JUMPI DUP1 SWAP2 POP PUSH2 0x2232 JUMP JUMPDEST PUSH1 0x1 DUP2 PUSH2 0x222F SWAP2 SWAP1 PUSH2 0x43DB JUMP JUMPDEST SWAP3 POP JUMPDEST POP JUMPDEST JUMPDEST DUP1 DUP3 LT ISZERO PUSH2 0x2291 JUMPI PUSH0 PUSH2 0x2248 DUP4 DUP4 PUSH2 0x2BD8 JUMP JUMPDEST SWAP1 POP DUP6 PUSH2 0x2255 DUP9 DUP4 PUSH2 0x2BC6 JUMP JUMPDEST PUSH0 ADD PUSH0 SWAP1 SLOAD SWAP1 PUSH2 0x100 EXP SWAP1 DIV PUSH4 0xFFFFFFFF AND PUSH4 0xFFFFFFFF AND GT ISZERO PUSH2 0x227B JUMPI DUP1 SWAP2 POP PUSH2 0x228B JUMP JUMPDEST PUSH1 0x1 DUP2 PUSH2 0x2288 SWAP2 SWAP1 PUSH2 0x43DB JUMP JUMPDEST SWAP3 POP JUMPDEST POP PUSH2 0x2235 JUMP JUMPDEST PUSH0 DUP2 EQ PUSH2 0x22D5 JUMPI PUSH2 0x22A5 DUP7 PUSH1 0x1 DUP4 SUB PUSH2 0x2BC6 JUMP JUMPDEST PUSH0 ADD PUSH1 0x4 SWAP1 SLOAD SWAP1 PUSH2 0x100 EXP SWAP1 DIV PUSH28 0xFFFFFFFFFFFFFFFFFFFFFFFFFFFFFFFFFFFFFFFFFFFFFFFFFFFFFFFF AND PUSH2 0x22D7 JUMP JUMPDEST PUSH0 JUMPDEST PUSH28 0xFFFFFFFFFFFFFFFFFFFFFFFFFFFFFFFFFFFFFFFFFFFFFFFFFFFFFFFF AND SWAP4 POP POP POP POP SWAP3 SWAP2 POP POP JUMP JUMPDEST PUSH2 0x2308 PUSH2 0x1C49 JUMP JUMPDEST PUSH20 0xFFFFFFFFFFFFFFFFFFFFFFFFFFFFFFFFFFFFFFFF AND PUSH2 0x2326 PUSH2 0x1126 JUMP JUMPDEST PUSH20 0xFFFFFFFFFFFFFFFFFFFFFFFFFFFFFFFFFFFFFFFF AND EQ PUSH2 0x237C JUMPI PUSH1 0x40 MLOAD PUSH32 0x8C379A000000000000000000000000000000000000000000000000000000000 DUP2 MSTORE PUSH1 0x4 ADD PUSH2 0x2373 SWAP1 PUSH2 0x52B7 JUMP JUMPDEST PUSH1 0x40 MLOAD DUP1 SWAP2 SUB SWAP1 REVERT JUMPDEST JUMP JUMPDEST PUSH2 0x2386 PUSH2 0x2BFD JUMP JUMPDEST PUSH0 PUSH1 0xC PUSH1 0x14 PUSH2 0x100 EXP DUP2 SLOAD DUP2 PUSH1 0xFF MUL NOT AND SWAP1 DUP4 ISZERO ISZERO MUL OR SWAP1 SSTORE POP PUSH32 0x5DB9EE0A495BF2E6FF9C91A7834C1BA4FDD244A5E8AA4E537BD38AEAE4B073AA PUSH2 0x23C9 PUSH2 0x1C49 JUMP JUMPDEST PUSH1 0x40 MLOAD PUSH2 0x23D6 SWAP2 SWAP1 PUSH2 0x3E28 JUMP JUMPDEST PUSH1 0x40 MLOAD DUP1 SWAP2 SUB SWAP1 LOG1 JUMP JUMPDEST PUSH2 0x23EA DUP3 DUP3 PUSH2 0x2C46 JUMP JUMPDEST POP POP JUMP JUMPDEST PUSH0 PUSH2 0x23F8 DUP4 PUSH2 0xC5B JUMP JUMPDEST SWAP1 POP PUSH0 PUSH2 0x2404 DUP5 PUSH2 0xF4D JUMP JUMPDEST SWAP1 POP DUP3 PUSH1 0x9 PUSH0 DUP7 PUSH20 0xFFFFFFFFFFFFFFFFFFFFFFFFFFFFFFFFFFFFFFFF AND PUSH20 0xFFFFFFFFFFFFFFFFFFFFFFFFFFFFFFFFFFFFFFFF AND DUP2 MSTORE PUSH1 0x20 ADD SWAP1 DUP2 MSTORE PUSH1 0x20 ADD PUSH0 KECCAK256 PUSH0 PUSH2 0x100 EXP DUP2 SLOAD DUP2 PUSH20 0xFFFFFFFFFFFFFFFFFFFFFFFFFFFFFFFFFFFFFFFF MUL NOT AND SWAP1 DUP4 PUSH20 0xFFFFFFFFFFFFFFFFFFFFFFFFFFFFFFFFFFFFFFFF AND MUL OR SWAP1 SSTORE POP DUP3 PUSH20 0xFFFFFFFFFFFFFFFFFFFFFFFFFFFFFFFFFFFFFFFF AND DUP3 PUSH20 0xFFFFFFFFFFFFFFFFFFFFFFFFFFFFFFFFFFFFFFFF AND DUP6 PUSH20 0xFFFFFFFFFFFFFFFFFFFFFFFFFFFFFFFFFFFFFFFF AND PUSH32 0x3134E8A2E6D97E929A7E54011EA5485D7D196DD5F0BA4D4EF95803E8E3FC257F PUSH1 0x40 MLOAD PUSH1 0x40 MLOAD DUP1 SWAP2 SUB SWAP1 LOG4 PUSH2 0x24FD DUP3 DUP5 DUP4 PUSH2 0x2C64 JUMP JUMPDEST POP POP POP POP JUMP JUMPDEST PUSH2 0x2584 DUP4 PUSH4 0xA9059CBB PUSH1 0xE0 SHL DUP5 DUP5 PUSH1 0x40 MLOAD PUSH1 0x24 ADD PUSH2 0x2522 SWAP3 SWAP2 SWAP1 PUSH2 0x52D5 JUMP JUMPDEST PUSH1 0x40 MLOAD PUSH1 0x20 DUP2 DUP4 SUB SUB DUP2 MSTORE SWAP1 PUSH1 0x40 MSTORE SWAP1 PUSH28 0xFFFFFFFFFFFFFFFFFFFFFFFFFFFFFFFFFFFFFFFFFFFFFFFFFFFFFFFF NOT AND PUSH1 0x20 DUP3 ADD DUP1 MLOAD PUSH28 0xFFFFFFFFFFFFFFFFFFFFFFFFFFFFFFFFFFFFFFFFFFFFFFFFFFFFFFFF DUP4 DUP2 DUP4 AND OR DUP4 MSTORE POP POP POP POP PUSH2 0x2E54 JUMP JUMPDEST POP POP POP JUMP JUMPDEST PUSH0 PUSH4 0xFFFFFFFF DUP1 AND DUP3 GT ISZERO PUSH2 0x25D3 JUMPI PUSH1 0x40 MLOAD PUSH32 0x8C379A000000000000000000000000000000000000000000000000000000000 DUP2 MSTORE PUSH1 0x4 ADD PUSH2 0x25CA SWAP1 PUSH2 0x536C JUMP JUMPDEST PUSH1 0x40 MLOAD DUP1 SWAP2 SUB SWAP1 REVERT JUMPDEST DUP2 SWAP1 POP SWAP2 SWAP1 POP JUMP JUMPDEST PUSH0 PUSH1 0xC PUSH0 SWAP1 SLOAD SWAP1 PUSH2 0x100 EXP SWAP1 DIV PUSH20 0xFFFFFFFFFFFFFFFFFFFFFFFFFFFFFFFFFFFFFFFF AND SWAP1 POP DUP2 PUSH1 0xC PUSH0 PUSH2 0x100 EXP DUP2 SLOAD DUP2 PUSH20 0xFFFFFFFFFFFFFFFFFFFFFFFFFFFFFFFFFFFFFFFF MUL NOT AND SWAP1 DUP4 PUSH20 0xFFFFFFFFFFFFFFFFFFFFFFFFFFFFFFFFFFFFFFFF AND MUL OR SWAP1 SSTORE POP DUP2 PUSH20 0xFFFFFFFFFFFFFFFFFFFFFFFFFFFFFFFFFFFFFFFF AND DUP2 PUSH20 0xFFFFFFFFFFFFFFFFFFFFFFFFFFFFFFFFFFFFFFFF AND PUSH32 0x8BE0079C531659141344CD1FD0A4F28419497F9722A3DAAFE3B4186F6B6457E0 PUSH1 0x40 MLOAD PUSH1 0x40 MLOAD DUP1 SWAP2 SUB SWAP1 LOG3 POP POP JUMP JUMPDEST PUSH0 DUP2 PUSH0 ADD SLOAD SWAP1 POP SWAP2 SWAP1 POP JUMP JUMPDEST PUSH2 0x26B2 PUSH2 0x2F1A JUMP JUMPDEST PUSH1 0x1 PUSH1 0xC PUSH1 0x14 PUSH2 0x100 EXP DUP2 SLOAD DUP2 PUSH1 0xFF MUL NOT AND SWAP1 DUP4 ISZERO ISZERO MUL OR SWAP1 SSTORE POP PUSH32 0x62E78CEA01BEE320CD4E420270B5EA74000D11B0C9F74754EBDBFC544B05A258 PUSH2 0x26F6 PUSH2 0x1C49 JUMP JUMPDEST PUSH1 0x40 MLOAD PUSH2 0x2703 SWAP2 SWAP1 PUSH2 0x3E28 JUMP JUMPDEST PUSH1 0x40 MLOAD DUP1 SWAP2 SUB SWAP1 LOG1 JUMP JUMPDEST PUSH1 0x60 PUSH1 0xFF PUSH0 SHL DUP4 EQ PUSH2 0x2729 JUMPI PUSH2 0x2722 DUP4 PUSH2 0x2F64 JUMP JUMPDEST SWAP1 POP PUSH2 0x27B4 JUMP JUMPDEST DUP2 DUP1 SLOAD PUSH2 0x2735 SWAP1 PUSH2 0x44A3 JUMP JUMPDEST DUP1 PUSH1 0x1F ADD PUSH1 0x20 DUP1 SWAP2 DIV MUL PUSH1 0x20 ADD PUSH1 0x40 MLOAD SWAP1 DUP2 ADD PUSH1 0x40 MSTORE DUP1 SWAP3 SWAP2 SWAP1 DUP2 DUP2 MSTORE PUSH1 0x20 ADD DUP3 DUP1 SLOAD PUSH2 0x2761 SWAP1 PUSH2 0x44A3 JUMP JUMPDEST DUP1 ISZERO PUSH2 0x27AC JUMPI DUP1 PUSH1 0x1F LT PUSH2 0x2783 JUMPI PUSH2 0x100 DUP1 DUP4 SLOAD DIV MUL DUP4 MSTORE SWAP2 PUSH1 0x20 ADD SWAP2 PUSH2 0x27AC JUMP JUMPDEST DUP3 ADD SWAP2 SWAP1 PUSH0 MSTORE PUSH1 0x20 PUSH0 KECCAK256 SWAP1 JUMPDEST DUP2 SLOAD DUP2 MSTORE SWAP1 PUSH1 0x1 ADD SWAP1 PUSH1 0x20 ADD DUP1 DUP4 GT PUSH2 0x278F JUMPI DUP3 SWAP1 SUB PUSH1 0x1F AND DUP3 ADD SWAP2 JUMPDEST POP POP POP POP POP SWAP1 POP JUMPDEST SWAP3 SWAP2 POP POP JUMP JUMPDEST PUSH0 PUSH6 0xFFFFFFFFFFFF DUP1 AND DUP3 GT ISZERO PUSH2 0x2806 JUMPI PUSH1 0x40 MLOAD PUSH32 0x8C379A000000000000000000000000000000000000000000000000000000000 DUP2 MSTORE PUSH1 0x4 ADD PUSH2 0x27FD SWAP1 PUSH2 0x53FA JUMP JUMPDEST PUSH1 0x40 MLOAD DUP1 SWAP2 SUB SWAP1 REVERT JUMPDEST DUP2 SWAP1 POP SWAP2 SWAP1 POP JUMP JUMPDEST PUSH0 PUSH2 0x2820 PUSH2 0x281A PUSH2 0x210A JUMP JUMPDEST DUP4 PUSH2 0x2FD6 JUMP JUMPDEST SWAP1 POP SWAP2 SWAP1 POP JUMP JUMPDEST PUSH0 PUSH0 PUSH0 PUSH2 0x2836 DUP8 DUP8 DUP8 DUP8 PUSH2 0x3016 JUMP JUMPDEST SWAP2 POP SWAP2 POP PUSH2 0x2843 DUP2 PUSH2 0x30EE JUMP JUMPDEST DUP2 SWAP3 POP POP POP SWAP5 SWAP4 POP POP POP POP JUMP JUMPDEST PUSH0 PUSH0 PUSH1 0x7 PUSH0 DUP5 PUSH20 0xFFFFFFFFFFFFFFFFFFFFFFFFFFFFFFFFFFFFFFFF AND PUSH20 0xFFFFFFFFFFFFFFFFFFFFFFFFFFFFFFFFFFFFFFFF AND DUP2 MSTORE PUSH1 0x20 ADD SWAP1 DUP2 MSTORE PUSH1 0x20 ADD PUSH0 KECCAK256 SWAP1 POP PUSH2 0x289A DUP2 PUSH2 0x269E JUMP JUMPDEST SWAP2 POP PUSH2 0x28A5 DUP2 PUSH2 0x3253 JUMP JUMPDEST POP SWAP2 SWAP1 POP JUMP JUMPDEST PUSH1 0x2 PUSH1 0xD SLOAD SUB PUSH2 0x28F0 JUMPI PUSH1 0x40 MLOAD PUSH32 0x8C379A000000000000000000000000000000000000000000000000000000000 DUP2 MSTORE PUSH1 0x4 ADD PUSH2 0x28E7 SWAP1 PUSH2 0x5462 JUMP JUMPDEST PUSH1 0x40 MLOAD DUP1 SWAP2 SUB SWAP1 REVERT JUMPDEST PUSH1 0x2 PUSH1 0xD DUP2 SWAP1 SSTORE POP JUMP JUMPDEST PUSH0 DUP4 PUSH20 0xFFFFFFFFFFFFFFFFFFFFFFFFFFFFFFFFFFFFFFFF AND PUSH4 0xDD62ED3E ADDRESS DUP6 PUSH1 0x40 MLOAD DUP4 PUSH4 0xFFFFFFFF AND PUSH1 0xE0 SHL DUP2 MSTORE PUSH1 0x4 ADD PUSH2 0x2936 SWAP3 SWAP2 SWAP1 PUSH2 0x5480 JUMP JUMPDEST PUSH1 0x20 PUSH1 0x40 MLOAD DUP1 DUP4 SUB DUP2 DUP7 GAS STATICCALL ISZERO DUP1 ISZERO PUSH2 0x2951 JUMPI RETURNDATASIZE PUSH0 PUSH0 RETURNDATACOPY RETURNDATASIZE PUSH0 REVERT JUMPDEST POP POP POP POP PUSH1 0x40 MLOAD RETURNDATASIZE PUSH1 0x1F NOT PUSH1 0x1F DUP3 ADD AND DUP3 ADD DUP1 PUSH1 0x40 MSTORE POP DUP2 ADD SWAP1 PUSH2 0x2975 SWAP2 SWAP1 PUSH2 0x54A7 JUMP JUMPDEST SWAP1 POP PUSH2 0x2A03 DUP5 PUSH4 0x95EA7B3 PUSH1 0xE0 SHL DUP6 DUP6 DUP6 PUSH2 0x2990 SWAP2 SWAP1 PUSH2 0x43DB JUMP JUMPDEST PUSH1 0x40 MLOAD PUSH1 0x24 ADD PUSH2 0x29A1 SWAP3 SWAP2 SWAP1 PUSH2 0x52D5 JUMP JUMPDEST PUSH1 0x40 MLOAD PUSH1 0x20 DUP2 DUP4 SUB SUB DUP2 MSTORE SWAP1 PUSH1 0x40 MSTORE SWAP1 PUSH28 0xFFFFFFFFFFFFFFFFFFFFFFFFFFFFFFFFFFFFFFFFFFFFFFFFFFFFFFFF NOT AND PUSH1 0x20 DUP3 ADD DUP1 MLOAD PUSH28 0xFFFFFFFFFFFFFFFFFFFFFFFFFFFFFFFFFFFFFFFFFFFFFFFFFFFFFFFF DUP4 DUP2 DUP4 AND OR DUP4 MSTORE POP POP POP POP PUSH2 0x2E54 JUMP JUMPDEST POP POP POP POP JUMP JUMPDEST PUSH1 0x1 PUSH1 0xD DUP2 SWAP1 SSTORE POP JUMP JUMPDEST PUSH2 0x2A1B PUSH2 0x2F1A JUMP JUMPDEST PUSH2 0x2A26 DUP4 DUP4 DUP4 PUSH2 0x3267 JUMP JUMPDEST POP POP POP JUMP JUMPDEST PUSH2 0x2A36 DUP4 DUP4 DUP4 PUSH2 0x326C JUMP JUMPDEST POP POP POP JUMP JUMPDEST PUSH0 PUSH32 0x8B73C3C69BB8FE3D512ECC4CF759CC79239F7B179B0FFACAA9A75D522B39400F PUSH32 0x0 PUSH32 0x0 CHAINID ADDRESS PUSH1 0x40 MLOAD PUSH1 0x20 ADD PUSH2 0x2AB5 SWAP6 SWAP5 SWAP4 SWAP3 SWAP2 SWAP1 PUSH2 0x54D2 JUMP JUMPDEST PUSH1 0x40 MLOAD PUSH1 0x20 DUP2 DUP4 SUB SUB DUP2 MSTORE SWAP1 PUSH1 0x40 MSTORE DUP1 MLOAD SWAP1 PUSH1 0x20 ADD KECCAK256 SWAP1 POP SWAP1 JUMP JUMPDEST PUSH0 PUSH0 DUP3 SUB PUSH2 0x2AE0 JUMPI PUSH0 SWAP1 POP PUSH2 0x2BC1 JUMP JUMPDEST PUSH0 PUSH1 0x1 PUSH2 0x2AEC DUP5 PUSH2 0x3297 JUMP JUMPDEST SWAP1 SHR PUSH1 0x1 SWAP1 SHL SWAP1 POP PUSH1 0x1 DUP2 DUP5 DUP2 PUSH2 0x2B06 JUMPI PUSH2 0x2B05 PUSH2 0x470D JUMP JUMPDEST JUMPDEST DIV DUP3 ADD SWAP1 SHR SWAP1 POP PUSH1 0x1 DUP2 DUP5 DUP2 PUSH2 0x2B1F JUMPI PUSH2 0x2B1E PUSH2 0x470D JUMP JUMPDEST JUMPDEST DIV DUP3 ADD SWAP1 SHR SWAP1 POP PUSH1 0x1 DUP2 DUP5 DUP2 PUSH2 0x2B38 JUMPI PUSH2 0x2B37 PUSH2 0x470D JUMP JUMPDEST JUMPDEST DIV DUP3 ADD SWAP1 SHR SWAP1 POP PUSH1 0x1 DUP2 DUP5 DUP2 PUSH2 0x2B51 JUMPI PUSH2 0x2B50 PUSH2 0x470D JUMP JUMPDEST JUMPDEST DIV DUP3 ADD SWAP1 SHR SWAP1 POP PUSH1 0x1 DUP2 DUP5 DUP2 PUSH2 0x2B6A JUMPI PUSH2 0x2B69 PUSH2 0x470D JUMP JUMPDEST JUMPDEST DIV DUP3 ADD SWAP1 SHR SWAP1 POP PUSH1 0x1 DUP2 DUP5 DUP2 PUSH2 0x2B83 JUMPI PUSH2 0x2B82 PUSH2 0x470D JUMP JUMPDEST JUMPDEST DIV DUP3 ADD SWAP1 SHR SWAP1 POP PUSH1 0x1 DUP2 DUP5 DUP2 PUSH2 0x2B9C JUMPI PUSH2 0x2B9B PUSH2 0x470D JUMP JUMPDEST JUMPDEST DIV DUP3 ADD SWAP1 SHR SWAP1 POP PUSH2 0x2BBD DUP2 DUP3 DUP6 DUP2 PUSH2 0x2BB7 JUMPI PUSH2 0x2BB6 PUSH2 0x470D JUMP JUMPDEST JUMPDEST DIV PUSH2 0x336E JUMP JUMPDEST SWAP2 POP POP JUMPDEST SWAP2 SWAP1 POP JUMP JUMPDEST PUSH0 DUP3 PUSH0 MSTORE DUP2 PUSH1 0x20 PUSH0 KECCAK256 ADD SWAP1 POP SWAP3 SWAP2 POP POP JUMP JUMPDEST PUSH0 PUSH1 0x2 DUP3 DUP5 XOR PUSH2 0x2BE8 SWAP2 SWAP1 PUSH2 0x473A JUMP JUMPDEST DUP3 DUP5 AND PUSH2 0x2BF5 SWAP2 SWAP1 PUSH2 0x43DB JUMP JUMPDEST SWAP1 POP SWAP3 SWAP2 POP POP JUMP JUMPDEST PUSH2 0x2C05 PUSH2 0xCD4 JUMP JUMPDEST PUSH2 0x2C44 JUMPI PUSH1 0x40 MLOAD PUSH32 0x8C379A000000000000000000000000000000000000000000000000000000000 DUP2 MSTORE PUSH1 0x4 ADD PUSH2 0x2C3B SWAP1 PUSH2 0x556D JUMP JUMPDEST PUSH1 0x40 MLOAD DUP1 SWAP2 SUB SWAP1 REVERT JUMPDEST JUMP JUMPDEST PUSH2 0x2C50 DUP3 DUP3 PUSH2 0x3386 JUMP JUMPDEST PUSH2 0x2C5E PUSH1 0xB PUSH2 0x1C34 DUP4 PUSH2 0x3549 JUMP JUMPDEST POP POP POP POP JUMP JUMPDEST DUP2 PUSH20 0xFFFFFFFFFFFFFFFFFFFFFFFFFFFFFFFFFFFFFFFF AND DUP4 PUSH20 0xFFFFFFFFFFFFFFFFFFFFFFFFFFFFFFFFFFFFFFFF AND EQ ISZERO DUP1 ISZERO PUSH2 0x2C9F JUMPI POP PUSH0 DUP2 GT JUMPDEST ISZERO PUSH2 0x2E4F JUMPI PUSH0 PUSH20 0xFFFFFFFFFFFFFFFFFFFFFFFFFFFFFFFFFFFFFFFF AND DUP4 PUSH20 0xFFFFFFFFFFFFFFFFFFFFFFFFFFFFFFFFFFFFFFFF AND EQ PUSH2 0x2D79 JUMPI PUSH0 PUSH0 PUSH2 0x2D22 PUSH1 0xA PUSH0 DUP8 PUSH20 0xFFFFFFFFFFFFFFFFFFFFFFFFFFFFFFFFFFFFFFFF AND PUSH20 0xFFFFFFFFFFFFFFFFFFFFFFFFFFFFFFFFFFFFFFFF AND DUP2 MSTORE PUSH1 0x20 ADD SWAP1 DUP2 MSTORE PUSH1 0x20 ADD PUSH0 KECCAK256 PUSH2 0x1C34 DUP6 PUSH2 0x3549 JUMP JUMPDEST SWAP2 POP SWAP2 POP DUP5 PUSH20 0xFFFFFFFFFFFFFFFFFFFFFFFFFFFFFFFFFFFFFFFF AND PUSH32 0xDEC2BACDD2F05B59DE34DA9B523DFF8BE42E5E38E818C82FDB0BAE774387A724 DUP4 DUP4 PUSH1 0x40 MLOAD PUSH2 0x2D6E SWAP3 SWAP2 SWAP1 PUSH2 0x558B JUMP JUMPDEST PUSH1 0x40 MLOAD DUP1 SWAP2 SUB SWAP1 LOG2 POP POP JUMPDEST PUSH0 PUSH20 0xFFFFFFFFFFFFFFFFFFFFFFFFFFFFFFFFFFFFFFFF AND DUP3 PUSH20 0xFFFFFFFFFFFFFFFFFFFFFFFFFFFFFFFFFFFFFFFF AND EQ PUSH2 0x2E4E JUMPI PUSH0 PUSH0 PUSH2 0x2DF7 PUSH1 0xA PUSH0 DUP7 PUSH20 0xFFFFFFFFFFFFFFFFFFFFFFFFFFFFFFFFFFFFFFFF AND PUSH20 0xFFFFFFFFFFFFFFFFFFFFFFFFFFFFFFFFFFFFFFFF AND DUP2 MSTORE PUSH1 0x20 ADD SWAP1 DUP2 MSTORE PUSH1 0x20 ADD PUSH0 KECCAK256 PUSH2 0x1C1F DUP6 PUSH2 0x3549 JUMP JUMPDEST SWAP2 POP SWAP2 POP DUP4 PUSH20 0xFFFFFFFFFFFFFFFFFFFFFFFFFFFFFFFFFFFFFFFF AND PUSH32 0xDEC2BACDD2F05B59DE34DA9B523DFF8BE42E5E38E818C82FDB0BAE774387A724 DUP4 DUP4 PUSH1 0x40 MLOAD PUSH2 0x2E43 SWAP3 SWAP2 SWAP1 PUSH2 0x558B JUMP JUMPDEST PUSH1 0x40 MLOAD DUP1 SWAP2 SUB SWAP1 LOG2 POP POP JUMPDEST JUMPDEST POP POP POP JUMP JUMPDEST PUSH0 PUSH2 0x2EB5 DUP3 PUSH1 0x40 MLOAD DUP1 PUSH1 0x40 ADD PUSH1 0x40 MSTORE DUP1 PUSH1 0x20 DUP2 MSTORE PUSH1 0x20 ADD PUSH32 0x5361666545524332303A206C6F772D6C6576656C2063616C6C206661696C6564 DUP2 MSTORE POP DUP6 PUSH20 0xFFFFFFFFFFFFFFFFFFFFFFFFFFFFFFFFFFFFFFFF AND PUSH2 0x3812 SWAP1 SWAP3 SWAP2 SWAP1 PUSH4 0xFFFFFFFF AND JUMP JUMPDEST SWAP1 POP PUSH0 DUP2 MLOAD EQ DUP1 PUSH2 0x2ED6 JUMPI POP DUP1 DUP1 PUSH1 0x20 ADD SWAP1 MLOAD DUP2 ADD SWAP1 PUSH2 0x2ED5 SWAP2 SWAP1 PUSH2 0x55DC JUMP JUMPDEST JUMPDEST PUSH2 0x2F15 JUMPI PUSH1 0x40 MLOAD PUSH32 0x8C379A000000000000000000000000000000000000000000000000000000000 DUP2 MSTORE PUSH1 0x4 ADD PUSH2 0x2F0C SWAP1 PUSH2 0x5677 JUMP JUMPDEST PUSH1 0x40 MLOAD DUP1 SWAP2 SUB SWAP1 REVERT JUMPDEST POP POP POP JUMP JUMPDEST PUSH2 0x2F22 PUSH2 0xCD4 JUMP JUMPDEST ISZERO PUSH2 0x2F62 JUMPI PUSH1 0x40 MLOAD PUSH32 0x8C379A000000000000000000000000000000000000000000000000000000000 DUP2 MSTORE PUSH1 0x4 ADD PUSH2 0x2F59 SWAP1 PUSH2 0x56DF JUMP JUMPDEST PUSH1 0x40 MLOAD DUP1 SWAP2 SUB SWAP1 REVERT JUMPDEST JUMP JUMPDEST PUSH1 0x60 PUSH0 PUSH2 0x2F70 DUP4 PUSH2 0x3829 JUMP JUMPDEST SWAP1 POP PUSH0 PUSH1 0x20 PUSH8 0xFFFFFFFFFFFFFFFF DUP2 GT ISZERO PUSH2 0x2F8E JUMPI PUSH2 0x2F8D PUSH2 0x476A JUMP JUMPDEST JUMPDEST PUSH1 0x40 MLOAD SWAP1 DUP1 DUP3 MSTORE DUP1 PUSH1 0x1F ADD PUSH1 0x1F NOT AND PUSH1 0x20 ADD DUP3 ADD PUSH1 0x40 MSTORE DUP1 ISZERO PUSH2 0x2FC0 JUMPI DUP2 PUSH1 0x20 ADD PUSH1 0x1 DUP3 MUL DUP1 CALLDATASIZE DUP4 CALLDATACOPY DUP1 DUP3 ADD SWAP2 POP POP SWAP1 POP JUMPDEST POP SWAP1 POP DUP2 DUP2 MSTORE DUP4 PUSH1 0x20 DUP3 ADD MSTORE DUP1 SWAP3 POP POP POP SWAP2 SWAP1 POP JUMP JUMPDEST PUSH0 PUSH1 0x40 MLOAD PUSH32 0x1901000000000000000000000000000000000000000000000000000000000000 DUP2 MSTORE DUP4 PUSH1 0x2 DUP3 ADD MSTORE DUP3 PUSH1 0x22 DUP3 ADD MSTORE PUSH1 0x42 DUP2 KECCAK256 SWAP2 POP POP SWAP3 SWAP2 POP POP JUMP JUMPDEST PUSH0 PUSH0 PUSH32 0x7FFFFFFFFFFFFFFFFFFFFFFFFFFFFFFF5D576E7357A4501DDFE92F46681B20A0 DUP4 PUSH0 SHR GT ISZERO PUSH2 0x304E JUMPI PUSH0 PUSH1 0x3 SWAP2 POP SWAP2 POP PUSH2 0x30E5 JUMP JUMPDEST PUSH0 PUSH1 0x1 DUP8 DUP8 DUP8 DUP8 PUSH1 0x40 MLOAD PUSH0 DUP2 MSTORE PUSH1 0x20 ADD PUSH1 0x40 MSTORE PUSH1 0x40 MLOAD PUSH2 0x3071 SWAP5 SWAP4 SWAP3 SWAP2 SWAP1 PUSH2 0x56FD JUMP JUMPDEST PUSH1 0x20 PUSH1 0x40 MLOAD PUSH1 0x20 DUP2 SUB SWAP1 DUP1 DUP5 SUB SWAP1 DUP6 GAS STATICCALL ISZERO DUP1 ISZERO PUSH2 0x3091 JUMPI RETURNDATASIZE PUSH0 PUSH0 RETURNDATACOPY RETURNDATASIZE PUSH0 REVERT JUMPDEST POP POP POP PUSH1 0x20 PUSH1 0x40 MLOAD SUB MLOAD SWAP1 POP PUSH0 PUSH20 0xFFFFFFFFFFFFFFFFFFFFFFFFFFFFFFFFFFFFFFFF AND DUP2 PUSH20 0xFFFFFFFFFFFFFFFFFFFFFFFFFFFFFFFFFFFFFFFF AND SUB PUSH2 0x30DD JUMPI PUSH0 PUSH1 0x1 SWAP3 POP SWAP3 POP POP PUSH2 0x30E5 JUMP JUMPDEST DUP1 PUSH0 SWAP3 POP SWAP3 POP POP JUMPDEST SWAP5 POP SWAP5 SWAP3 POP POP POP JUMP JUMPDEST PUSH0 PUSH1 0x4 DUP2 GT ISZERO PUSH2 0x3101 JUMPI PUSH2 0x3100 PUSH2 0x5740 JUMP JUMPDEST JUMPDEST DUP2 PUSH1 0x4 DUP2 GT ISZERO PUSH2 0x3114 JUMPI PUSH2 0x3113 PUSH2 0x5740 JUMP JUMPDEST JUMPDEST SUB ISZERO PUSH2 0x3250 JUMPI PUSH1 0x1 PUSH1 0x4 DUP2 GT ISZERO PUSH2 0x312E JUMPI PUSH2 0x312D PUSH2 0x5740 JUMP JUMPDEST JUMPDEST DUP2 PUSH1 0x4 DUP2 GT ISZERO PUSH2 0x3141 JUMPI PUSH2 0x3140 PUSH2 0x5740 JUMP JUMPDEST JUMPDEST SUB PUSH2 0x3181 JUMPI PUSH1 0x40 MLOAD PUSH32 0x8C379A000000000000000000000000000000000000000000000000000000000 DUP2 MSTORE PUSH1 0x4 ADD PUSH2 0x3178 SWAP1 PUSH2 0x57B7 JUMP JUMPDEST PUSH1 0x40 MLOAD DUP1 SWAP2 SUB SWAP1 REVERT JUMPDEST PUSH1 0x2 PUSH1 0x4 DUP2 GT ISZERO PUSH2 0x3195 JUMPI PUSH2 0x3194 PUSH2 0x5740 JUMP JUMPDEST JUMPDEST DUP2 PUSH1 0x4 DUP2 GT ISZERO PUSH2 0x31A8 JUMPI PUSH2 0x31A7 PUSH2 0x5740 JUMP JUMPDEST JUMPDEST SUB PUSH2 0x31E8 JUMPI PUSH1 0x40 MLOAD PUSH32 0x8C379A000000000000000000000000000000000000000000000000000000000 DUP2 MSTORE PUSH1 0x4 ADD PUSH2 0x31DF SWAP1 PUSH2 0x581F JUMP JUMPDEST PUSH1 0x40 MLOAD DUP1 SWAP2 SUB SWAP1 REVERT JUMPDEST PUSH1 0x3 PUSH1 0x4 DUP2 GT ISZERO PUSH2 0x31FC JUMPI PUSH2 0x31FB PUSH2 0x5740 JUMP JUMPDEST JUMPDEST DUP2 PUSH1 0x4 DUP2 GT ISZERO PUSH2 0x320F JUMPI PUSH2 0x320E PUSH2 0x5740 JUMP JUMPDEST JUMPDEST SUB PUSH2 0x324F JUMPI PUSH1 0x40 MLOAD PUSH32 0x8C379A000000000000000000000000000000000000000000000000000000000 DUP2 MSTORE PUSH1 0x4 ADD PUSH2 0x3246 SWAP1 PUSH2 0x58AD JUMP JUMPDEST PUSH1 0x40 MLOAD DUP1 SWAP2 SUB SWAP1 REVERT JUMPDEST JUMPDEST POP JUMP JUMPDEST PUSH1 0x1 DUP2 PUSH0 ADD PUSH0 DUP3 DUP3 SLOAD ADD SWAP3 POP POP DUP2 SWAP1 SSTORE POP POP JUMP JUMPDEST POP POP POP JUMP JUMPDEST PUSH2 0x3277 DUP4 DUP4 DUP4 PUSH2 0x3877 JUMP JUMPDEST PUSH2 0x3292 PUSH2 0x3283 DUP5 PUSH2 0xC5B JUMP JUMPDEST PUSH2 0x328C DUP5 PUSH2 0xC5B JUMP JUMPDEST DUP4 PUSH2 0x2C64 JUMP JUMPDEST POP POP POP JUMP JUMPDEST PUSH0 PUSH0 PUSH0 SWAP1 POP PUSH0 PUSH1 0x80 DUP5 SWAP1 SHR GT ISZERO PUSH2 0x32B6 JUMPI PUSH1 0x80 DUP4 SWAP1 SHR SWAP3 POP PUSH1 0x80 DUP2 ADD SWAP1 POP JUMPDEST PUSH0 PUSH1 0x40 DUP5 SWAP1 SHR GT ISZERO PUSH2 0x32D0 JUMPI PUSH1 0x40 DUP4 SWAP1 SHR SWAP3 POP PUSH1 0x40 DUP2 ADD SWAP1 POP JUMPDEST PUSH0 PUSH1 0x20 DUP5 SWAP1 SHR GT ISZERO PUSH2 0x32EA JUMPI PUSH1 0x20 DUP4 SWAP1 SHR SWAP3 POP PUSH1 0x20 DUP2 ADD SWAP1 POP JUMPDEST PUSH0 PUSH1 0x10 DUP5 SWAP1 SHR GT ISZERO PUSH2 0x3304 JUMPI PUSH1 0x10 DUP4 SWAP1 SHR SWAP3 POP PUSH1 0x10 DUP2 ADD SWAP1 POP JUMPDEST PUSH0 PUSH1 0x8 DUP5 SWAP1 SHR GT ISZERO PUSH2 0x331E JUMPI PUSH1 0x8 DUP4 SWAP1 SHR SWAP3 POP PUSH1 0x8 DUP2 ADD SWAP1 POP JUMPDEST PUSH0 PUSH1 0x4 DUP5 SWAP1 SHR GT ISZERO PUSH2 0x3338 JUMPI PUSH1 0x4 DUP4 SWAP1 SHR SWAP3 POP PUSH1 0x4 DUP2 ADD SWAP1 POP JUMPDEST PUSH0 PUSH1 0x2 DUP5 SWAP1 SHR GT ISZERO PUSH2 0x3352 JUMPI PUSH1 0x2 DUP4 SWAP1 SHR SWAP3 POP PUSH1 0x2 DUP2 ADD SWAP1 POP JUMPDEST PUSH0 PUSH1 0x1 DUP5 SWAP1 SHR GT ISZERO PUSH2 0x3365 JUMPI PUSH1 0x1 DUP2 ADD SWAP1 POP JUMPDEST DUP1 SWAP2 POP POP SWAP2 SWAP1 POP JUMP JUMPDEST PUSH0 DUP2 DUP4 LT PUSH2 0x337C JUMPI DUP2 PUSH2 0x337E JUMP JUMPDEST DUP3 JUMPDEST SWAP1 POP SWAP3 SWAP2 POP POP JUMP JUMPDEST PUSH0 PUSH20 0xFFFFFFFFFFFFFFFFFFFFFFFFFFFFFFFFFFFFFFFF AND DUP3 PUSH20 0xFFFFFFFFFFFFFFFFFFFFFFFFFFFFFFFFFFFFFFFF AND SUB PUSH2 0x33F4 JUMPI PUSH1 0x40 MLOAD PUSH32 0x8C379A000000000000000000000000000000000000000000000000000000000 DUP2 MSTORE PUSH1 0x4 ADD PUSH2 0x33EB SWAP1 PUSH2 0x593B JUMP JUMPDEST PUSH1 0x40 MLOAD DUP1 SWAP2 SUB SWAP1 REVERT JUMPDEST PUSH2 0x33FF DUP3 PUSH0 DUP4 PUSH2 0x2A13 JUMP JUMPDEST PUSH0 PUSH0 PUSH0 DUP5 PUSH20 0xFFFFFFFFFFFFFFFFFFFFFFFFFFFFFFFFFFFFFFFF AND PUSH20 0xFFFFFFFFFFFFFFFFFFFFFFFFFFFFFFFFFFFFFFFF AND DUP2 MSTORE PUSH1 0x20 ADD SWAP1 DUP2 MSTORE PUSH1 0x20 ADD PUSH0 KECCAK256 SLOAD SWAP1 POP DUP2 DUP2 LT ISZERO PUSH2 0x3482 JUMPI PUSH1 0x40 MLOAD PUSH32 0x8C379A000000000000000000000000000000000000000000000000000000000 DUP2 MSTORE PUSH1 0x4 ADD PUSH2 0x3479 SWAP1 PUSH2 0x59C9 JUMP JUMPDEST PUSH1 0x40 MLOAD DUP1 SWAP2 SUB SWAP1 REVERT JUMPDEST DUP2 DUP2 SUB PUSH0 PUSH0 DUP6 PUSH20 0xFFFFFFFFFFFFFFFFFFFFFFFFFFFFFFFFFFFFFFFF AND PUSH20 0xFFFFFFFFFFFFFFFFFFFFFFFFFFFFFFFFFFFFFFFF AND DUP2 MSTORE PUSH1 0x20 ADD SWAP1 DUP2 MSTORE PUSH1 0x20 ADD PUSH0 KECCAK256 DUP2 SWAP1 SSTORE POP DUP2 PUSH1 0x2 PUSH0 DUP3 DUP3 SLOAD SUB SWAP3 POP POP DUP2 SWAP1 SSTORE POP PUSH0 PUSH20 0xFFFFFFFFFFFFFFFFFFFFFFFFFFFFFFFFFFFFFFFF AND DUP4 PUSH20 0xFFFFFFFFFFFFFFFFFFFFFFFFFFFFFFFFFFFFFFFF AND PUSH32 0xDDF252AD1BE2C89B69C2B068FC378DAA952BA7F163C4A11628F55A4DF523B3EF DUP5 PUSH1 0x40 MLOAD PUSH2 0x3531 SWAP2 SWAP1 PUSH2 0x3CF5 JUMP JUMPDEST PUSH1 0x40 MLOAD DUP1 SWAP2 SUB SWAP1 LOG3 PUSH2 0x3544 DUP4 PUSH0 DUP5 PUSH2 0x2A2B JUMP JUMPDEST POP POP POP JUMP JUMPDEST PUSH0 PUSH0 PUSH0 DUP6 DUP1 SLOAD SWAP1 POP SWAP1 POP PUSH0 PUSH0 DUP3 EQ PUSH2 0x3609 JUMPI PUSH2 0x3568 DUP8 PUSH1 0x1 DUP5 SUB PUSH2 0x2BC6 JUMP JUMPDEST PUSH1 0x40 MLOAD DUP1 PUSH1 0x40 ADD PUSH1 0x40 MSTORE SWAP1 DUP2 PUSH0 DUP3 ADD PUSH0 SWAP1 SLOAD SWAP1 PUSH2 0x100 EXP SWAP1 DIV PUSH4 0xFFFFFFFF AND PUSH4 0xFFFFFFFF AND PUSH4 0xFFFFFFFF AND DUP2 MSTORE PUSH1 0x20 ADD PUSH0 DUP3 ADD PUSH1 0x4 SWAP1 SLOAD SWAP1 PUSH2 0x100 EXP SWAP1 DIV PUSH28 0xFFFFFFFFFFFFFFFFFFFFFFFFFFFFFFFFFFFFFFFFFFFFFFFFFFFFFFFF AND PUSH28 0xFFFFFFFFFFFFFFFFFFFFFFFFFFFFFFFFFFFFFFFFFFFFFFFFFFFFFFFF AND PUSH28 0xFFFFFFFFFFFFFFFFFFFFFFFFFFFFFFFFFFFFFFFFFFFFFFFFFFFFFFFF AND DUP2 MSTORE POP POP PUSH2 0x3643 JUMP JUMPDEST PUSH1 0x40 MLOAD DUP1 PUSH1 0x40 ADD PUSH1 0x40 MSTORE DUP1 PUSH0 PUSH4 0xFFFFFFFF AND DUP2 MSTORE PUSH1 0x20 ADD PUSH0 PUSH28 0xFFFFFFFFFFFFFFFFFFFFFFFFFFFFFFFFFFFFFFFFFFFFFFFFFFFFFFFF AND DUP2 MSTORE POP JUMPDEST SWAP1 POP DUP1 PUSH1 0x20 ADD MLOAD PUSH28 0xFFFFFFFFFFFFFFFFFFFFFFFFFFFFFFFFFFFFFFFFFFFFFFFFFFFFFFFF AND SWAP4 POP PUSH2 0x3678 DUP5 DUP7 DUP9 PUSH4 0xFFFFFFFF AND JUMP JUMPDEST SWAP3 POP PUSH0 DUP3 GT DUP1 ISZERO PUSH2 0x36A0 JUMPI POP PUSH2 0x368C PUSH2 0x11D7 JUMP JUMPDEST PUSH6 0xFFFFFFFFFFFF AND DUP2 PUSH0 ADD MLOAD PUSH4 0xFFFFFFFF AND EQ JUMPDEST ISZERO PUSH2 0x3710 JUMPI PUSH2 0x36AE DUP4 PUSH2 0x387C JUMP JUMPDEST PUSH2 0x36BB DUP9 PUSH1 0x1 DUP6 SUB PUSH2 0x2BC6 JUMP JUMPDEST PUSH0 ADD PUSH1 0x4 PUSH2 0x100 EXP DUP2 SLOAD DUP2 PUSH28 0xFFFFFFFFFFFFFFFFFFFFFFFFFFFFFFFFFFFFFFFFFFFFFFFFFFFFFFFF MUL NOT AND SWAP1 DUP4 PUSH28 0xFFFFFFFFFFFFFFFFFFFFFFFFFFFFFFFFFFFFFFFFFFFFFFFFFFFFFFFF AND MUL OR SWAP1 SSTORE POP PUSH2 0x3808 JUMP JUMPDEST DUP7 PUSH1 0x40 MLOAD DUP1 PUSH1 0x40 ADD PUSH1 0x40 MSTORE DUP1 PUSH2 0x3734 PUSH2 0x3727 PUSH2 0x11D7 JUMP JUMPDEST PUSH6 0xFFFFFFFFFFFF AND PUSH2 0x2589 JUMP JUMPDEST PUSH4 0xFFFFFFFF AND DUP2 MSTORE PUSH1 0x20 ADD PUSH2 0x3748 DUP7 PUSH2 0x387C JUMP JUMPDEST PUSH28 0xFFFFFFFFFFFFFFFFFFFFFFFFFFFFFFFFFFFFFFFFFFFFFFFFFFFFFFFF AND DUP2 MSTORE POP SWAP1 DUP1 PUSH1 0x1 DUP2 SLOAD ADD DUP1 DUP3 SSTORE DUP1 SWAP2 POP POP PUSH1 0x1 SWAP1 SUB SWAP1 PUSH0 MSTORE PUSH1 0x20 PUSH0 KECCAK256 ADD PUSH0 SWAP1 SWAP2 SWAP1 SWAP2 SWAP1 SWAP2 POP PUSH0 DUP3 ADD MLOAD DUP2 PUSH0 ADD PUSH0 PUSH2 0x100 EXP DUP2 SLOAD DUP2 PUSH4 0xFFFFFFFF MUL NOT AND SWAP1 DUP4 PUSH4 0xFFFFFFFF AND MUL OR SWAP1 SSTORE POP PUSH1 0x20 DUP3 ADD MLOAD DUP2 PUSH0 ADD PUSH1 0x4 PUSH2 0x100 EXP DUP2 SLOAD DUP2 PUSH28 0xFFFFFFFFFFFFFFFFFFFFFFFFFFFFFFFFFFFFFFFFFFFFFFFFFFFFFFFF MUL NOT AND SWAP1 DUP4 PUSH28 0xFFFFFFFFFFFFFFFFFFFFFFFFFFFFFFFFFFFFFFFFFFFFFFFFFFFFFFFF AND MUL OR SWAP1 SSTORE POP POP POP JUMPDEST POP POP SWAP4 POP SWAP4 SWAP2 POP POP JUMP JUMPDEST PUSH1 0x60 PUSH2 0x3820 DUP5 DUP5 PUSH0 DUP6 PUSH2 0x38E6 JUMP JUMPDEST SWAP1 POP SWAP4 SWAP3 POP POP POP JUMP JUMPDEST PUSH0 PUSH0 PUSH1 0xFF DUP4 PUSH0 SHR AND SWAP1 POP PUSH1 0x1F DUP2 GT ISZERO PUSH2 0x386E JUMPI PUSH1 0x40 MLOAD PUSH32 0xB3512B0C00000000000000000000000000000000000000000000000000000000 DUP2 MSTORE PUSH1 0x4 ADD PUSH1 0x40 MLOAD DUP1 SWAP2 SUB SWAP1 REVERT JUMPDEST DUP1 SWAP2 POP POP SWAP2 SWAP1 POP JUMP JUMPDEST POP POP POP JUMP JUMPDEST PUSH0 PUSH28 0xFFFFFFFFFFFFFFFFFFFFFFFFFFFFFFFFFFFFFFFFFFFFFFFFFFFFFFFF DUP1 AND DUP3 GT ISZERO PUSH2 0x38DE JUMPI PUSH1 0x40 MLOAD PUSH32 0x8C379A000000000000000000000000000000000000000000000000000000000 DUP2 MSTORE PUSH1 0x4 ADD PUSH2 0x38D5 SWAP1 PUSH2 0x5A57 JUMP JUMPDEST PUSH1 0x40 MLOAD DUP1 SWAP2 SUB SWAP1 REVERT JUMPDEST DUP2 SWAP1 POP SWAP2 SWAP1 POP JUMP JUMPDEST PUSH1 0x60 DUP3 SELFBALANCE LT ISZERO PUSH2 0x392B JUMPI PUSH1 0x40 MLOAD PUSH32 0x8C379A000000000000000000000000000000000000000000000000000000000 DUP2 MSTORE PUSH1 0x4 ADD PUSH2 0x3922 SWAP1 PUSH2 0x5AE5 JUMP JUMPDEST PUSH1 0x40 MLOAD DUP1 SWAP2 SUB SWAP1 REVERT JUMPDEST PUSH0 PUSH0 DUP7 PUSH20 0xFFFFFFFFFFFFFFFFFFFFFFFFFFFFFFFFFFFFFFFF AND DUP6 DUP8 PUSH1 0x40 MLOAD PUSH2 0x3953 SWAP2 SWAP1 PUSH2 0x5B47 JUMP JUMPDEST PUSH0 PUSH1 0x40 MLOAD DUP1 DUP4 SUB DUP2 DUP6 DUP8 GAS CALL SWAP3 POP POP POP RETURNDATASIZE DUP1 PUSH0 DUP2 EQ PUSH2 0x398D JUMPI PUSH1 0x40 MLOAD SWAP2 POP PUSH1 0x1F NOT PUSH1 0x3F RETURNDATASIZE ADD AND DUP3 ADD PUSH1 0x40 MSTORE RETURNDATASIZE DUP3 MSTORE RETURNDATASIZE PUSH0 PUSH1 0x20 DUP5 ADD RETURNDATACOPY PUSH2 0x3992 JUMP JUMPDEST PUSH1 0x60 SWAP2 POP JUMPDEST POP SWAP2 POP SWAP2 POP PUSH2 0x39A3 DUP8 DUP4 DUP4 DUP8 PUSH2 0x39AF JUMP JUMPDEST SWAP3 POP POP POP SWAP5 SWAP4 POP POP POP POP JUMP JUMPDEST PUSH1 0x60 DUP4 ISZERO PUSH2 0x3A10 JUMPI PUSH0 DUP4 MLOAD SUB PUSH2 0x3A08 JUMPI PUSH2 0x39C8 DUP6 PUSH2 0x3A23 JUMP JUMPDEST PUSH2 0x3A07 JUMPI PUSH1 0x40 MLOAD PUSH32 0x8C379A000000000000000000000000000000000000000000000000000000000 DUP2 MSTORE PUSH1 0x4 ADD PUSH2 0x39FE SWAP1 PUSH2 0x5BA7 JUMP JUMPDEST PUSH1 0x40 MLOAD DUP1 SWAP2 SUB SWAP1 REVERT JUMPDEST JUMPDEST DUP3 SWAP1 POP PUSH2 0x3A1B JUMP JUMPDEST PUSH2 0x3A1A DUP4 DUP4 PUSH2 0x3A45 JUMP JUMPDEST JUMPDEST SWAP5 SWAP4 POP POP POP POP JUMP JUMPDEST PUSH0 PUSH0 DUP3 PUSH20 0xFFFFFFFFFFFFFFFFFFFFFFFFFFFFFFFFFFFFFFFF AND EXTCODESIZE GT SWAP1 POP SWAP2 SWAP1 POP JUMP JUMPDEST PUSH0 DUP3 MLOAD GT ISZERO PUSH2 0x3A57 JUMPI DUP2 MLOAD DUP1 DUP4 PUSH1 0x20 ADD REVERT JUMPDEST DUP1 PUSH1 0x40 MLOAD PUSH32 0x8C379A000000000000000000000000000000000000000000000000000000000 DUP2 MSTORE PUSH1 0x4 ADD PUSH2 0x3A8B SWAP2 SWAP1 PUSH2 0x3BFB JUMP JUMPDEST PUSH1 0x40 MLOAD DUP1 SWAP2 SUB SWAP1 REVERT JUMPDEST PUSH1 0x40 MLOAD DUP1 PUSH1 0x40 ADD PUSH1 0x40 MSTORE DUP1 PUSH0 PUSH4 0xFFFFFFFF AND DUP2 MSTORE PUSH1 0x20 ADD PUSH0 PUSH28 0xFFFFFFFFFFFFFFFFFFFFFFFFFFFFFFFFFFFFFFFFFFFFFFFFFFFFFFFF AND DUP2 MSTORE POP SWAP1 JUMP JUMPDEST PUSH0 PUSH1 0x40 MLOAD SWAP1 POP SWAP1 JUMP JUMPDEST PUSH0 PUSH0 REVERT JUMPDEST PUSH0 PUSH0 REVERT JUMPDEST PUSH0 DUP2 SWAP1 POP SWAP2 SWAP1 POP JUMP JUMPDEST PUSH2 0x3AF3 DUP2 PUSH2 0x3AE1 JUMP JUMPDEST DUP2 EQ PUSH2 0x3AFD JUMPI PUSH0 PUSH0 REVERT JUMPDEST POP JUMP JUMPDEST PUSH0 DUP2 CALLDATALOAD SWAP1 POP PUSH2 0x3B0E DUP2 PUSH2 0x3AEA JUMP JUMPDEST SWAP3 SWAP2 POP POP JUMP JUMPDEST PUSH0 PUSH0 PUSH0 PUSH0 PUSH0 PUSH1 0xA0 DUP7 DUP9 SUB SLT ISZERO PUSH2 0x3B2D JUMPI PUSH2 0x3B2C PUSH2 0x3AD9 JUMP JUMPDEST JUMPDEST PUSH0 PUSH2 0x3B3A DUP9 DUP3 DUP10 ADD PUSH2 0x3B00 JUMP JUMPDEST SWAP6 POP POP PUSH1 0x20 PUSH2 0x3B4B DUP9 DUP3 DUP10 ADD PUSH2 0x3B00 JUMP JUMPDEST SWAP5 POP POP PUSH1 0x40 PUSH2 0x3B5C DUP9 DUP3 DUP10 ADD PUSH2 0x3B00 JUMP JUMPDEST SWAP4 POP POP PUSH1 0x60 PUSH2 0x3B6D DUP9 DUP3 DUP10 ADD PUSH2 0x3B00 JUMP JUMPDEST SWAP3 POP POP PUSH1 0x80 PUSH2 0x3B7E DUP9 DUP3 DUP10 ADD PUSH2 0x3B00 JUMP JUMPDEST SWAP2 POP POP SWAP3 SWAP6 POP SWAP3 SWAP6 SWAP1 SWAP4 POP JUMP JUMPDEST PUSH0 DUP2 MLOAD SWAP1 POP SWAP2 SWAP1 POP JUMP JUMPDEST PUSH0 DUP3 DUP3 MSTORE PUSH1 0x20 DUP3 ADD SWAP1 POP SWAP3 SWAP2 POP POP JUMP JUMPDEST DUP3 DUP2 DUP4 MCOPY PUSH0 DUP4 DUP4 ADD MSTORE POP POP POP JUMP JUMPDEST PUSH0 PUSH1 0x1F NOT PUSH1 0x1F DUP4 ADD AND SWAP1 POP SWAP2 SWAP1 POP JUMP JUMPDEST PUSH0 PUSH2 0x3BCD DUP3 PUSH2 0x3B8B JUMP JUMPDEST PUSH2 0x3BD7 DUP2 DUP6 PUSH2 0x3B95 JUMP JUMPDEST SWAP4 POP PUSH2 0x3BE7 DUP2 DUP6 PUSH1 0x20 DUP7 ADD PUSH2 0x3BA5 JUMP JUMPDEST PUSH2 0x3BF0 DUP2 PUSH2 0x3BB3 JUMP JUMPDEST DUP5 ADD SWAP2 POP POP SWAP3 SWAP2 POP POP JUMP JUMPDEST PUSH0 PUSH1 0x20 DUP3 ADD SWAP1 POP DUP2 DUP2 SUB PUSH0 DUP4 ADD MSTORE PUSH2 0x3C13 DUP2 DUP5 PUSH2 0x3BC3 JUMP JUMPDEST SWAP1 POP SWAP3 SWAP2 POP POP JUMP JUMPDEST PUSH0 PUSH20 0xFFFFFFFFFFFFFFFFFFFFFFFFFFFFFFFFFFFFFFFF DUP3 AND SWAP1 POP SWAP2 SWAP1 POP JUMP JUMPDEST PUSH0 PUSH2 0x3C44 DUP3 PUSH2 0x3C1B JUMP JUMPDEST SWAP1 POP SWAP2 SWAP1 POP JUMP JUMPDEST PUSH2 0x3C54 DUP2 PUSH2 0x3C3A JUMP JUMPDEST DUP2 EQ PUSH2 0x3C5E JUMPI PUSH0 PUSH0 REVERT JUMPDEST POP JUMP JUMPDEST PUSH0 DUP2 CALLDATALOAD SWAP1 POP PUSH2 0x3C6F DUP2 PUSH2 0x3C4B JUMP JUMPDEST SWAP3 SWAP2 POP POP JUMP JUMPDEST PUSH0 PUSH0 PUSH1 0x40 DUP4 DUP6 SUB SLT ISZERO PUSH2 0x3C8B JUMPI PUSH2 0x3C8A PUSH2 0x3AD9 JUMP JUMPDEST JUMPDEST PUSH0 PUSH2 0x3C98 DUP6 DUP3 DUP7 ADD PUSH2 0x3C61 JUMP JUMPDEST SWAP3 POP POP PUSH1 0x20 PUSH2 0x3CA9 DUP6 DUP3 DUP7 ADD PUSH2 0x3B00 JUMP JUMPDEST SWAP2 POP POP SWAP3 POP SWAP3 SWAP1 POP JUMP JUMPDEST PUSH0 DUP2 ISZERO ISZERO SWAP1 POP SWAP2 SWAP1 POP JUMP JUMPDEST PUSH2 0x3CC7 DUP2 PUSH2 0x3CB3 JUMP JUMPDEST DUP3 MSTORE POP POP JUMP JUMPDEST PUSH0 PUSH1 0x20 DUP3 ADD SWAP1 POP PUSH2 0x3CE0 PUSH0 DUP4 ADD DUP5 PUSH2 0x3CBE JUMP JUMPDEST SWAP3 SWAP2 POP POP JUMP JUMPDEST PUSH2 0x3CEF DUP2 PUSH2 0x3AE1 JUMP JUMPDEST DUP3 MSTORE POP POP JUMP JUMPDEST PUSH0 PUSH1 0x20 DUP3 ADD SWAP1 POP PUSH2 0x3D08 PUSH0 DUP4 ADD DUP5 PUSH2 0x3CE6 JUMP JUMPDEST SWAP3 SWAP2 POP POP JUMP JUMPDEST PUSH0 PUSH0 PUSH0 PUSH1 0x60 DUP5 DUP7 SUB SLT ISZERO PUSH2 0x3D25 JUMPI PUSH2 0x3D24 PUSH2 0x3AD9 JUMP JUMPDEST JUMPDEST PUSH0 PUSH2 0x3D32 DUP7 DUP3 DUP8 ADD PUSH2 0x3C61 JUMP JUMPDEST SWAP4 POP POP PUSH1 0x20 PUSH2 0x3D43 DUP7 DUP3 DUP8 ADD PUSH2 0x3C61 JUMP JUMPDEST SWAP3 POP POP PUSH1 0x40 PUSH2 0x3D54 DUP7 DUP3 DUP8 ADD PUSH2 0x3B00 JUMP JUMPDEST SWAP2 POP POP SWAP3 POP SWAP3 POP SWAP3 JUMP JUMPDEST PUSH0 PUSH1 0xFF DUP3 AND SWAP1 POP SWAP2 SWAP1 POP JUMP JUMPDEST PUSH2 0x3D73 DUP2 PUSH2 0x3D5E JUMP JUMPDEST DUP3 MSTORE POP POP JUMP JUMPDEST PUSH0 PUSH1 0x20 DUP3 ADD SWAP1 POP PUSH2 0x3D8C PUSH0 DUP4 ADD DUP5 PUSH2 0x3D6A JUMP JUMPDEST SWAP3 SWAP2 POP POP JUMP JUMPDEST PUSH0 DUP2 SWAP1 POP SWAP2 SWAP1 POP JUMP JUMPDEST PUSH2 0x3DA4 DUP2 PUSH2 0x3D92 JUMP JUMPDEST DUP3 MSTORE POP POP JUMP JUMPDEST PUSH0 PUSH1 0x20 DUP3 ADD SWAP1 POP PUSH2 0x3DBD PUSH0 DUP4 ADD DUP5 PUSH2 0x3D9B JUMP JUMPDEST SWAP3 SWAP2 POP POP JUMP JUMPDEST PUSH0 PUSH1 0x20 DUP3 DUP5 SUB SLT ISZERO PUSH2 0x3DD8 JUMPI PUSH2 0x3DD7 PUSH2 0x3AD9 JUMP JUMPDEST JUMPDEST PUSH0 PUSH2 0x3DE5 DUP5 DUP3 DUP6 ADD PUSH2 0x3B00 JUMP JUMPDEST SWAP2 POP POP SWAP3 SWAP2 POP POP JUMP JUMPDEST PUSH0 PUSH1 0x20 DUP3 DUP5 SUB SLT ISZERO PUSH2 0x3E03 JUMPI PUSH2 0x3E02 PUSH2 0x3AD9 JUMP JUMPDEST JUMPDEST PUSH0 PUSH2 0x3E10 DUP5 DUP3 DUP6 ADD PUSH2 0x3C61 JUMP JUMPDEST SWAP2 POP POP SWAP3 SWAP2 POP POP JUMP JUMPDEST PUSH2 0x3E22 DUP2 PUSH2 0x3C3A JUMP JUMPDEST DUP3 MSTORE POP POP JUMP JUMPDEST PUSH0 PUSH1 0x20 DUP3 ADD SWAP1 POP PUSH2 0x3E3B PUSH0 DUP4 ADD DUP5 PUSH2 0x3E19 JUMP JUMPDEST SWAP3 SWAP2 POP POP JUMP JUMPDEST PUSH0 PUSH4 0xFFFFFFFF DUP3 AND SWAP1 POP SWAP2 SWAP1 POP JUMP JUMPDEST PUSH2 0x3E59 DUP2 PUSH2 0x3E41 JUMP JUMPDEST DUP3 MSTORE POP POP JUMP JUMPDEST PUSH0 PUSH1 0x20 DUP3 ADD SWAP1 POP PUSH2 0x3E72 PUSH0 DUP4 ADD DUP5 PUSH2 0x3E50 JUMP JUMPDEST SWAP3 SWAP2 POP POP JUMP JUMPDEST PUSH0 PUSH32 0xFF00000000000000000000000000000000000000000000000000000000000000 DUP3 AND SWAP1 POP SWAP2 SWAP1 POP JUMP JUMPDEST PUSH2 0x3EAC DUP2 PUSH2 0x3E78 JUMP JUMPDEST DUP3 MSTORE POP POP JUMP JUMPDEST PUSH0 DUP2 MLOAD SWAP1 POP SWAP2 SWAP1 POP JUMP JUMPDEST PUSH0 DUP3 DUP3 MSTORE PUSH1 0x20 DUP3 ADD SWAP1 POP SWAP3 SWAP2 POP POP JUMP JUMPDEST PUSH0 DUP2 SWAP1 POP PUSH1 0x20 DUP3 ADD SWAP1 POP SWAP2 SWAP1 POP JUMP JUMPDEST PUSH2 0x3EE4 DUP2 PUSH2 0x3AE1 JUMP JUMPDEST DUP3 MSTORE POP POP JUMP JUMPDEST PUSH0 PUSH2 0x3EF5 DUP4 DUP4 PUSH2 0x3EDB JUMP JUMPDEST PUSH1 0x20 DUP4 ADD SWAP1 POP SWAP3 SWAP2 POP POP JUMP JUMPDEST PUSH0 PUSH1 0x20 DUP3 ADD SWAP1 POP SWAP2 SWAP1 POP JUMP JUMPDEST PUSH0 PUSH2 0x3F17 DUP3 PUSH2 0x3EB2 JUMP JUMPDEST PUSH2 0x3F21 DUP2 DUP6 PUSH2 0x3EBC JUMP JUMPDEST SWAP4 POP PUSH2 0x3F2C DUP4 PUSH2 0x3ECC JUMP JUMPDEST DUP1 PUSH0 JUMPDEST DUP4 DUP2 LT ISZERO PUSH2 0x3F5C JUMPI DUP2 MLOAD PUSH2 0x3F43 DUP9 DUP3 PUSH2 0x3EEA JUMP JUMPDEST SWAP8 POP PUSH2 0x3F4E DUP4 PUSH2 0x3F01 JUMP JUMPDEST SWAP3 POP POP PUSH1 0x1 DUP2 ADD SWAP1 POP PUSH2 0x3F2F JUMP JUMPDEST POP DUP6 SWAP4 POP POP POP POP SWAP3 SWAP2 POP POP JUMP JUMPDEST PUSH0 PUSH1 0xE0 DUP3 ADD SWAP1 POP PUSH2 0x3F7C PUSH0 DUP4 ADD DUP11 PUSH2 0x3EA3 JUMP JUMPDEST DUP2 DUP2 SUB PUSH1 0x20 DUP4 ADD MSTORE PUSH2 0x3F8E DUP2 DUP10 PUSH2 0x3BC3 JUMP JUMPDEST SWAP1 POP DUP2 DUP2 SUB PUSH1 0x40 DUP4 ADD MSTORE PUSH2 0x3FA2 DUP2 DUP9 PUSH2 0x3BC3 JUMP JUMPDEST SWAP1 POP PUSH2 0x3FB1 PUSH1 0x60 DUP4 ADD DUP8 PUSH2 0x3CE6 JUMP JUMPDEST PUSH2 0x3FBE PUSH1 0x80 DUP4 ADD DUP7 PUSH2 0x3E19 JUMP JUMPDEST PUSH2 0x3FCB PUSH1 0xA0 DUP4 ADD DUP6 PUSH2 0x3D9B JUMP JUMPDEST DUP2 DUP2 SUB PUSH1 0xC0 DUP4 ADD MSTORE PUSH2 0x3FDD DUP2 DUP5 PUSH2 0x3F0D JUMP JUMPDEST SWAP1 POP SWAP9 SWAP8 POP POP POP POP POP POP POP POP JUMP JUMPDEST PUSH0 PUSH6 0xFFFFFFFFFFFF DUP3 AND SWAP1 POP SWAP2 SWAP1 POP JUMP JUMPDEST PUSH2 0x4005 DUP2 PUSH2 0x3FEB JUMP JUMPDEST DUP3 MSTORE POP POP JUMP JUMPDEST PUSH0 PUSH1 0x20 DUP3 ADD SWAP1 POP PUSH2 0x401E PUSH0 DUP4 ADD DUP5 PUSH2 0x3FFC JUMP JUMPDEST SWAP3 SWAP2 POP POP JUMP JUMPDEST PUSH2 0x402D DUP2 PUSH2 0x3D5E JUMP JUMPDEST DUP2 EQ PUSH2 0x4037 JUMPI PUSH0 PUSH0 REVERT JUMPDEST POP JUMP JUMPDEST PUSH0 DUP2 CALLDATALOAD SWAP1 POP PUSH2 0x4048 DUP2 PUSH2 0x4024 JUMP JUMPDEST SWAP3 SWAP2 POP POP JUMP JUMPDEST PUSH2 0x4057 DUP2 PUSH2 0x3D92 JUMP JUMPDEST DUP2 EQ PUSH2 0x4061 JUMPI PUSH0 PUSH0 REVERT JUMPDEST POP JUMP JUMPDEST PUSH0 DUP2 CALLDATALOAD SWAP1 POP PUSH2 0x4072 DUP2 PUSH2 0x404E JUMP JUMPDEST SWAP3 SWAP2 POP POP JUMP JUMPDEST PUSH0 PUSH0 PUSH0 PUSH0 PUSH0 PUSH0 PUSH1 0xC0 DUP8 DUP10 SUB SLT ISZERO PUSH2 0x4092 JUMPI PUSH2 0x4091 PUSH2 0x3AD9 JUMP JUMPDEST JUMPDEST PUSH0 PUSH2 0x409F DUP10 DUP3 DUP11 ADD PUSH2 0x3C61 JUMP JUMPDEST SWAP7 POP POP PUSH1 0x20 PUSH2 0x40B0 DUP10 DUP3 DUP11 ADD PUSH2 0x3B00 JUMP JUMPDEST SWAP6 POP POP PUSH1 0x40 PUSH2 0x40C1 DUP10 DUP3 DUP11 ADD PUSH2 0x3B00 JUMP JUMPDEST SWAP5 POP POP PUSH1 0x60 PUSH2 0x40D2 DUP10 DUP3 DUP11 ADD PUSH2 0x403A JUMP JUMPDEST SWAP4 POP POP PUSH1 0x80 PUSH2 0x40E3 DUP10 DUP3 DUP11 ADD PUSH2 0x4064 JUMP JUMPDEST SWAP3 POP POP PUSH1 0xA0 PUSH2 0x40F4 DUP10 DUP3 DUP11 ADD PUSH2 0x4064 JUMP JUMPDEST SWAP2 POP POP SWAP3 SWAP6 POP SWAP3 SWAP6 POP SWAP3 SWAP6 JUMP JUMPDEST PUSH0 PUSH0 PUSH0 PUSH0 PUSH0 PUSH0 PUSH0 PUSH1 0xE0 DUP9 DUP11 SUB SLT ISZERO PUSH2 0x411C JUMPI PUSH2 0x411B PUSH2 0x3AD9 JUMP JUMPDEST JUMPDEST PUSH0 PUSH2 0x4129 DUP11 DUP3 DUP12 ADD PUSH2 0x3C61 JUMP JUMPDEST SWAP8 POP POP PUSH1 0x20 PUSH2 0x413A DUP11 DUP3 DUP12 ADD PUSH2 0x3C61 JUMP JUMPDEST SWAP7 POP POP PUSH1 0x40 PUSH2 0x414B DUP11 DUP3 DUP12 ADD PUSH2 0x3B00 JUMP JUMPDEST SWAP6 POP POP PUSH1 0x60 PUSH2 0x415C DUP11 DUP3 DUP12 ADD PUSH2 0x3B00 JUMP JUMPDEST SWAP5 POP POP PUSH1 0x80 PUSH2 0x416D DUP11 DUP3 DUP12 ADD PUSH2 0x403A JUMP JUMPDEST SWAP4 POP POP PUSH1 0xA0 PUSH2 0x417E DUP11 DUP3 DUP12 ADD PUSH2 0x4064 JUMP JUMPDEST SWAP3 POP POP PUSH1 0xC0 PUSH2 0x418F DUP11 DUP3 DUP12 ADD PUSH2 0x4064 JUMP JUMPDEST SWAP2 POP POP SWAP3 SWAP6 SWAP9 SWAP2 SWAP5 SWAP8 POP SWAP3 SWAP6 POP JUMP JUMPDEST PUSH0 PUSH0 PUSH1 0x40 DUP4 DUP6 SUB SLT ISZERO PUSH2 0x41B4 JUMPI PUSH2 0x41B3 PUSH2 0x3AD9 JUMP JUMPDEST JUMPDEST PUSH0 PUSH2 0x41C1 DUP6 DUP3 DUP7 ADD PUSH2 0x3C61 JUMP JUMPDEST SWAP3 POP POP PUSH1 0x20 PUSH2 0x41D2 DUP6 DUP3 DUP7 ADD PUSH2 0x3C61 JUMP JUMPDEST SWAP2 POP POP SWAP3 POP SWAP3 SWAP1 POP JUMP JUMPDEST PUSH2 0x41E5 DUP2 PUSH2 0x3E41 JUMP JUMPDEST DUP2 EQ PUSH2 0x41EF JUMPI PUSH0 PUSH0 REVERT JUMPDEST POP JUMP JUMPDEST PUSH0 DUP2 CALLDATALOAD SWAP1 POP PUSH2 0x4200 DUP2 PUSH2 0x41DC JUMP JUMPDEST SWAP3 SWAP2 POP POP JUMP JUMPDEST PUSH0 PUSH0 PUSH1 0x40 DUP4 DUP6 SUB SLT ISZERO PUSH2 0x421C JUMPI PUSH2 0x421B PUSH2 0x3AD9 JUMP JUMPDEST JUMPDEST PUSH0 PUSH2 0x4229 DUP6 DUP3 DUP7 ADD PUSH2 0x3C61 JUMP JUMPDEST SWAP3 POP POP PUSH1 0x20 PUSH2 0x423A DUP6 DUP3 DUP7 ADD PUSH2 0x41F2 JUMP JUMPDEST SWAP2 POP POP SWAP3 POP SWAP3 SWAP1 POP JUMP JUMPDEST PUSH2 0x424D DUP2 PUSH2 0x3E41 JUMP JUMPDEST DUP3 MSTORE POP POP JUMP JUMPDEST PUSH0 PUSH28 0xFFFFFFFFFFFFFFFFFFFFFFFFFFFFFFFFFFFFFFFFFFFFFFFFFFFFFFFF DUP3 AND SWAP1 POP SWAP2 SWAP1 POP JUMP JUMPDEST PUSH2 0x4283 DUP2 PUSH2 0x4253 JUMP JUMPDEST DUP3 MSTORE POP POP JUMP JUMPDEST PUSH1 0x40 DUP3 ADD PUSH0 DUP3 ADD MLOAD PUSH2 0x429D PUSH0 DUP6 ADD DUP3 PUSH2 0x4244 JUMP JUMPDEST POP PUSH1 0x20 DUP3 ADD MLOAD PUSH2 0x42B0 PUSH1 0x20 DUP6 ADD DUP3 PUSH2 0x427A JUMP JUMPDEST POP POP POP POP JUMP JUMPDEST PUSH0 PUSH1 0x40 DUP3 ADD SWAP1 POP PUSH2 0x42C9 PUSH0 DUP4 ADD DUP5 PUSH2 0x4289 JUMP JUMPDEST SWAP3 SWAP2 POP POP JUMP JUMPDEST PUSH0 PUSH0 PUSH0 PUSH0 PUSH0 PUSH1 0xA0 DUP7 DUP9 SUB SLT ISZERO PUSH2 0x42E8 JUMPI PUSH2 0x42E7 PUSH2 0x3AD9 JUMP JUMPDEST JUMPDEST PUSH0 PUSH2 0x42F5 DUP9 DUP3 DUP10 ADD PUSH2 0x3C61 JUMP JUMPDEST SWAP6 POP POP PUSH1 0x20 PUSH2 0x4306 DUP9 DUP3 DUP10 ADD PUSH2 0x3C61 JUMP JUMPDEST SWAP5 POP POP PUSH1 0x40 PUSH2 0x4317 DUP9 DUP3 DUP10 ADD PUSH2 0x3B00 JUMP JUMPDEST SWAP4 POP POP PUSH1 0x60 PUSH2 0x4328 DUP9 DUP3 DUP10 ADD PUSH2 0x3B00 JUMP JUMPDEST SWAP3 POP POP PUSH1 0x80 PUSH2 0x4339 DUP9 DUP3 DUP10 ADD PUSH2 0x3C61 JUMP JUMPDEST SWAP2 POP POP SWAP3 SWAP6 POP SWAP3 SWAP6 SWAP1 SWAP4 POP JUMP JUMPDEST PUSH32 0x4F6E6C79206F776E657200000000000000000000000000000000000000000000 PUSH0 DUP3 ADD MSTORE POP JUMP JUMPDEST PUSH0 PUSH2 0x437A PUSH1 0xA DUP4 PUSH2 0x3B95 JUMP JUMPDEST SWAP2 POP PUSH2 0x4385 DUP3 PUSH2 0x4346 JUMP JUMPDEST PUSH1 0x20 DUP3 ADD SWAP1 POP SWAP2 SWAP1 POP JUMP JUMPDEST PUSH0 PUSH1 0x20 DUP3 ADD SWAP1 POP DUP2 DUP2 SUB PUSH0 DUP4 ADD MSTORE PUSH2 0x43A7 DUP2 PUSH2 0x436E JUMP JUMPDEST SWAP1 POP SWAP2 SWAP1 POP JUMP JUMPDEST PUSH32 0x4E487B7100000000000000000000000000000000000000000000000000000000 PUSH0 MSTORE PUSH1 0x11 PUSH1 0x4 MSTORE PUSH1 0x24 PUSH0 REVERT JUMPDEST PUSH0 PUSH2 0x43E5 DUP3 PUSH2 0x3AE1 JUMP JUMPDEST SWAP2 POP PUSH2 0x43F0 DUP4 PUSH2 0x3AE1 JUMP JUMPDEST SWAP3 POP DUP3 DUP3 ADD SWAP1 POP DUP1 DUP3 GT ISZERO PUSH2 0x4408 JUMPI PUSH2 0x4407 PUSH2 0x43AE JUMP JUMPDEST JUMPDEST SWAP3 SWAP2 POP POP JUMP JUMPDEST PUSH32 0x546F74616C2066656573206D757374206265203C3D2031303025000000000000 PUSH0 DUP3 ADD MSTORE POP JUMP JUMPDEST PUSH0 PUSH2 0x4442 PUSH1 0x1A DUP4 PUSH2 0x3B95 JUMP JUMPDEST SWAP2 POP PUSH2 0x444D DUP3 PUSH2 0x440E JUMP JUMPDEST PUSH1 0x20 DUP3 ADD SWAP1 POP SWAP2 SWAP1 POP JUMP JUMPDEST PUSH0 PUSH1 0x20 DUP3 ADD SWAP1 POP DUP2 DUP2 SUB PUSH0 DUP4 ADD MSTORE PUSH2 0x446F DUP2 PUSH2 0x4436 JUMP JUMPDEST SWAP1 POP SWAP2 SWAP1 POP JUMP JUMPDEST PUSH32 0x4E487B7100000000000000000000000000000000000000000000000000000000 PUSH0 MSTORE PUSH1 0x22 PUSH1 0x4 MSTORE PUSH1 0x24 PUSH0 REVERT JUMPDEST PUSH0 PUSH1 0x2 DUP3 DIV SWAP1 POP PUSH1 0x1 DUP3 AND DUP1 PUSH2 0x44BA JUMPI PUSH1 0x7F DUP3 AND SWAP2 POP JUMPDEST PUSH1 0x20 DUP3 LT DUP2 SUB PUSH2 0x44CD JUMPI PUSH2 0x44CC PUSH2 0x4476 JUMP JUMPDEST JUMPDEST POP SWAP2 SWAP1 POP JUMP JUMPDEST PUSH32 0x4552433230566F7465733A20667574757265206C6F6F6B757000000000000000 PUSH0 DUP3 ADD MSTORE POP JUMP JUMPDEST PUSH0 PUSH2 0x4507 PUSH1 0x19 DUP4 PUSH2 0x3B95 JUMP JUMPDEST SWAP2 POP PUSH2 0x4512 DUP3 PUSH2 0x44D3 JUMP JUMPDEST PUSH1 0x20 DUP3 ADD SWAP1 POP SWAP2 SWAP1 POP JUMP JUMPDEST PUSH0 PUSH1 0x20 DUP3 ADD SWAP1 POP DUP2 DUP2 SUB PUSH0 DUP4 ADD MSTORE PUSH2 0x4534 DUP2 PUSH2 0x44FB JUMP JUMPDEST SWAP1 POP SWAP2 SWAP1 POP JUMP JUMPDEST PUSH0 PUSH2 0x4545 DUP3 PUSH2 0x3AE1 JUMP JUMPDEST SWAP2 POP PUSH2 0x4550 DUP4 PUSH2 0x3AE1 JUMP JUMPDEST SWAP3 POP DUP3 DUP3 SUB SWAP1 POP DUP2 DUP2 GT ISZERO PUSH2 0x4568 JUMPI PUSH2 0x4567 PUSH2 0x43AE JUMP JUMPDEST JUMPDEST SWAP3 SWAP2 POP POP JUMP JUMPDEST PUSH32 0x4275726E2073746F707065643A206D696E696D756D20737570706C7920726561 PUSH0 DUP3 ADD MSTORE PUSH32 0x6368656400000000000000000000000000000000000000000000000000000000 PUSH1 0x20 DUP3 ADD MSTORE POP JUMP JUMPDEST PUSH0 PUSH2 0x45C8 PUSH1 0x24 DUP4 PUSH2 0x3B95 JUMP JUMPDEST SWAP2 POP PUSH2 0x45D3 DUP3 PUSH2 0x456E JUMP JUMPDEST PUSH1 0x40 DUP3 ADD SWAP1 POP SWAP2 SWAP1 POP JUMP JUMPDEST PUSH0 PUSH1 0x20 DUP3 ADD SWAP1 POP DUP2 DUP2 SUB PUSH0 DUP4 ADD MSTORE PUSH2 0x45F5 DUP2 PUSH2 0x45BC JUMP JUMPDEST SWAP1 POP SWAP2 SWAP1 POP JUMP JUMPDEST PUSH32 0x4552433230566F7465733A2062726F6B656E20636C6F636B206D6F6465000000 PUSH0 DUP3 ADD MSTORE POP JUMP JUMPDEST PUSH0 PUSH2 0x4630 PUSH1 0x1D DUP4 PUSH2 0x3B95 JUMP JUMPDEST SWAP2 POP PUSH2 0x463B DUP3 PUSH2 0x45FC JUMP JUMPDEST PUSH1 0x20 DUP3 ADD SWAP1 POP SWAP2 SWAP1 POP JUMP JUMPDEST PUSH0 PUSH1 0x20 DUP3 ADD SWAP1 POP DUP2 DUP2 SUB PUSH0 DUP4 ADD MSTORE PUSH2 0x465D DUP2 PUSH2 0x4624 JUMP JUMPDEST SWAP1 POP SWAP2 SWAP1 POP JUMP JUMPDEST PUSH32 0x4E6F7420656E6F75676820746F6B656E73000000000000000000000000000000 PUSH0 DUP3 ADD MSTORE POP JUMP JUMPDEST PUSH0 PUSH2 0x4698 PUSH1 0x11 DUP4 PUSH2 0x3B95 JUMP JUMPDEST SWAP2 POP PUSH2 0x46A3 DUP3 PUSH2 0x4664 JUMP JUMPDEST PUSH1 0x20 DUP3 ADD SWAP1 POP SWAP2 SWAP1 POP JUMP JUMPDEST PUSH0 PUSH1 0x20 DUP3 ADD SWAP1 POP DUP2 DUP2 SUB PUSH0 DUP4 ADD MSTORE PUSH2 0x46C5 DUP2 PUSH2 0x468C JUMP JUMPDEST SWAP1 POP SWAP2 SWAP1 POP JUMP JUMPDEST PUSH0 PUSH2 0x46D6 DUP3 PUSH2 0x3AE1 JUMP JUMPDEST SWAP2 POP PUSH2 0x46E1 DUP4 PUSH2 0x3AE1 JUMP JUMPDEST SWAP3 POP DUP3 DUP3 MUL PUSH2 0x46EF DUP2 PUSH2 0x3AE1 JUMP JUMPDEST SWAP2 POP DUP3 DUP3 DIV DUP5 EQ DUP4 ISZERO OR PUSH2 0x4706 JUMPI PUSH2 0x4705 PUSH2 0x43AE JUMP JUMPDEST JUMPDEST POP SWAP3 SWAP2 POP POP JUMP JUMPDEST PUSH32 0x4E487B7100000000000000000000000000000000000000000000000000000000 PUSH0 MSTORE PUSH1 0x12 PUSH1 0x4 MSTORE PUSH1 0x24 PUSH0 REVERT JUMPDEST PUSH0 PUSH2 0x4744 DUP3 PUSH2 0x3AE1 JUMP JUMPDEST SWAP2 POP PUSH2 0x474F DUP4 PUSH2 0x3AE1 JUMP JUMPDEST SWAP3 POP DUP3 PUSH2 0x475F JUMPI PUSH2 0x475E PUSH2 0x470D JUMP JUMPDEST JUMPDEST DUP3 DUP3 DIV SWAP1 POP SWAP3 SWAP2 POP POP JUMP JUMPDEST PUSH32 0x4E487B7100000000000000000000000000000000000000000000000000000000 PUSH0 MSTORE PUSH1 0x41 PUSH1 0x4 MSTORE PUSH1 0x24 PUSH0 REVERT JUMPDEST PUSH32 0x4E487B7100000000000000000000000000000000000000000000000000000000 PUSH0 MSTORE PUSH1 0x32 PUSH1 0x4 MSTORE PUSH1 0x24 PUSH0 REVERT JUMPDEST PUSH32 0x45524332303A2064656372656173656420616C6C6F77616E63652062656C6F77 PUSH0 DUP3 ADD MSTORE PUSH32 0x207A65726F000000000000000000000000000000000000000000000000000000 PUSH1 0x20 DUP3 ADD MSTORE POP JUMP JUMPDEST PUSH0 PUSH2 0x481E PUSH1 0x25 DUP4 PUSH2 0x3B95 JUMP JUMPDEST SWAP2 POP PUSH2 0x4829 DUP3 PUSH2 0x47C4 JUMP JUMPDEST PUSH1 0x40 DUP3 ADD SWAP1 POP SWAP2 SWAP1 POP JUMP JUMPDEST PUSH0 PUSH1 0x20 DUP3 ADD SWAP1 POP DUP2 DUP2 SUB PUSH0 DUP4 ADD MSTORE PUSH2 0x484B DUP2 PUSH2 0x4812 JUMP JUMPDEST SWAP1 POP SWAP2 SWAP1 POP JUMP JUMPDEST PUSH32 0x4552433230566F7465733A207369676E61747572652065787069726564000000 PUSH0 DUP3 ADD MSTORE POP JUMP JUMPDEST PUSH0 PUSH2 0x4886 PUSH1 0x1D DUP4 PUSH2 0x3B95 JUMP JUMPDEST SWAP2 POP PUSH2 0x4891 DUP3 PUSH2 0x4852 JUMP JUMPDEST PUSH1 0x20 DUP3 ADD SWAP1 POP SWAP2 SWAP1 POP JUMP JUMPDEST PUSH0 PUSH1 0x20 DUP3 ADD SWAP1 POP DUP2 DUP2 SUB PUSH0 DUP4 ADD MSTORE PUSH2 0x48B3 DUP2 PUSH2 0x487A JUMP JUMPDEST SWAP1 POP SWAP2 SWAP1 POP JUMP JUMPDEST PUSH0 PUSH1 0x80 DUP3 ADD SWAP1 POP PUSH2 0x48CD PUSH0 DUP4 ADD DUP8 PUSH2 0x3D9B JUMP JUMPDEST PUSH2 0x48DA PUSH1 0x20 DUP4 ADD DUP7 PUSH2 0x3E19 JUMP JUMPDEST PUSH2 0x48E7 PUSH1 0x40 DUP4 ADD DUP6 PUSH2 0x3CE6 JUMP JUMPDEST PUSH2 0x48F4 PUSH1 0x60 DUP4 ADD DUP5 PUSH2 0x3CE6 JUMP JUMPDEST SWAP6 SWAP5 POP POP POP POP POP JUMP JUMPDEST PUSH32 0x4552433230566F7465733A20696E76616C6964206E6F6E636500000000000000 PUSH0 DUP3 ADD MSTORE POP JUMP JUMPDEST PUSH0 PUSH2 0x4931 PUSH1 0x19 DUP4 PUSH2 0x3B95 JUMP JUMPDEST SWAP2 POP PUSH2 0x493C DUP3 PUSH2 0x48FD JUMP JUMPDEST PUSH1 0x20 DUP3 ADD SWAP1 POP SWAP2 SWAP1 POP JUMP JUMPDEST PUSH0 PUSH1 0x20 DUP3 ADD SWAP1 POP DUP2 DUP2 SUB PUSH0 DUP4 ADD MSTORE PUSH2 0x495E DUP2 PUSH2 0x4925 JUMP JUMPDEST SWAP1 POP SWAP2 SWAP1 POP JUMP JUMPDEST PUSH32 0x45524332305065726D69743A206578706972656420646561646C696E65000000 PUSH0 DUP3 ADD MSTORE POP JUMP JUMPDEST PUSH0 PUSH2 0x4999 PUSH1 0x1D DUP4 PUSH2 0x3B95 JUMP JUMPDEST SWAP2 POP PUSH2 0x49A4 DUP3 PUSH2 0x4965 JUMP JUMPDEST PUSH1 0x20 DUP3 ADD SWAP1 POP SWAP2 SWAP1 POP JUMP JUMPDEST PUSH0 PUSH1 0x20 DUP3 ADD SWAP1 POP DUP2 DUP2 SUB PUSH0 DUP4 ADD MSTORE PUSH2 0x49C6 DUP2 PUSH2 0x498D JUMP JUMPDEST SWAP1 POP SWAP2 SWAP1 POP JUMP JUMPDEST PUSH0 PUSH1 0xC0 DUP3 ADD SWAP1 POP PUSH2 0x49E0 PUSH0 DUP4 ADD DUP10 PUSH2 0x3D9B JUMP JUMPDEST PUSH2 0x49ED PUSH1 0x20 DUP4 ADD DUP9 PUSH2 0x3E19 JUMP JUMPDEST PUSH2 0x49FA PUSH1 0x40 DUP4 ADD DUP8 PUSH2 0x3E19 JUMP JUMPDEST PUSH2 0x4A07 PUSH1 0x60 DUP4 ADD DUP7 PUSH2 0x3CE6 JUMP JUMPDEST PUSH2 0x4A14 PUSH1 0x80 DUP4 ADD DUP6 PUSH2 0x3CE6 JUMP JUMPDEST PUSH2 0x4A21 PUSH1 0xA0 DUP4 ADD DUP5 PUSH2 0x3CE6 JUMP JUMPDEST SWAP8 SWAP7 POP POP POP POP POP POP POP JUMP JUMPDEST PUSH32 0x45524332305065726D69743A20696E76616C6964207369676E61747572650000 PUSH0 DUP3 ADD MSTORE POP JUMP JUMPDEST PUSH0 PUSH2 0x4A60 PUSH1 0x1E DUP4 PUSH2 0x3B95 JUMP JUMPDEST SWAP2 POP PUSH2 0x4A6B DUP3 PUSH2 0x4A2C JUMP JUMPDEST PUSH1 0x20 DUP3 ADD SWAP1 POP SWAP2 SWAP1 POP JUMP JUMPDEST PUSH0 PUSH1 0x20 DUP3 ADD SWAP1 POP DUP2 DUP2 SUB PUSH0 DUP4 ADD MSTORE PUSH2 0x4A8D DUP2 PUSH2 0x4A54 JUMP JUMPDEST SWAP1 POP SWAP2 SWAP1 POP JUMP JUMPDEST PUSH32 0x4F776E61626C653A206E6577206F776E657220697320746865207A65726F2061 PUSH0 DUP3 ADD MSTORE PUSH32 0x6464726573730000000000000000000000000000000000000000000000000000 PUSH1 0x20 DUP3 ADD MSTORE POP JUMP JUMPDEST PUSH0 PUSH2 0x4AEE PUSH1 0x26 DUP4 PUSH2 0x3B95 JUMP JUMPDEST SWAP2 POP PUSH2 0x4AF9 DUP3 PUSH2 0x4A94 JUMP JUMPDEST PUSH1 0x40 DUP3 ADD SWAP1 POP SWAP2 SWAP1 POP JUMP JUMPDEST PUSH0 PUSH1 0x20 DUP3 ADD SWAP1 POP DUP2 DUP2 SUB PUSH0 DUP4 ADD MSTORE PUSH2 0x4B1B DUP2 PUSH2 0x4AE2 JUMP JUMPDEST SWAP1 POP SWAP2 SWAP1 POP JUMP JUMPDEST PUSH32 0x416D6F756E74206D757374206265203E20300000000000000000000000000000 PUSH0 DUP3 ADD MSTORE POP JUMP JUMPDEST PUSH0 PUSH2 0x4B56 PUSH1 0x12 DUP4 PUSH2 0x3B95 JUMP JUMPDEST SWAP2 POP PUSH2 0x4B61 DUP3 PUSH2 0x4B22 JUMP JUMPDEST PUSH1 0x20 DUP3 ADD SWAP1 POP SWAP2 SWAP1 POP JUMP JUMPDEST PUSH0 PUSH1 0x20 DUP3 ADD SWAP1 POP DUP2 DUP2 SUB PUSH0 DUP4 ADD MSTORE PUSH2 0x4B83 DUP2 PUSH2 0x4B4A JUMP JUMPDEST SWAP1 POP SWAP2 SWAP1 POP JUMP JUMPDEST PUSH32 0x526F75746572206164647265737320696E76616C696400000000000000000000 PUSH0 DUP3 ADD MSTORE POP JUMP JUMPDEST PUSH0 PUSH2 0x4BBE PUSH1 0x16 DUP4 PUSH2 0x3B95 JUMP JUMPDEST SWAP2 POP PUSH2 0x4BC9 DUP3 PUSH2 0x4B8A JUMP JUMPDEST PUSH1 0x20 DUP3 ADD SWAP1 POP SWAP2 SWAP1 POP JUMP JUMPDEST PUSH0 PUSH1 0x20 DUP3 ADD SWAP1 POP DUP2 DUP2 SUB PUSH0 DUP4 ADD MSTORE PUSH2 0x4BEB DUP2 PUSH2 0x4BB2 JUMP JUMPDEST SWAP1 POP SWAP2 SWAP1 POP JUMP JUMPDEST PUSH32 0x526563697069656E74206164647265737320696E76616C696400000000000000 PUSH0 DUP3 ADD MSTORE POP JUMP JUMPDEST PUSH0 PUSH2 0x4C26 PUSH1 0x19 DUP4 PUSH2 0x3B95 JUMP JUMPDEST SWAP2 POP PUSH2 0x4C31 DUP3 PUSH2 0x4BF2 JUMP JUMPDEST PUSH1 0x20 DUP3 ADD SWAP1 POP SWAP2 SWAP1 POP JUMP JUMPDEST PUSH0 PUSH1 0x20 DUP3 ADD SWAP1 POP DUP2 DUP2 SUB PUSH0 DUP4 ADD MSTORE PUSH2 0x4C53 DUP2 PUSH2 0x4C1A JUMP JUMPDEST SWAP1 POP SWAP2 SWAP1 POP JUMP JUMPDEST PUSH32 0x57726170706564206E617469766520746F6B656E20696E76616C696400000000 PUSH0 DUP3 ADD MSTORE POP JUMP JUMPDEST PUSH0 PUSH2 0x4C8E PUSH1 0x1C DUP4 PUSH2 0x3B95 JUMP JUMPDEST SWAP2 POP PUSH2 0x4C99 DUP3 PUSH2 0x4C5A JUMP JUMPDEST PUSH1 0x20 DUP3 ADD SWAP1 POP SWAP2 SWAP1 POP JUMP JUMPDEST PUSH0 PUSH1 0x20 DUP3 ADD SWAP1 POP DUP2 DUP2 SUB PUSH0 DUP4 ADD MSTORE PUSH2 0x4CBB DUP2 PUSH2 0x4C82 JUMP JUMPDEST SWAP1 POP SWAP2 SWAP1 POP JUMP JUMPDEST PUSH0 DUP2 MLOAD SWAP1 POP SWAP2 SWAP1 POP JUMP JUMPDEST PUSH0 DUP3 DUP3 MSTORE PUSH1 0x20 DUP3 ADD SWAP1 POP SWAP3 SWAP2 POP POP JUMP JUMPDEST PUSH0 DUP2 SWAP1 POP PUSH1 0x20 DUP3 ADD SWAP1 POP SWAP2 SWAP1 POP JUMP JUMPDEST PUSH2 0x4CF4 DUP2 PUSH2 0x3C3A JUMP JUMPDEST DUP3 MSTORE POP POP JUMP JUMPDEST PUSH0 PUSH2 0x4D05 DUP4 DUP4 PUSH2 0x4CEB JUMP JUMPDEST PUSH1 0x20 DUP4 ADD SWAP1 POP SWAP3 SWAP2 POP POP JUMP JUMPDEST PUSH0 PUSH1 0x20 DUP3 ADD SWAP1 POP SWAP2 SWAP1 POP JUMP JUMPDEST PUSH0 PUSH2 0x4D27 DUP3 PUSH2 0x4CC2 JUMP JUMPDEST PUSH2 0x4D31 DUP2 DUP6 PUSH2 0x4CCC JUMP JUMPDEST SWAP4 POP PUSH2 0x4D3C DUP4 PUSH2 0x4CDC JUMP JUMPDEST DUP1 PUSH0 JUMPDEST DUP4 DUP2 LT ISZERO PUSH2 0x4D6C JUMPI DUP2 MLOAD PUSH2 0x4D53 DUP9 DUP3 PUSH2 0x4CFA JUMP JUMPDEST SWAP8 POP PUSH2 0x4D5E DUP4 PUSH2 0x4D11 JUMP JUMPDEST SWAP3 POP POP PUSH1 0x1 DUP2 ADD SWAP1 POP PUSH2 0x4D3F JUMP JUMPDEST POP DUP6 SWAP4 POP POP POP POP SWAP3 SWAP2 POP POP JUMP JUMPDEST PUSH0 PUSH1 0xA0 DUP3 ADD SWAP1 POP PUSH2 0x4D8C PUSH0 DUP4 ADD DUP9 PUSH2 0x3CE6 JUMP JUMPDEST PUSH2 0x4D99 PUSH1 0x20 DUP4 ADD DUP8 PUSH2 0x3CE6 JUMP JUMPDEST DUP2 DUP2 SUB PUSH1 0x40 DUP4 ADD MSTORE PUSH2 0x4DAB DUP2 DUP7 PUSH2 0x4D1D JUMP JUMPDEST SWAP1 POP PUSH2 0x4DBA PUSH1 0x60 DUP4 ADD DUP6 PUSH2 0x3E19 JUMP JUMPDEST PUSH2 0x4DC7 PUSH1 0x80 DUP4 ADD DUP5 PUSH2 0x3CE6 JUMP JUMPDEST SWAP7 SWAP6 POP POP POP POP POP POP JUMP JUMPDEST PUSH0 PUSH0 REVERT JUMPDEST PUSH2 0x4DDE DUP3 PUSH2 0x3BB3 JUMP JUMPDEST DUP2 ADD DUP2 DUP2 LT PUSH8 0xFFFFFFFFFFFFFFFF DUP3 GT OR ISZERO PUSH2 0x4DFD JUMPI PUSH2 0x4DFC PUSH2 0x476A JUMP JUMPDEST JUMPDEST DUP1 PUSH1 0x40 MSTORE POP POP POP JUMP JUMPDEST PUSH0 PUSH2 0x4E0F PUSH2 0x3AD0 JUMP JUMPDEST SWAP1 POP PUSH2 0x4E1B DUP3 DUP3 PUSH2 0x4DD5 JUMP JUMPDEST SWAP2 SWAP1 POP JUMP JUMPDEST PUSH0 PUSH8 0xFFFFFFFFFFFFFFFF DUP3 GT ISZERO PUSH2 0x4E3A JUMPI PUSH2 0x4E39 PUSH2 0x476A JUMP JUMPDEST JUMPDEST PUSH1 0x20 DUP3 MUL SWAP1 POP PUSH1 0x20 DUP2 ADD SWAP1 POP SWAP2 SWAP1 POP JUMP JUMPDEST PUSH0 PUSH0 REVERT JUMPDEST PUSH0 DUP2 MLOAD SWAP1 POP PUSH2 0x4E5D DUP2 PUSH2 0x3AEA JUMP JUMPDEST SWAP3 SWAP2 POP POP JUMP JUMPDEST PUSH0 PUSH2 0x4E75 PUSH2 0x4E70 DUP5 PUSH2 0x4E20 JUMP JUMPDEST PUSH2 0x4E06 JUMP JUMPDEST SWAP1 POP DUP1 DUP4 DUP3 MSTORE PUSH1 0x20 DUP3 ADD SWAP1 POP PUSH1 0x20 DUP5 MUL DUP4 ADD DUP6 DUP2 GT ISZERO PUSH2 0x4E98 JUMPI PUSH2 0x4E97 PUSH2 0x4E4B JUMP JUMPDEST JUMPDEST DUP4 JUMPDEST DUP2 DUP2 LT ISZERO PUSH2 0x4EC1 JUMPI DUP1 PUSH2 0x4EAD DUP9 DUP3 PUSH2 0x4E4F JUMP JUMPDEST DUP5 MSTORE PUSH1 0x20 DUP5 ADD SWAP4 POP POP PUSH1 0x20 DUP2 ADD SWAP1 POP PUSH2 0x4E9A JUMP JUMPDEST POP POP POP SWAP4 SWAP3 POP POP POP JUMP JUMPDEST PUSH0 DUP3 PUSH1 0x1F DUP4 ADD SLT PUSH2 0x4EDF JUMPI PUSH2 0x4EDE PUSH2 0x4DD1 JUMP JUMPDEST JUMPDEST DUP2 MLOAD PUSH2 0x4EEF DUP5 DUP3 PUSH1 0x20 DUP7 ADD PUSH2 0x4E63 JUMP JUMPDEST SWAP2 POP POP SWAP3 SWAP2 POP POP JUMP JUMPDEST PUSH0 PUSH1 0x20 DUP3 DUP5 SUB SLT ISZERO PUSH2 0x4F0D JUMPI PUSH2 0x4F0C PUSH2 0x3AD9 JUMP JUMPDEST JUMPDEST PUSH0 DUP3 ADD MLOAD PUSH8 0xFFFFFFFFFFFFFFFF DUP2 GT ISZERO PUSH2 0x4F2A JUMPI PUSH2 0x4F29 PUSH2 0x3ADD JUMP JUMPDEST JUMPDEST PUSH2 0x4F36 DUP5 DUP3 DUP6 ADD PUSH2 0x4ECB JUMP JUMPDEST SWAP2 POP POP SWAP3 SWAP2 POP POP JUMP JUMPDEST PUSH32 0x45524332303A20617070726F76652066726F6D20746865207A65726F20616464 PUSH0 DUP3 ADD MSTORE PUSH32 0x7265737300000000000000000000000000000000000000000000000000000000 PUSH1 0x20 DUP3 ADD MSTORE POP JUMP JUMPDEST PUSH0 PUSH2 0x4F99 PUSH1 0x24 DUP4 PUSH2 0x3B95 JUMP JUMPDEST SWAP2 POP PUSH2 0x4FA4 DUP3 PUSH2 0x4F3F JUMP JUMPDEST PUSH1 0x40 DUP3 ADD SWAP1 POP SWAP2 SWAP1 POP JUMP JUMPDEST PUSH0 PUSH1 0x20 DUP3 ADD SWAP1 POP DUP2 DUP2 SUB PUSH0 DUP4 ADD MSTORE PUSH2 0x4FC6 DUP2 PUSH2 0x4F8D JUMP JUMPDEST SWAP1 POP SWAP2 SWAP1 POP JUMP JUMPDEST PUSH32 0x45524332303A20617070726F766520746F20746865207A65726F206164647265 PUSH0 DUP3 ADD MSTORE PUSH32 0x7373000000000000000000000000000000000000000000000000000000000000 PUSH1 0x20 DUP3 ADD MSTORE POP JUMP JUMPDEST PUSH0 PUSH2 0x5027 PUSH1 0x22 DUP4 PUSH2 0x3B95 JUMP JUMPDEST SWAP2 POP PUSH2 0x5032 DUP3 PUSH2 0x4FCD JUMP JUMPDEST PUSH1 0x40 DUP3 ADD SWAP1 POP SWAP2 SWAP1 POP JUMP JUMPDEST PUSH0 PUSH1 0x20 DUP3 ADD SWAP1 POP DUP2 DUP2 SUB PUSH0 DUP4 ADD MSTORE PUSH2 0x5054 DUP2 PUSH2 0x501B JUMP JUMPDEST SWAP1 POP SWAP2 SWAP1 POP JUMP JUMPDEST PUSH32 0x45524332303A20696E73756666696369656E7420616C6C6F77616E6365000000 PUSH0 DUP3 ADD MSTORE POP JUMP JUMPDEST PUSH0 PUSH2 0x508F PUSH1 0x1D DUP4 PUSH2 0x3B95 JUMP JUMPDEST SWAP2 POP PUSH2 0x509A DUP3 PUSH2 0x505B JUMP JUMPDEST PUSH1 0x20 DUP3 ADD SWAP1 POP SWAP2 SWAP1 POP JUMP JUMPDEST PUSH0 PUSH1 0x20 DUP3 ADD SWAP1 POP DUP2 DUP2 SUB PUSH0 DUP4 ADD MSTORE PUSH2 0x50BC DUP2 PUSH2 0x5083 JUMP JUMPDEST SWAP1 POP SWAP2 SWAP1 POP JUMP JUMPDEST PUSH32 0x45524332303A207472616E736665722066726F6D20746865207A65726F206164 PUSH0 DUP3 ADD MSTORE PUSH32 0x6472657373000000000000000000000000000000000000000000000000000000 PUSH1 0x20 DUP3 ADD MSTORE POP JUMP JUMPDEST PUSH0 PUSH2 0x511D PUSH1 0x25 DUP4 PUSH2 0x3B95 JUMP JUMPDEST SWAP2 POP PUSH2 0x5128 DUP3 PUSH2 0x50C3 JUMP JUMPDEST PUSH1 0x40 DUP3 ADD SWAP1 POP SWAP2 SWAP1 POP JUMP JUMPDEST PUSH0 PUSH1 0x20 DUP3 ADD SWAP1 POP DUP2 DUP2 SUB PUSH0 DUP4 ADD MSTORE PUSH2 0x514A DUP2 PUSH2 0x5111 JUMP JUMPDEST SWAP1 POP SWAP2 SWAP1 POP JUMP JUMPDEST PUSH32 0x45524332303A207472616E7366657220746F20746865207A65726F2061646472 PUSH0 DUP3 ADD MSTORE PUSH32 0x6573730000000000000000000000000000000000000000000000000000000000 PUSH1 0x20 DUP3 ADD MSTORE POP JUMP JUMPDEST PUSH0 PUSH2 0x51AB PUSH1 0x23 DUP4 PUSH2 0x3B95 JUMP JUMPDEST SWAP2 POP PUSH2 0x51B6 DUP3 PUSH2 0x5151 JUMP JUMPDEST PUSH1 0x40 DUP3 ADD SWAP1 POP SWAP2 SWAP1 POP JUMP JUMPDEST PUSH0 PUSH1 0x20 DUP3 ADD SWAP1 POP DUP2 DUP2 SUB PUSH0 DUP4 ADD MSTORE PUSH2 0x51D8 DUP2 PUSH2 0x519F JUMP JUMPDEST SWAP1 POP SWAP2 SWAP1 POP JUMP JUMPDEST PUSH32 0x45524332303A207472616E7366657220616D6F756E7420657863656564732062 PUSH0 DUP3 ADD MSTORE PUSH32 0x616C616E63650000000000000000000000000000000000000000000000000000 PUSH1 0x20 DUP3 ADD MSTORE POP JUMP JUMPDEST PUSH0 PUSH2 0x5239 PUSH1 0x26 DUP4 PUSH2 0x3B95 JUMP JUMPDEST SWAP2 POP PUSH2 0x5244 DUP3 PUSH2 0x51DF JUMP JUMPDEST PUSH1 0x40 DUP3 ADD SWAP1 POP SWAP2 SWAP1 POP JUMP JUMPDEST PUSH0 PUSH1 0x20 DUP3 ADD SWAP1 POP DUP2 DUP2 SUB PUSH0 DUP4 ADD MSTORE PUSH2 0x5266 DUP2 PUSH2 0x522D JUMP JUMPDEST SWAP1 POP SWAP2 SWAP1 POP JUMP JUMPDEST PUSH32 0x4F776E61626C653A2063616C6C6572206973206E6F7420746865206F776E6572 PUSH0 DUP3 ADD MSTORE POP JUMP JUMPDEST PUSH0 PUSH2 0x52A1 PUSH1 0x20 DUP4 PUSH2 0x3B95 JUMP JUMPDEST SWAP2 POP PUSH2 0x52AC DUP3 PUSH2 0x526D JUMP JUMPDEST PUSH1 0x20 DUP3 ADD SWAP1 POP SWAP2 SWAP1 POP JUMP JUMPDEST PUSH0 PUSH1 0x20 DUP3 ADD SWAP1 POP DUP2 DUP2 SUB PUSH0 DUP4 ADD MSTORE PUSH2 0x52CE DUP2 PUSH2 0x5295 JUMP JUMPDEST SWAP1 POP SWAP2 SWAP1 POP JUMP JUMPDEST PUSH0 PUSH1 0x40 DUP3 ADD SWAP1 POP PUSH2 0x52E8 PUSH0 DUP4 ADD DUP6 PUSH2 0x3E19 JUMP JUMPDEST PUSH2 0x52F5 PUSH1 0x20 DUP4 ADD DUP5 PUSH2 0x3CE6 JUMP JUMPDEST SWAP4 SWAP3 POP POP POP JUMP JUMPDEST PUSH32 0x53616665436173743A2076616C756520646F65736E27742066697420696E2033 PUSH0 DUP3 ADD MSTORE PUSH32 0x3220626974730000000000000000000000000000000000000000000000000000 PUSH1 0x20 DUP3 ADD MSTORE POP JUMP JUMPDEST PUSH0 PUSH2 0x5356 PUSH1 0x26 DUP4 PUSH2 0x3B95 JUMP JUMPDEST SWAP2 POP PUSH2 0x5361 DUP3 PUSH2 0x52FC JUMP JUMPDEST PUSH1 0x40 DUP3 ADD SWAP1 POP SWAP2 SWAP1 POP JUMP JUMPDEST PUSH0 PUSH1 0x20 DUP3 ADD SWAP1 POP DUP2 DUP2 SUB PUSH0 DUP4 ADD MSTORE PUSH2 0x5383 DUP2 PUSH2 0x534A JUMP JUMPDEST SWAP1 POP SWAP2 SWAP1 POP JUMP JUMPDEST PUSH32 0x53616665436173743A2076616C756520646F65736E27742066697420696E2034 PUSH0 DUP3 ADD MSTORE PUSH32 0x3820626974730000000000000000000000000000000000000000000000000000 PUSH1 0x20 DUP3 ADD MSTORE POP JUMP JUMPDEST PUSH0 PUSH2 0x53E4 PUSH1 0x26 DUP4 PUSH2 0x3B95 JUMP JUMPDEST SWAP2 POP PUSH2 0x53EF DUP3 PUSH2 0x538A JUMP JUMPDEST PUSH1 0x40 DUP3 ADD SWAP1 POP SWAP2 SWAP1 POP JUMP JUMPDEST PUSH0 PUSH1 0x20 DUP3 ADD SWAP1 POP DUP2 DUP2 SUB PUSH0 DUP4 ADD MSTORE PUSH2 0x5411 DUP2 PUSH2 0x53D8 JUMP JUMPDEST SWAP1 POP SWAP2 SWAP1 POP JUMP JUMPDEST PUSH32 0x5265656E7472616E637947756172643A207265656E7472616E742063616C6C00 PUSH0 DUP3 ADD MSTORE POP JUMP JUMPDEST PUSH0 PUSH2 0x544C PUSH1 0x1F DUP4 PUSH2 0x3B95 JUMP JUMPDEST SWAP2 POP PUSH2 0x5457 DUP3 PUSH2 0x5418 JUMP JUMPDEST PUSH1 0x20 DUP3 ADD SWAP1 POP SWAP2 SWAP1 POP JUMP JUMPDEST PUSH0 PUSH1 0x20 DUP3 ADD SWAP1 POP DUP2 DUP2 SUB PUSH0 DUP4 ADD MSTORE PUSH2 0x5479 DUP2 PUSH2 0x5440 JUMP JUMPDEST SWAP1 POP SWAP2 SWAP1 POP JUMP JUMPDEST PUSH0 PUSH1 0x40 DUP3 ADD SWAP1 POP PUSH2 0x5493 PUSH0 DUP4 ADD DUP6 PUSH2 0x3E19 JUMP JUMPDEST PUSH2 0x54A0 PUSH1 0x20 DUP4 ADD DUP5 PUSH2 0x3E19 JUMP JUMPDEST SWAP4 SWAP3 POP POP POP JUMP JUMPDEST PUSH0 PUSH1 0x20 DUP3 DUP5 SUB SLT ISZERO PUSH2 0x54BC JUMPI PUSH2 0x54BB PUSH2 0x3AD9 JUMP JUMPDEST JUMPDEST PUSH0 PUSH2 0x54C9 DUP5 DUP3 DUP6 ADD PUSH2 0x4E4F JUMP JUMPDEST SWAP2 POP POP SWAP3 SWAP2 POP POP JUMP JUMPDEST PUSH0 PUSH1 0xA0 DUP3 ADD SWAP1 POP PUSH2 0x54E5 PUSH0 DUP4 ADD DUP9 PUSH2 0x3D9B JUMP JUMPDEST PUSH2 0x54F2 PUSH1 0x20 DUP4 ADD DUP8 PUSH2 0x3D9B JUMP JUMPDEST PUSH2 0x54FF PUSH1 0x40 DUP4 ADD DUP7 PUSH2 0x3D9B JUMP JUMPDEST PUSH2 0x550C PUSH1 0x60 DUP4 ADD DUP6 PUSH2 0x3CE6 JUMP JUMPDEST PUSH2 0x5519 PUSH1 0x80 DUP4 ADD DUP5 PUSH2 0x3E19 JUMP JUMPDEST SWAP7 SWAP6 POP POP POP POP POP POP JUMP JUMPDEST PUSH32 0x5061757361626C653A206E6F7420706175736564000000000000000000000000 PUSH0 DUP3 ADD MSTORE POP JUMP JUMPDEST PUSH0 PUSH2 0x5557 PUSH1 0x14 DUP4 PUSH2 0x3B95 JUMP JUMPDEST SWAP2 POP PUSH2 0x5562 DUP3 PUSH2 0x5523 JUMP JUMPDEST PUSH1 0x20 DUP3 ADD SWAP1 POP SWAP2 SWAP1 POP JUMP JUMPDEST PUSH0 PUSH1 0x20 DUP3 ADD SWAP1 POP DUP2 DUP2 SUB PUSH0 DUP4 ADD MSTORE PUSH2 0x5584 DUP2 PUSH2 0x554B JUMP JUMPDEST SWAP1 POP SWAP2 SWAP1 POP JUMP JUMPDEST PUSH0 PUSH1 0x40 DUP3 ADD SWAP1 POP PUSH2 0x559E PUSH0 DUP4 ADD DUP6 PUSH2 0x3CE6 JUMP JUMPDEST PUSH2 0x55AB PUSH1 0x20 DUP4 ADD DUP5 PUSH2 0x3CE6 JUMP JUMPDEST SWAP4 SWAP3 POP POP POP JUMP JUMPDEST PUSH2 0x55BB DUP2 PUSH2 0x3CB3 JUMP JUMPDEST DUP2 EQ PUSH2 0x55C5 JUMPI PUSH0 PUSH0 REVERT JUMPDEST POP JUMP JUMPDEST PUSH0 DUP2 MLOAD SWAP1 POP PUSH2 0x55D6 DUP2 PUSH2 0x55B2 JUMP JUMPDEST SWAP3 SWAP2 POP POP JUMP JUMPDEST PUSH0 PUSH1 0x20 DUP3 DUP5 SUB SLT ISZERO PUSH2 0x55F1 JUMPI PUSH2 0x55F0 PUSH2 0x3AD9 JUMP JUMPDEST JUMPDEST PUSH0 PUSH2 0x55FE DUP5 DUP3 DUP6 ADD PUSH2 0x55C8 JUMP JUMPDEST SWAP2 POP POP SWAP3 SWAP2 POP POP JUMP JUMPDEST PUSH32 0x5361666545524332303A204552433230206F7065726174696F6E20646964206E PUSH0 DUP3 ADD MSTORE PUSH32 0x6F74207375636365656400000000000000000000000000000000000000000000 PUSH1 0x20 DUP3 ADD MSTORE POP JUMP JUMPDEST PUSH0 PUSH2 0x5661 PUSH1 0x2A DUP4 PUSH2 0x3B95 JUMP JUMPDEST SWAP2 POP PUSH2 0x566C DUP3 PUSH2 0x5607 JUMP JUMPDEST PUSH1 0x40 DUP3 ADD SWAP1 POP SWAP2 SWAP1 POP JUMP JUMPDEST PUSH0 PUSH1 0x20 DUP3 ADD SWAP1 POP DUP2 DUP2 SUB PUSH0 DUP4 ADD MSTORE PUSH2 0x568E DUP2 PUSH2 0x5655 JUMP JUMPDEST SWAP1 POP SWAP2 SWAP1 POP JUMP JUMPDEST PUSH32 0x5061757361626C653A2070617573656400000000000000000000000000000000 PUSH0 DUP3 ADD MSTORE POP JUMP JUMPDEST PUSH0 PUSH2 0x56C9 PUSH1 0x10 DUP4 PUSH2 0x3B95 JUMP JUMPDEST SWAP2 POP PUSH2 0x56D4 DUP3 PUSH2 0x5695 JUMP JUMPDEST PUSH1 0x20 DUP3 ADD SWAP1 POP SWAP2 SWAP1 POP JUMP JUMPDEST PUSH0 PUSH1 0x20 DUP3 ADD SWAP1 POP DUP2 DUP2 SUB PUSH0 DUP4 ADD MSTORE PUSH2 0x56F6 DUP2 PUSH2 0x56BD JUMP JUMPDEST SWAP1 POP SWAP2 SWAP1 POP JUMP JUMPDEST PUSH0 PUSH1 0x80 DUP3 ADD SWAP1 POP PUSH2 0x5710 PUSH0 DUP4 ADD DUP8 PUSH2 0x3D9B JUMP JUMPDEST PUSH2 0x571D PUSH1 0x20 DUP4 ADD DUP7 PUSH2 0x3D6A JUMP JUMPDEST PUSH2 0x572A PUSH1 0x40 DUP4 ADD DUP6 PUSH2 0x3D9B JUMP JUMPDEST PUSH2 0x5737 PUSH1 0x60 DUP4 ADD DUP5 PUSH2 0x3D9B JUMP JUMPDEST SWAP6 SWAP5 POP POP POP POP POP JUMP JUMPDEST PUSH32 0x4E487B7100000000000000000000000000000000000000000000000000000000 PUSH0 MSTORE PUSH1 0x21 PUSH1 0x4 MSTORE PUSH1 0x24 PUSH0 REVERT JUMPDEST PUSH32 0x45434453413A20696E76616C6964207369676E61747572650000000000000000 PUSH0 DUP3 ADD MSTORE POP JUMP JUMPDEST PUSH0 PUSH2 0x57A1 PUSH1 0x18 DUP4 PUSH2 0x3B95 JUMP JUMPDEST SWAP2 POP PUSH2 0x57AC DUP3 PUSH2 0x576D JUMP JUMPDEST PUSH1 0x20 DUP3 ADD SWAP1 POP SWAP2 SWAP1 POP JUMP JUMPDEST PUSH0 PUSH1 0x20 DUP3 ADD SWAP1 POP DUP2 DUP2 SUB PUSH0 DUP4 ADD MSTORE PUSH2 0x57CE DUP2 PUSH2 0x5795 JUMP JUMPDEST SWAP1 POP SWAP2 SWAP1 POP JUMP JUMPDEST PUSH32 0x45434453413A20696E76616C6964207369676E6174757265206C656E67746800 PUSH0 DUP3 ADD MSTORE POP JUMP JUMPDEST PUSH0 PUSH2 0x5809 PUSH1 0x1F DUP4 PUSH2 0x3B95 JUMP JUMPDEST SWAP2 POP PUSH2 0x5814 DUP3 PUSH2 0x57D5 JUMP JUMPDEST PUSH1 0x20 DUP3 ADD SWAP1 POP SWAP2 SWAP1 POP JUMP JUMPDEST PUSH0 PUSH1 0x20 DUP3 ADD SWAP1 POP DUP2 DUP2 SUB PUSH0 DUP4 ADD MSTORE PUSH2 0x5836 DUP2 PUSH2 0x57FD JUMP JUMPDEST SWAP1 POP SWAP2 SWAP1 POP JUMP JUMPDEST PUSH32 0x45434453413A20696E76616C6964207369676E6174757265202773272076616C PUSH0 DUP3 ADD MSTORE PUSH32 0x7565000000000000000000000000000000000000000000000000000000000000 PUSH1 0x20 DUP3 ADD MSTORE POP JUMP JUMPDEST PUSH0 PUSH2 0x5897 PUSH1 0x22 DUP4 PUSH2 0x3B95 JUMP JUMPDEST SWAP2 POP PUSH2 0x58A2 DUP3 PUSH2 0x583D JUMP JUMPDEST PUSH1 0x40 DUP3 ADD SWAP1 POP SWAP2 SWAP1 POP JUMP JUMPDEST PUSH0 PUSH1 0x20 DUP3 ADD SWAP1 POP DUP2 DUP2 SUB PUSH0 DUP4 ADD MSTORE PUSH2 0x58C4 DUP2 PUSH2 0x588B JUMP JUMPDEST SWAP1 POP SWAP2 SWAP1 POP JUMP JUMPDEST PUSH32 0x45524332303A206275726E2066726F6D20746865207A65726F20616464726573 PUSH0 DUP3 ADD MSTORE PUSH32 0x7300000000000000000000000000000000000000000000000000000000000000 PUSH1 0x20 DUP3 ADD MSTORE POP JUMP JUMPDEST PUSH0 PUSH2 0x5925 PUSH1 0x21 DUP4 PUSH2 0x3B95 JUMP JUMPDEST SWAP2 POP PUSH2 0x5930 DUP3 PUSH2 0x58CB JUMP JUMPDEST PUSH1 0x40 DUP3 ADD SWAP1 POP SWAP2 SWAP1 POP JUMP JUMPDEST PUSH0 PUSH1 0x20 DUP3 ADD SWAP1 POP DUP2 DUP2 SUB PUSH0 DUP4 ADD MSTORE PUSH2 0x5952 DUP2 PUSH2 0x5919 JUMP JUMPDEST SWAP1 POP SWAP2 SWAP1 POP JUMP JUMPDEST PUSH32 0x45524332303A206275726E20616D6F756E7420657863656564732062616C616E PUSH0 DUP3 ADD MSTORE PUSH32 0x6365000000000000000000000000000000000000000000000000000000000000 PUSH1 0x20 DUP3 ADD MSTORE POP JUMP JUMPDEST PUSH0 PUSH2 0x59B3 PUSH1 0x22 DUP4 PUSH2 0x3B95 JUMP JUMPDEST SWAP2 POP PUSH2 0x59BE DUP3 PUSH2 0x5959 JUMP JUMPDEST PUSH1 0x40 DUP3 ADD SWAP1 POP SWAP2 SWAP1 POP JUMP JUMPDEST PUSH0 PUSH1 0x20 DUP3 ADD SWAP1 POP DUP2 DUP2 SUB PUSH0 DUP4 ADD MSTORE PUSH2 0x59E0 DUP2 PUSH2 0x59A7 JUMP JUMPDEST SWAP1 POP SWAP2 SWAP1 POP JUMP JUMPDEST PUSH32 0x53616665436173743A2076616C756520646F65736E27742066697420696E2032 PUSH0 DUP3 ADD MSTORE PUSH32 0x3234206269747300000000000000000000000000000000000000000000000000 PUSH1 0x20 DUP3 ADD MSTORE POP JUMP JUMPDEST PUSH0 PUSH2 0x5A41 PUSH1 0x27 DUP4 PUSH2 0x3B95 JUMP JUMPDEST SWAP2 POP PUSH2 0x5A4C DUP3 PUSH2 0x59E7 JUMP JUMPDEST PUSH1 0x40 DUP3 ADD SWAP1 POP SWAP2 SWAP1 POP JUMP JUMPDEST PUSH0 PUSH1 0x20 DUP3 ADD SWAP1 POP DUP2 DUP2 SUB PUSH0 DUP4 ADD MSTORE PUSH2 0x5A6E DUP2 PUSH2 0x5A35 JUMP JUMPDEST SWAP1 POP SWAP2 SWAP1 POP JUMP JUMPDEST PUSH32 0x416464726573733A20696E73756666696369656E742062616C616E636520666F PUSH0 DUP3 ADD MSTORE PUSH32 0x722063616C6C0000000000000000000000000000000000000000000000000000 PUSH1 0x20 DUP3 ADD MSTORE POP JUMP JUMPDEST PUSH0 PUSH2 0x5ACF PUSH1 0x26 DUP4 PUSH2 0x3B95 JUMP JUMPDEST SWAP2 POP PUSH2 0x5ADA DUP3 PUSH2 0x5A75 JUMP JUMPDEST PUSH1 0x40 DUP3 ADD SWAP1 POP SWAP2 SWAP1 POP JUMP JUMPDEST PUSH0 PUSH1 0x20 DUP3 ADD SWAP1 POP DUP2 DUP2 SUB PUSH0 DUP4 ADD MSTORE PUSH2 0x5AFC DUP2 PUSH2 0x5AC3 JUMP JUMPDEST SWAP1 POP SWAP2 SWAP1 POP JUMP JUMPDEST PUSH0 DUP2 MLOAD SWAP1 POP SWAP2 SWAP1 POP JUMP JUMPDEST PUSH0 DUP2 SWAP1 POP SWAP3 SWAP2 POP POP JUMP JUMPDEST PUSH0 PUSH2 0x5B21 DUP3 PUSH2 0x5B03 JUMP JUMPDEST PUSH2 0x5B2B DUP2 DUP6 PUSH2 0x5B0D JUMP JUMPDEST SWAP4 POP PUSH2 0x5B3B DUP2 DUP6 PUSH1 0x20 DUP7 ADD PUSH2 0x3BA5 JUMP JUMPDEST DUP1 DUP5 ADD SWAP2 POP POP SWAP3 SWAP2 POP POP JUMP JUMPDEST PUSH0 PUSH2 0x5B52 DUP3 DUP5 PUSH2 0x5B17 JUMP JUMPDEST SWAP2 POP DUP2 SWAP1 POP SWAP3 SWAP2 POP POP JUMP JUMPDEST PUSH32 0x416464726573733A2063616C6C20746F206E6F6E2D636F6E7472616374000000 PUSH0 DUP3 ADD MSTORE POP JUMP JUMPDEST PUSH0 PUSH2 0x5B91 PUSH1 0x1D DUP4 PUSH2 0x3B95 JUMP JUMPDEST SWAP2 POP PUSH2 0x5B9C DUP3 PUSH2 0x5B5D JUMP JUMPDEST PUSH1 0x20 DUP3 ADD SWAP1 POP SWAP2 SWAP1 POP JUMP JUMPDEST PUSH0 PUSH1 0x20 DUP3 ADD SWAP1 POP DUP2 DUP2 SUB PUSH0 DUP4 ADD MSTORE PUSH2 0x5BBE DUP2 PUSH2 0x5B85 JUMP JUMPDEST SWAP1 POP SWAP2 SWAP1 POP JUMP INVALID LOG2 PUSH5 0x6970667358 0x22 SLT KECCAK256 JUMP JUMP 0xBF 0x21 PUSH0 0xC4 SWAPN 0x3D 0xAB EXTSTATICCALL PUSH19 0xD774CE5FD42E5E2D66571D1DFA8FDC54B2A15 PUSH5 0xA364736F6C PUSH4 0x4300081E STOP CALLER "
		},
		"gasEstimates": {
			"creation": {
				"codeDepositCost": "4709400",
				"executionCost": "infinite",
				"totalCost": "infinite"
			},
			"external": {
				"CLOCK_MODE()": "infinite",
				"DOMAIN_SEPARATOR()": "infinite",
				"MAX_FEE()": "436",
				"MIN_SUPPLY()": "393",
				"allowance(address,address)": "infinite",
				"approve(address,uint256)": "infinite",
				"balanceOf(address)": "2983",
				"burn(uint256)": "infinite",
				"burnFee()": "2557",
				"buybackFee()": "2581",
				"checkpoints(address,uint32)": "infinite",
				"clock()": "609",
				"decimals()": "384",
				"decreaseAllowance(address,uint256)": "infinite",
				"delegate(address)": "infinite",
				"delegateBySig(address,uint256,uint256,uint8,bytes32,bytes32)": "infinite",
				"delegates(address)": "infinite",
				"devFee()": "2514",
				"devWallet()": "2597",
				"distributeFees(uint256)": "infinite",
				"eip712Domain()": "infinite",
				"getPastTotalSupply(uint256)": "infinite",
				"getPastVotes(address,uint256)": "infinite",
				"getVotes(address)": "7396",
				"increaseAllowance(address,uint256)": "infinite",
				"liquidityFee()": "2580",
				"marketingFee()": "2536",
				"marketingWallet()": "2576",
				"name()": "infinite",
				"nonces(address)": "2966",
				"numCheckpoints(address)": "3132",
				"owner()": "2560",
				"pause()": "infinite",
				"paused()": "2569",
				"permit(address,address,uint256,uint256,uint8,bytes32,bytes32)": "infinite",
				"renounceOwnership()": "30436",
				"setFees(uint256,uint256,uint256,uint256,uint256)": "infinite",
				"swapAndSend(address,address,uint256,uint256,address)": "infinite",
				"symbol()": "infinite",
				"totalSupply()": "2545",
				"transfer(address,uint256)": "infinite",
				"transferFrom(address,address,uint256)": "infinite",
				"transferOwnership(address)": "30841",
				"unpause()": "infinite"
			},
			"internal": {
				"_afterTokenTransfer(address,address,uint256)": "infinite",
				"_beforeTokenTransfer(address,address,uint256)": "infinite",
				"_burn(address,uint256)": "infinite",
				"_mint(address,uint256)": "infinite"
			}
		},
		"methodIdentifiers": {
			"CLOCK_MODE()": "4bf5d7e9",
			"DOMAIN_SEPARATOR()": "3644e515",
			"MAX_FEE()": "bc063e1a",
			"MIN_SUPPLY()": "35917c64",
			"allowance(address,address)": "dd62ed3e",
			"approve(address,uint256)": "095ea7b3",
			"balanceOf(address)": "70a08231",
			"burn(uint256)": "42966c68",
			"burnFee()": "fce589d8",
			"buybackFee()": "3b2d081c",
			"checkpoints(address,uint32)": "f1127ed8",
			"clock()": "91ddadf4",
			"decimals()": "313ce567",
			"decreaseAllowance(address,uint256)": "a457c2d7",
			"delegate(address)": "5c19a95c",
			"delegateBySig(address,uint256,uint256,uint8,bytes32,bytes32)": "c3cda520",
			"delegates(address)": "587cde1e",
			"devFee()": "6827e764",
			"devWallet()": "8ea5220f",
			"distributeFees(uint256)": "6029bf9f",
			"eip712Domain()": "84b0196e",
			"getPastTotalSupply(uint256)": "8e539e8c",
			"getPastVotes(address,uint256)": "3a46b1a8",
			"getVotes(address)": "9ab24eb0",
			"increaseAllowance(address,uint256)": "39509351",
			"liquidityFee()": "98118cb4",
			"marketingFee()": "6b67c4df",
			"marketingWallet()": "75f0a874",
			"name()": "06fdde03",
			"nonces(address)": "7ecebe00",
			"numCheckpoints(address)": "6fcfff45",
			"owner()": "8da5cb5b",
			"pause()": "8456cb59",
			"paused()": "5c975abb",
			"permit(address,address,uint256,uint256,uint8,bytes32,bytes32)": "d505accf",
			"renounceOwnership()": "715018a6",
			"setFees(uint256,uint256,uint256,uint256,uint256)": "04a66b48",
			"swapAndSend(address,address,uint256,uint256,address)": "ff768c40",
			"symbol()": "95d89b41",
			"totalSupply()": "18160ddd",
			"transfer(address,uint256)": "a9059cbb",
			"transferFrom(address,address,uint256)": "23b872dd",
			"transferOwnership(address)": "f2fde38b",
			"unpause()": "3f4ba83a"
		}
	},
	"abi": [
		{
			"inputs": [],
			"stateMutability": "nonpayable",
			"type": "constructor"
		},
		{
			"inputs": [],
			"name": "InvalidShortString",
			"type": "error"
		},
		{
			"inputs": [
				{
					"internalType": "string",
					"name": "str",
					"type": "string"
				}
			],
			"name": "StringTooLong",
			"type": "error"
		},
		{
			"anonymous": false,
			"inputs": [
				{
					"indexed": true,
					"internalType": "address",
					"name": "owner",
					"type": "address"
				},
				{
					"indexed": true,
					"internalType": "address",
					"name": "spender",
					"type": "address"
				},
				{
					"indexed": false,
					"internalType": "uint256",
					"name": "value",
					"type": "uint256"
				}
			],
			"name": "Approval",
			"type": "event"
		},
		{
			"anonymous": false,
			"inputs": [
				{
					"indexed": true,
					"internalType": "address",
					"name": "delegator",
					"type": "address"
				},
				{
					"indexed": true,
					"internalType": "address",
					"name": "fromDelegate",
					"type": "address"
				},
				{
					"indexed": true,
					"internalType": "address",
					"name": "toDelegate",
					"type": "address"
				}
			],
			"name": "DelegateChanged",
			"type": "event"
		},
		{
			"anonymous": false,
			"inputs": [
				{
					"indexed": true,
					"internalType": "address",
					"name": "delegate",
					"type": "address"
				},
				{
					"indexed": false,
					"internalType": "uint256",
					"name": "previousBalance",
					"type": "uint256"
				},
				{
					"indexed": false,
					"internalType": "uint256",
					"name": "newBalance",
					"type": "uint256"
				}
			],
			"name": "DelegateVotesChanged",
			"type": "event"
		},
		{
			"anonymous": false,
			"inputs": [],
			"name": "EIP712DomainChanged",
			"type": "event"
		},
		{
			"anonymous": false,
			"inputs": [
				{
					"indexed": true,
					"internalType": "address",
					"name": "previousOwner",
					"type": "address"
				},
				{
					"indexed": true,
					"internalType": "address",
					"name": "newOwner",
					"type": "address"
				}
			],
			"name": "OwnershipTransferred",
			"type": "event"
		},
		{
			"anonymous": false,
			"inputs": [
				{
					"indexed": false,
					"internalType": "address",
					"name": "account",
					"type": "address"
				}
			],
			"name": "Paused",
			"type": "event"
		},
		{
			"anonymous": false,
			"inputs": [
				{
					"indexed": true,
					"internalType": "address",
					"name": "from",
					"type": "address"
				},
				{
					"indexed": true,
					"internalType": "address",
					"name": "to",
					"type": "address"
				},
				{
					"indexed": false,
					"internalType": "uint256",
					"name": "value",
					"type": "uint256"
				}
			],
			"name": "Transfer",
			"type": "event"
		},
		{
			"anonymous": false,
			"inputs": [
				{
					"indexed": false,
					"internalType": "address",
					"name": "account",
					"type": "address"
				}
			],
			"name": "Unpaused",
			"type": "event"
		},
		{
			"inputs": [],
			"name": "CLOCK_MODE",
			"outputs": [
				{
					"internalType": "string",
					"name": "",
					"type": "string"
				}
			],
			"stateMutability": "view",
			"type": "function"
		},
		{
			"inputs": [],
			"name": "DOMAIN_SEPARATOR",
			"outputs": [
				{
					"internalType": "bytes32",
					"name": "",
					"type": "bytes32"
				}
			],
			"stateMutability": "view",
			"type": "function"
		},
		{
			"inputs": [],
			"name": "MAX_FEE",
			"outputs": [
				{
					"internalType": "uint256",
					"name": "",
					"type": "uint256"
				}
			],
			"stateMutability": "view",
			"type": "function"
		},
		{
			"inputs": [],
			"name": "MIN_SUPPLY",
			"outputs": [
				{
					"internalType": "uint256",
					"name": "",
					"type": "uint256"
				}
			],
			"stateMutability": "view",
			"type": "function"
		},
		{
			"inputs": [
				{
					"internalType": "address",
					"name": "owner",
					"type": "address"
				},
				{
					"internalType": "address",
					"name": "spender",
					"type": "address"
				}
			],
			"name": "allowance",
			"outputs": [
				{
					"internalType": "uint256",
					"name": "",
					"type": "uint256"
				}
			],
			"stateMutability": "view",
			"type": "function"
		},
		{
			"inputs": [
				{
					"internalType": "address",
					"name": "spender",
					"type": "address"
				},
				{
					"internalType": "uint256",
					"name": "amount",
					"type": "uint256"
				}
			],
			"name": "approve",
			"outputs": [
				{
					"internalType": "bool",
					"name": "",
					"type": "bool"
				}
			],
			"stateMutability": "nonpayable",
			"type": "function"
		},
		{
			"inputs": [
				{
					"internalType": "address",
					"name": "account",
					"type": "address"
				}
			],
			"name": "balanceOf",
			"outputs": [
				{
					"internalType": "uint256",
					"name": "",
					"type": "uint256"
				}
			],
			"stateMutability": "view",
			"type": "function"
		},
		{
			"inputs": [
				{
					"internalType": "uint256",
					"name": "amount",
					"type": "uint256"
				}
			],
			"name": "burn",
			"outputs": [],
			"stateMutability": "nonpayable",
			"type": "function"
		},
		{
			"inputs": [],
			"name": "burnFee",
			"outputs": [
				{
					"internalType": "uint256",
					"name": "",
					"type": "uint256"
				}
			],
			"stateMutability": "view",
			"type": "function"
		},
		{
			"inputs": [],
			"name": "buybackFee",
			"outputs": [
				{
					"internalType": "uint256",
					"name": "",
					"type": "uint256"
				}
			],
			"stateMutability": "view",
			"type": "function"
		},
		{
			"inputs": [
				{
					"internalType": "address",
					"name": "account",
					"type": "address"
				},
				{
					"internalType": "uint32",
					"name": "pos",
					"type": "uint32"
				}
			],
			"name": "checkpoints",
			"outputs": [
				{
					"components": [
						{
							"internalType": "uint32",
							"name": "fromBlock",
							"type": "uint32"
						},
						{
							"internalType": "uint224",
							"name": "votes",
							"type": "uint224"
						}
					],
					"internalType": "struct ERC20Votes.Checkpoint",
					"name": "",
					"type": "tuple"
				}
			],
			"stateMutability": "view",
			"type": "function"
		},
		{
			"inputs": [],
			"name": "clock",
			"outputs": [
				{
					"internalType": "uint48",
					"name": "",
					"type": "uint48"
				}
			],
			"stateMutability": "view",
			"type": "function"
		},
		{
			"inputs": [],
			"name": "decimals",
			"outputs": [
				{
					"internalType": "uint8",
					"name": "",
					"type": "uint8"
				}
			],
			"stateMutability": "view",
			"type": "function"
		},
		{
			"inputs": [
				{
					"internalType": "address",
					"name": "spender",
					"type": "address"
				},
				{
					"internalType": "uint256",
					"name": "subtractedValue",
					"type": "uint256"
				}
			],
			"name": "decreaseAllowance",
			"outputs": [
				{
					"internalType": "bool",
					"name": "",
					"type": "bool"
				}
			],
			"stateMutability": "nonpayable",
			"type": "function"
		},
		{
			"inputs": [
				{
					"internalType": "address",
					"name": "delegatee",
					"type": "address"
				}
			],
			"name": "delegate",
			"outputs": [],
			"stateMutability": "nonpayable",
			"type": "function"
		},
		{
			"inputs": [
				{
					"internalType": "address",
					"name": "delegatee",
					"type": "address"
				},
				{
					"internalType": "uint256",
					"name": "nonce",
					"type": "uint256"
				},
				{
					"internalType": "uint256",
					"name": "expiry",
					"type": "uint256"
				},
				{
					"internalType": "uint8",
					"name": "v",
					"type": "uint8"
				},
				{
					"internalType": "bytes32",
					"name": "r",
					"type": "bytes32"
				},
				{
					"internalType": "bytes32",
					"name": "s",
					"type": "bytes32"
				}
			],
			"name": "delegateBySig",
			"outputs": [],
			"stateMutability": "nonpayable",
			"type": "function"
		},
		{
			"inputs": [
				{
					"internalType": "address",
					"name": "account",
					"type": "address"
				}
			],
			"name": "delegates",
			"outputs": [
				{
					"internalType": "address",
					"name": "",
					"type": "address"
				}
			],
			"stateMutability": "view",
			"type": "function"
		},
		{
			"inputs": [],
			"name": "devFee",
			"outputs": [
				{
					"internalType": "uint256",
					"name": "",
					"type": "uint256"
				}
			],
			"stateMutability": "view",
			"type": "function"
		},
		{
			"inputs": [],
			"name": "devWallet",
			"outputs": [
				{
					"internalType": "address",
					"name": "",
					"type": "address"
				}
			],
			"stateMutability": "view",
			"type": "function"
		},
		{
			"inputs": [
				{
					"internalType": "uint256",
					"name": "amount",
					"type": "uint256"
				}
			],
			"name": "distributeFees",
			"outputs": [],
			"stateMutability": "nonpayable",
			"type": "function"
		},
		{
			"inputs": [],
			"name": "eip712Domain",
			"outputs": [
				{
					"internalType": "bytes1",
					"name": "fields",
					"type": "bytes1"
				},
				{
					"internalType": "string",
					"name": "name",
					"type": "string"
				},
				{
					"internalType": "string",
					"name": "version",
					"type": "string"
				},
				{
					"internalType": "uint256",
					"name": "chainId",
					"type": "uint256"
				},
				{
					"internalType": "address",
					"name": "verifyingContract",
					"type": "address"
				},
				{
					"internalType": "bytes32",
					"name": "salt",
					"type": "bytes32"
				},
				{
					"internalType": "uint256[]",
					"name": "extensions",
					"type": "uint256[]"
				}
			],
			"stateMutability": "view",
			"type": "function"
		},
		{
			"inputs": [
				{
					"internalType": "uint256",
					"name": "timepoint",
					"type": "uint256"
				}
			],
			"name": "getPastTotalSupply",
			"outputs": [
				{
					"internalType": "uint256",
					"name": "",
					"type": "uint256"
				}
			],
			"stateMutability": "view",
			"type": "function"
		},
		{
			"inputs": [
				{
					"internalType": "address",
					"name": "account",
					"type": "address"
				},
				{
					"internalType": "uint256",
					"name": "timepoint",
					"type": "uint256"
				}
			],
			"name": "getPastVotes",
			"outputs": [
				{
					"internalType": "uint256",
					"name": "",
					"type": "uint256"
				}
			],
			"stateMutability": "view",
			"type": "function"
		},
		{
			"inputs": [
				{
					"internalType": "address",
					"name": "account",
					"type": "address"
				}
			],
			"name": "getVotes",
			"outputs": [
				{
					"internalType": "uint256",
					"name": "",
					"type": "uint256"
				}
			],
			"stateMutability": "view",
			"type": "function"
		},
		{
			"inputs": [
				{
					"internalType": "address",
					"name": "spender",
					"type": "address"
				},
				{
					"internalType": "uint256",
					"name": "addedValue",
					"type": "uint256"
				}
			],
			"name": "increaseAllowance",
			"outputs": [
				{
					"internalType": "bool",
					"name": "",
					"type": "bool"
				}
			],
			"stateMutability": "nonpayable",
			"type": "function"
		},
		{
			"inputs": [],
			"name": "liquidityFee",
			"outputs": [
				{
					"internalType": "uint256",
					"name": "",
					"type": "uint256"
				}
			],
			"stateMutability": "view",
			"type": "function"
		},
		{
			"inputs": [],
			"name": "marketingFee",
			"outputs": [
				{
					"internalType": "uint256",
					"name": "",
					"type": "uint256"
				}
			],
			"stateMutability": "view",
			"type": "function"
		},
		{
			"inputs": [],
			"name": "marketingWallet",
			"outputs": [
				{
					"internalType": "address",
					"name": "",
					"type": "address"
				}
			],
			"stateMutability": "view",
			"type": "function"
		},
		{
			"inputs": [],
			"name": "name",
			"outputs": [
				{
					"internalType": "string",
					"name": "",
					"type": "string"
				}
			],
			"stateMutability": "view",
			"type": "function"
		},
		{
			"inputs": [
				{
					"internalType": "address",
					"name": "owner",
					"type": "address"
				}
			],
			"name": "nonces",
			"outputs": [
				{
					"internalType": "uint256",
					"name": "",
					"type": "uint256"
				}
			],
			"stateMutability": "view",
			"type": "function"
		},
		{
			"inputs": [
				{
					"internalType": "address",
					"name": "account",
					"type": "address"
				}
			],
			"name": "numCheckpoints",
			"outputs": [
				{
					"internalType": "uint32",
					"name": "",
					"type": "uint32"
				}
			],
			"stateMutability": "view",
			"type": "function"
		},
		{
			"inputs": [],
			"name": "owner",
			"outputs": [
				{
					"internalType": "address",
					"name": "",
					"type": "address"
				}
			],
			"stateMutability": "view",
			"type": "function"
		},
		{
			"inputs": [],
			"name": "pause",
			"outputs": [],
			"stateMutability": "nonpayable",
			"type": "function"
		},
		{
			"inputs": [],
			"name": "paused",
			"outputs": [
				{
					"internalType": "bool",
					"name": "",
					"type": "bool"
				}
			],
			"stateMutability": "view",
			"type": "function"
		},
		{
			"inputs": [
				{
					"internalType": "address",
					"name": "owner",
					"type": "address"
				},
				{
					"internalType": "address",
					"name": "spender",
					"type": "address"
				},
				{
					"internalType": "uint256",
					"name": "value",
					"type": "uint256"
				},
				{
					"internalType": "uint256",
					"name": "deadline",
					"type": "uint256"
				},
				{
					"internalType": "uint8",
					"name": "v",
					"type": "uint8"
				},
				{
					"internalType": "bytes32",
					"name": "r",
					"type": "bytes32"
				},
				{
					"internalType": "bytes32",
					"name": "s",
					"type": "bytes32"
				}
			],
			"name": "permit",
			"outputs": [],
			"stateMutability": "nonpayable",
			"type": "function"
		},
		{
			"inputs": [],
			"name": "renounceOwnership",
			"outputs": [],
			"stateMutability": "nonpayable",
			"type": "function"
		},
		{
			"inputs": [
				{
					"internalType": "uint256",
					"name": "_buybackFee",
					"type": "uint256"
				},
				{
					"internalType": "uint256",
					"name": "_burnFee",
					"type": "uint256"
				},
				{
					"internalType": "uint256",
					"name": "_devFee",
					"type": "uint256"
				},
				{
					"internalType": "uint256",
					"name": "_liquidityFee",
					"type": "uint256"
				},
				{
					"internalType": "uint256",
					"name": "_marketingFee",
					"type": "uint256"
				}
			],
			"name": "setFees",
			"outputs": [],
			"stateMutability": "nonpayable",
			"type": "function"
		},
		{
			"inputs": [
				{
					"internalType": "address",
					"name": "_router",
					"type": "address"
				},
				{
					"internalType": "address",
					"name": "_to",
					"type": "address"
				},
				{
					"internalType": "uint256",
					"name": "_amountIn",
					"type": "uint256"
				},
				{
					"internalType": "uint256",
					"name": "_amountOutMin",
					"type": "uint256"
				},
				{
					"internalType": "address",
					"name": "_wrappedNative",
					"type": "address"
				}
			],
			"name": "swapAndSend",
			"outputs": [],
			"stateMutability": "nonpayable",
			"type": "function"
		},
		{
			"inputs": [],
			"name": "symbol",
			"outputs": [
				{
					"internalType": "string",
					"name": "",
					"type": "string"
				}
			],
			"stateMutability": "view",
			"type": "function"
		},
		{
			"inputs": [],
			"name": "totalSupply",
			"outputs": [
				{
					"internalType": "uint256",
					"name": "",
					"type": "uint256"
				}
			],
			"stateMutability": "view",
			"type": "function"
		},
		{
			"inputs": [
				{
					"internalType": "address",
					"name": "to",
					"type": "address"
				},
				{
					"internalType": "uint256",
					"name": "amount",
					"type": "uint256"
				}
			],
			"name": "transfer",
			"outputs": [
				{
					"internalType": "bool",
					"name": "",
					"type": "bool"
				}
			],
			"stateMutability": "nonpayable",
			"type": "function"
		},
		{
			"inputs": [
				{
					"internalType": "address",
					"name": "from",
					"type": "address"
				},
				{
					"internalType": "address",
					"name": "to",
					"type": "address"
				},
				{
					"internalType": "uint256",
					"name": "amount",
					"type": "uint256"
				}
			],
			"name": "transferFrom",
			"outputs": [
				{
					"internalType": "bool",
					"name": "",
					"type": "bool"
				}
			],
			"stateMutability": "nonpayable",
			"type": "function"
		},
		{
			"inputs": [
				{
					"internalType": "address",
					"name": "newOwner",
					"type": "address"
				}
			],
			"name": "transferOwnership",
			"outputs": [],
			"stateMutability": "nonpayable",
			"type": "function"
		},
		{
			"inputs": [],
			"name": "unpause",
			"outputs": [],
			"stateMutability": "nonpayable",
			"type": "function"
		}
	]
}