{
	"data": {
		"bytecode": {
			"linkReferences": {},
			"object": "60a060405234801561000f575f5ffd5b50604051610f1d380380610f1d83398181016040528101906100319190610239565b805f73ffffffffffffffffffffffffffffffffffffffff168173ffffffffffffffffffffffffffffffffffffffff16036100a2575f6040517f1e4fbdf70000000000000000000000000000000000000000000000000000000081526004016100999190610286565b60405180910390fd5b6100b18161011a60201b60201c565b508173ffffffffffffffffffffffffffffffffffffffff1660808173ffffffffffffffffffffffffffffffffffffffff16815250506103e86001819055506103e86002819055506103e86003819055506103e86004819055506103e8600581905550505061029f565b5f5f5f9054906101000a900473ffffffffffffffffffffffffffffffffffffffff169050815f5f6101000a81548173ffffffffffffffffffffffffffffffffffffffff021916908373ffffffffffffffffffffffffffffffffffffffff1602179055508173ffffffffffffffffffffffffffffffffffffffff168173ffffffffffffffffffffffffffffffffffffffff167f8be0079c531659141344cd1fd0a4f28419497f9722a3daafe3b4186f6b6457e060405160405180910390a35050565b5f5ffd5b5f73ffffffffffffffffffffffffffffffffffffffff82169050919050565b5f610208826101df565b9050919050565b610218816101fe565b8114610222575f5ffd5b50565b5f815190506102338161020f565b92915050565b5f5f6040838503121561024f5761024e6101db565b5b5f61025c85828601610225565b925050602061026d85828601610225565b9150509250929050565b610280816101fe565b82525050565b5f6020820190506102995f830184610277565b92915050565b608051610c666102b75f395f6105b60152610c665ff3fe608060405234801561000f575f5ffd5b50600436106100e8575f3560e01c80638da5cb5b1161008a578063db8d55f111610064578063db8d55f114610200578063f2fde38b14610223578063fc0c546a1461023f578063fce589d81461025d576100e8565b80638da5cb5b146101a657806398118cb4146101c4578063bc063e1a146101e2576100e8565b80636827e764116100c65780636827e764146101425780636b67c4df14610160578063715018a61461017e5780638137b6a714610188576100e8565b806304a66b48146100ec57806336ff71a6146101085780633b2d081c14610124575b5f5ffd5b61010660048036038101906101019190610819565b61027b565b005b610122600480360381019061011d91906108ea565b61038b565b005b61012c610472565b6040516101399190610949565b60405180910390f35b61014a610478565b6040516101579190610949565b60405180910390f35b61016861047e565b6040516101759190610949565b60405180910390f35b610186610484565b005b610190610497565b60405161019d9190610949565b60405180910390f35b6101ae61049d565b6040516101bb9190610971565b60405180910390f35b6101cc6104c4565b6040516101d99190610949565b60405180910390f35b6101ea6104ca565b6040516101f79190610949565b60405180910390f35b6102086104d0565b60405161021a9695949392919061098a565b60405180910390f35b61023d600480360381019061023891906109e9565b610530565b005b6102476105b4565b6040516102549190610a6f565b60405180910390f35b6102656105d8565b6040516102729190610949565b60405180910390f35b61028361049d565b73ffffffffffffffffffffffffffffffffffffffff163373ffffffffffffffffffffffffffffffffffffffff16146102f0576040517f08c379a00000000000000000000000000000000000000000000000000000000081526004016102e790610ae2565b60405180910390fd5b61271081838587896103029190610b2d565b61030c9190610b2d565b6103169190610b2d565b6103209190610b2d565b1115610361576040517f08c379a000000000000000000000000000000000000000000000000000000000815260040161035890610baa565b60405180910390fd5b84600181905550836002819055508260038190555081600481905550806005819055505050505050565b61039361049d565b73ffffffffffffffffffffffffffffffffffffffff163373ffffffffffffffffffffffffffffffffffffffff1614610400576040517f08c379a00000000000000000000000000000000000000000000000000000000081526004016103f790610ae2565b60405180910390fd5b5f8111610442576040517f08c379a000000000000000000000000000000000000000000000000000000000815260040161043990610c12565b60405180910390fd5b61046d33828473ffffffffffffffffffffffffffffffffffffffff166105de9092919063ffffffff16565b505050565b60015481565b60035481565b60055481565b61048c610631565b6104955f6106b8565b565b61271081565b5f5f5f9054906101000a900473ffffffffffffffffffffffffffffffffffffffff16905090565b60045481565b61271081565b5f5f5f5f5f5f6001546005546003546004546002546104ef9190610b2d565b6104f99190610b2d565b6105039190610b2d565b61050d9190610b2d565b600254600454600354600554600154955095509550955095509550909192939495565b610538610631565b5f73ffffffffffffffffffffffffffffffffffffffff168173ffffffffffffffffffffffffffffffffffffffff16036105a8575f6040517f1e4fbdf700000000000000000000000000000000000000000000000000000000815260040161059f9190610971565b60405180910390fd5b6105b1816106b8565b50565b7f000000000000000000000000000000000000000000000000000000000000000081565b60025481565b6105eb8383836001610779565b61062c57826040517f5274afe70000000000000000000000000000000000000000000000000000000081526004016106239190610971565b60405180910390fd5b505050565b6106396107db565b73ffffffffffffffffffffffffffffffffffffffff1661065761049d565b73ffffffffffffffffffffffffffffffffffffffff16146106b65761067a6107db565b6040517f118cdaa70000000000000000000000000000000000000000000000000000000081526004016106ad9190610971565b60405180910390fd5b565b5f5f5f9054906101000a900473ffffffffffffffffffffffffffffffffffffffff169050815f5f6101000a81548173ffffffffffffffffffffffffffffffffffffffff021916908373ffffffffffffffffffffffffffffffffffffffff1602179055508173ffffffffffffffffffffffffffffffffffffffff168173ffffffffffffffffffffffffffffffffffffffff167f8be0079c531659141344cd1fd0a4f28419497f9722a3daafe3b4186f6b6457e060405160405180910390a35050565b5f5f63a9059cbb60e01b9050604051815f525f1960601c86166004528460245260205f60445f5f8b5af1925060015f511483166107cd5783831516156107c1573d5f823e3d81fd5b5f873b113d1516831692505b806040525050949350505050565b5f33905090565b5f5ffd5b5f819050919050565b6107f8816107e6565b8114610802575f5ffd5b50565b5f81359050610813816107ef565b92915050565b5f5f5f5f5f60a08688031215610832576108316107e2565b5b5f61083f88828901610805565b955050602061085088828901610805565b945050604061086188828901610805565b935050606061087288828901610805565b925050608061088388828901610805565b9150509295509295909350565b5f73ffffffffffffffffffffffffffffffffffffffff82169050919050565b5f6108b982610890565b9050919050565b6108c9816108af565b81146108d3575f5ffd5b50565b5f813590506108e4816108c0565b92915050565b5f5f5f60608486031215610901576109006107e2565b5b5f61090e868287016108d6565b935050602061091f868287016108d6565b925050604061093086828701610805565b9150509250925092565b610943816107e6565b82525050565b5f60208201905061095c5f83018461093a565b92915050565b61096b816108af565b82525050565b5f6020820190506109845f830184610962565b92915050565b5f60c08201905061099d5f83018961093a565b6109aa602083018861093a565b6109b7604083018761093a565b6109c4606083018661093a565b6109d1608083018561093a565b6109de60a083018461093a565b979650505050505050565b5f602082840312156109fe576109fd6107e2565b5b5f610a0b848285016108d6565b91505092915050565b5f819050919050565b5f610a37610a32610a2d84610890565b610a14565b610890565b9050919050565b5f610a4882610a1d565b9050919050565b5f610a5982610a3e565b9050919050565b610a6981610a4f565b82525050565b5f602082019050610a825f830184610a60565b92915050565b5f82825260208201905092915050565b7f4f6e6c79206f776e6572000000000000000000000000000000000000000000005f82015250565b5f610acc600a83610a88565b9150610ad782610a98565b602082019050919050565b5f6020820190508181035f830152610af981610ac0565b9050919050565b7f4e487b71000000000000000000000000000000000000000000000000000000005f52601160045260245ffd5b5f610b37826107e6565b9150610b42836107e6565b9250828201905080821115610b5a57610b59610b00565b5b92915050565b7f546f74616c206d757374206265203c3d203130302500000000000000000000005f82015250565b5f610b94601583610a88565b9150610b9f82610b60565b602082019050919050565b5f6020820190508181035f830152610bc181610b88565b9050919050565b7f416d6f756e74206d757374206265203e203000000000000000000000000000005f82015250565b5f610bfc601283610a88565b9150610c0782610bc8565b602082019050919050565b5f6020820190508181035f830152610c2981610bf0565b905091905056fea26469706673582212201240059ab5a87551c9acb01c731b66a1f7e479fc672c1cdb44e98dd9e7fa9b8e64736f6c634300081e0033",
			"opcodes": "PUSH1 0xA0 PUSH1 0x40 MSTORE CALLVALUE DUP1 ISZERO PUSH2 0xF JUMPI PUSH0 PUSH0 REVERT JUMPDEST POP PUSH1 0x40 MLOAD PUSH2 0xF1D CODESIZE SUB DUP1 PUSH2 0xF1D DUP4 CODECOPY DUP2 DUP2 ADD PUSH1 0x40 MSTORE DUP2 ADD SWAP1 PUSH2 0x31 SWAP2 SWAP1 PUSH2 0x239 JUMP JUMPDEST DUP1 PUSH0 PUSH20 0xFFFFFFFFFFFFFFFFFFFFFFFFFFFFFFFFFFFFFFFF AND DUP2 PUSH20 0xFFFFFFFFFFFFFFFFFFFFFFFFFFFFFFFFFFFFFFFF AND SUB PUSH2 0xA2 JUMPI PUSH0 PUSH1 0x40 MLOAD PUSH32 0x1E4FBDF700000000000000000000000000000000000000000000000000000000 DUP2 MSTORE PUSH1 0x4 ADD PUSH2 0x99 SWAP2 SWAP1 PUSH2 0x286 JUMP JUMPDEST PUSH1 0x40 MLOAD DUP1 SWAP2 SUB SWAP1 REVERT JUMPDEST PUSH2 0xB1 DUP2 PUSH2 0x11A PUSH1 0x20 SHL PUSH1 0x20 SHR JUMP JUMPDEST POP DUP2 PUSH20 0xFFFFFFFFFFFFFFFFFFFFFFFFFFFFFFFFFFFFFFFF AND PUSH1 0x80 DUP2 PUSH20 0xFFFFFFFFFFFFFFFFFFFFFFFFFFFFFFFFFFFFFFFF AND DUP2 MSTORE POP POP PUSH2 0x3E8 PUSH1 0x1 DUP2 SWAP1 SSTORE POP PUSH2 0x3E8 PUSH1 0x2 DUP2 SWAP1 SSTORE POP PUSH2 0x3E8 PUSH1 0x3 DUP2 SWAP1 SSTORE POP PUSH2 0x3E8 PUSH1 0x4 DUP2 SWAP1 SSTORE POP PUSH2 0x3E8 PUSH1 0x5 DUP2 SWAP1 SSTORE POP POP POP PUSH2 0x29F JUMP JUMPDEST PUSH0 PUSH0 PUSH0 SWAP1 SLOAD SWAP1 PUSH2 0x100 EXP SWAP1 DIV PUSH20 0xFFFFFFFFFFFFFFFFFFFFFFFFFFFFFFFFFFFFFFFF AND SWAP1 POP DUP2 PUSH0 PUSH0 PUSH2 0x100 EXP DUP2 SLOAD DUP2 PUSH20 0xFFFFFFFFFFFFFFFFFFFFFFFFFFFFFFFFFFFFFFFF MUL NOT AND SWAP1 DUP4 PUSH20 0xFFFFFFFFFFFFFFFFFFFFFFFFFFFFFFFFFFFFFFFF AND MUL OR SWAP1 SSTORE POP DUP2 PUSH20 0xFFFFFFFFFFFFFFFFFFFFFFFFFFFFFFFFFFFFFFFF AND DUP2 PUSH20 0xFFFFFFFFFFFFFFFFFFFFFFFFFFFFFFFFFFFFFFFF AND PUSH32 0x8BE0079C531659141344CD1FD0A4F28419497F9722A3DAAFE3B4186F6B6457E0 PUSH1 0x40 MLOAD PUSH1 0x40 MLOAD DUP1 SWAP2 SUB SWAP1 LOG3 POP POP JUMP JUMPDEST PUSH0 PUSH0 REVERT JUMPDEST PUSH0 PUSH20 0xFFFFFFFFFFFFFFFFFFFFFFFFFFFFFFFFFFFFFFFF DUP3 AND SWAP1 POP SWAP2 SWAP1 POP JUMP JUMPDEST PUSH0 PUSH2 0x208 DUP3 PUSH2 0x1DF JUMP JUMPDEST SWAP1 POP SWAP2 SWAP1 POP JUMP JUMPDEST PUSH2 0x218 DUP2 PUSH2 0x1FE JUMP JUMPDEST DUP2 EQ PUSH2 0x222 JUMPI PUSH0 PUSH0 REVERT JUMPDEST POP JUMP JUMPDEST PUSH0 DUP2 MLOAD SWAP1 POP PUSH2 0x233 DUP2 PUSH2 0x20F JUMP JUMPDEST SWAP3 SWAP2 POP POP JUMP JUMPDEST PUSH0 PUSH0 PUSH1 0x40 DUP4 DUP6 SUB SLT ISZERO PUSH2 0x24F JUMPI PUSH2 0x24E PUSH2 0x1DB JUMP JUMPDEST JUMPDEST PUSH0 PUSH2 0x25C DUP6 DUP3 DUP7 ADD PUSH2 0x225 JUMP JUMPDEST SWAP3 POP POP PUSH1 0x20 PUSH2 0x26D DUP6 DUP3 DUP7 ADD PUSH2 0x225 JUMP JUMPDEST SWAP2 POP POP SWAP3 POP SWAP3 SWAP1 POP JUMP JUMPDEST PUSH2 0x280 DUP2 PUSH2 0x1FE JUMP JUMPDEST DUP3 MSTORE POP POP JUMP JUMPDEST PUSH0 PUSH1 0x20 DUP3 ADD SWAP1 POP PUSH2 0x299 PUSH0 DUP4 ADD DUP5 PUSH2 0x277 JUMP JUMPDEST SWAP3 SWAP2 POP POP JUMP JUMPDEST PUSH1 0x80 MLOAD PUSH2 0xC66 PUSH2 0x2B7 PUSH0 CODECOPY PUSH0 PUSH2 0x5B6 ADD MSTORE PUSH2 0xC66 PUSH0 RETURN INVALID PUSH1 0x80 PUSH1 0x40 MSTORE CALLVALUE DUP1 ISZERO PUSH2 0xF JUMPI PUSH0 PUSH0 REVERT JUMPDEST POP PUSH1 0x4 CALLDATASIZE LT PUSH2 0xE8 JUMPI PUSH0 CALLDATALOAD PUSH1 0xE0 SHR DUP1 PUSH4 0x8DA5CB5B GT PUSH2 0x8A JUMPI DUP1 PUSH4 0xDB8D55F1 GT PUSH2 0x64 JUMPI DUP1 PUSH4 0xDB8D55F1 EQ PUSH2 0x200 JUMPI DUP1 PUSH4 0xF2FDE38B EQ PUSH2 0x223 JUMPI DUP1 PUSH4 0xFC0C546A EQ PUSH2 0x23F JUMPI DUP1 PUSH4 0xFCE589D8 EQ PUSH2 0x25D JUMPI PUSH2 0xE8 JUMP JUMPDEST DUP1 PUSH4 0x8DA5CB5B EQ PUSH2 0x1A6 JUMPI DUP1 PUSH4 0x98118CB4 EQ PUSH2 0x1C4 JUMPI DUP1 PUSH4 0xBC063E1A EQ PUSH2 0x1E2 JUMPI PUSH2 0xE8 JUMP JUMPDEST DUP1 PUSH4 0x6827E764 GT PUSH2 0xC6 JUMPI DUP1 PUSH4 0x6827E764 EQ PUSH2 0x142 JUMPI DUP1 PUSH4 0x6B67C4DF EQ PUSH2 0x160 JUMPI DUP1 PUSH4 0x715018A6 EQ PUSH2 0x17E JUMPI DUP1 PUSH4 0x8137B6A7 EQ PUSH2 0x188 JUMPI PUSH2 0xE8 JUMP JUMPDEST DUP1 PUSH4 0x4A66B48 EQ PUSH2 0xEC JUMPI DUP1 PUSH4 0x36FF71A6 EQ PUSH2 0x108 JUMPI DUP1 PUSH4 0x3B2D081C EQ PUSH2 0x124 JUMPI JUMPDEST PUSH0 PUSH0 REVERT JUMPDEST PUSH2 0x106 PUSH1 0x4 DUP1 CALLDATASIZE SUB DUP2 ADD SWAP1 PUSH2 0x101 SWAP2 SWAP1 PUSH2 0x819 JUMP JUMPDEST PUSH2 0x27B JUMP JUMPDEST STOP JUMPDEST PUSH2 0x122 PUSH1 0x4 DUP1 CALLDATASIZE SUB DUP2 ADD SWAP1 PUSH2 0x11D SWAP2 SWAP1 PUSH2 0x8EA JUMP JUMPDEST PUSH2 0x38B JUMP JUMPDEST STOP JUMPDEST PUSH2 0x12C PUSH2 0x472 JUMP JUMPDEST PUSH1 0x40 MLOAD PUSH2 0x139 SWAP2 SWAP1 PUSH2 0x949 JUMP JUMPDEST PUSH1 0x40 MLOAD DUP1 SWAP2 SUB SWAP1 RETURN JUMPDEST PUSH2 0x14A PUSH2 0x478 JUMP JUMPDEST PUSH1 0x40 MLOAD PUSH2 0x157 SWAP2 SWAP1 PUSH2 0x949 JUMP JUMPDEST PUSH1 0x40 MLOAD DUP1 SWAP2 SUB SWAP1 RETURN JUMPDEST PUSH2 0x168 PUSH2 0x47E JUMP JUMPDEST PUSH1 0x40 MLOAD PUSH2 0x175 SWAP2 SWAP1 PUSH2 0x949 JUMP JUMPDEST PUSH1 0x40 MLOAD DUP1 SWAP2 SUB SWAP1 RETURN JUMPDEST PUSH2 0x186 PUSH2 0x484 JUMP JUMPDEST STOP JUMPDEST PUSH2 0x190 PUSH2 0x497 JUMP JUMPDEST PUSH1 0x40 MLOAD PUSH2 0x19D SWAP2 SWAP1 PUSH2 0x949 JUMP JUMPDEST PUSH1 0x40 MLOAD DUP1 SWAP2 SUB SWAP1 RETURN JUMPDEST PUSH2 0x1AE PUSH2 0x49D JUMP JUMPDEST PUSH1 0x40 MLOAD PUSH2 0x1BB SWAP2 SWAP1 PUSH2 0x971 JUMP JUMPDEST PUSH1 0x40 MLOAD DUP1 SWAP2 SUB SWAP1 RETURN JUMPDEST PUSH2 0x1CC PUSH2 0x4C4 JUMP JUMPDEST PUSH1 0x40 MLOAD PUSH2 0x1D9 SWAP2 SWAP1 PUSH2 0x949 JUMP JUMPDEST PUSH1 0x40 MLOAD DUP1 SWAP2 SUB SWAP1 RETURN JUMPDEST PUSH2 0x1EA PUSH2 0x4CA JUMP JUMPDEST PUSH1 0x40 MLOAD PUSH2 0x1F7 SWAP2 SWAP1 PUSH2 0x949 JUMP JUMPDEST PUSH1 0x40 MLOAD DUP1 SWAP2 SUB SWAP1 RETURN JUMPDEST PUSH2 0x208 PUSH2 0x4D0 JUMP JUMPDEST PUSH1 0x40 MLOAD PUSH2 0x21A SWAP7 SWAP6 SWAP5 SWAP4 SWAP3 SWAP2 SWAP1 PUSH2 0x98A JUMP JUMPDEST PUSH1 0x40 MLOAD DUP1 SWAP2 SUB SWAP1 RETURN JUMPDEST PUSH2 0x23D PUSH1 0x4 DUP1 CALLDATASIZE SUB DUP2 ADD SWAP1 PUSH2 0x238 SWAP2 SWAP1 PUSH2 0x9E9 JUMP JUMPDEST PUSH2 0x530 JUMP JUMPDEST STOP JUMPDEST PUSH2 0x247 PUSH2 0x5B4 JUMP JUMPDEST PUSH1 0x40 MLOAD PUSH2 0x254 SWAP2 SWAP1 PUSH2 0xA6F JUMP JUMPDEST PUSH1 0x40 MLOAD DUP1 SWAP2 SUB SWAP1 RETURN JUMPDEST PUSH2 0x265 PUSH2 0x5D8 JUMP JUMPDEST PUSH1 0x40 MLOAD PUSH2 0x272 SWAP2 SWAP1 PUSH2 0x949 JUMP JUMPDEST PUSH1 0x40 MLOAD DUP1 SWAP2 SUB SWAP1 RETURN JUMPDEST PUSH2 0x283 PUSH2 0x49D JUMP JUMPDEST PUSH20 0xFFFFFFFFFFFFFFFFFFFFFFFFFFFFFFFFFFFFFFFF AND CALLER PUSH20 0xFFFFFFFFFFFFFFFFFFFFFFFFFFFFFFFFFFFFFFFF AND EQ PUSH2 0x2F0 JUMPI PUSH1 0x40 MLOAD PUSH32 0x8C379A000000000000000000000000000000000000000000000000000000000 DUP2 MSTORE PUSH1 0x4 ADD PUSH2 0x2E7 SWAP1 PUSH2 0xAE2 JUMP JUMPDEST PUSH1 0x40 MLOAD DUP1 SWAP2 SUB SWAP1 REVERT JUMPDEST PUSH2 0x2710 DUP2 DUP4 DUP6 DUP8 DUP10 PUSH2 0x302 SWAP2 SWAP1 PUSH2 0xB2D JUMP JUMPDEST PUSH2 0x30C SWAP2 SWAP1 PUSH2 0xB2D JUMP JUMPDEST PUSH2 0x316 SWAP2 SWAP1 PUSH2 0xB2D JUMP JUMPDEST PUSH2 0x320 SWAP2 SWAP1 PUSH2 0xB2D JUMP JUMPDEST GT ISZERO PUSH2 0x361 JUMPI PUSH1 0x40 MLOAD PUSH32 0x8C379A000000000000000000000000000000000000000000000000000000000 DUP2 MSTORE PUSH1 0x4 ADD PUSH2 0x358 SWAP1 PUSH2 0xBAA JUMP JUMPDEST PUSH1 0x40 MLOAD DUP1 SWAP2 SUB SWAP1 REVERT JUMPDEST DUP5 PUSH1 0x1 DUP2 SWAP1 SSTORE POP DUP4 PUSH1 0x2 DUP2 SWAP1 SSTORE POP DUP3 PUSH1 0x3 DUP2 SWAP1 SSTORE POP DUP2 PUSH1 0x4 DUP2 SWAP1 SSTORE POP DUP1 PUSH1 0x5 DUP2 SWAP1 SSTORE POP POP POP POP POP POP JUMP JUMPDEST PUSH2 0x393 PUSH2 0x49D JUMP JUMPDEST PUSH20 0xFFFFFFFFFFFFFFFFFFFFFFFFFFFFFFFFFFFFFFFF AND CALLER PUSH20 0xFFFFFFFFFFFFFFFFFFFFFFFFFFFFFFFFFFFFFFFF AND EQ PUSH2 0x400 JUMPI PUSH1 0x40 MLOAD PUSH32 0x8C379A000000000000000000000000000000000000000000000000000000000 DUP2 MSTORE PUSH1 0x4 ADD PUSH2 0x3F7 SWAP1 PUSH2 0xAE2 JUMP JUMPDEST PUSH1 0x40 MLOAD DUP1 SWAP2 SUB SWAP1 REVERT JUMPDEST PUSH0 DUP2 GT PUSH2 0x442 JUMPI PUSH1 0x40 MLOAD PUSH32 0x8C379A000000000000000000000000000000000000000000000000000000000 DUP2 MSTORE PUSH1 0x4 ADD PUSH2 0x439 SWAP1 PUSH2 0xC12 JUMP JUMPDEST PUSH1 0x40 MLOAD DUP1 SWAP2 SUB SWAP1 REVERT JUMPDEST PUSH2 0x46D CALLER DUP3 DUP5 PUSH20 0xFFFFFFFFFFFFFFFFFFFFFFFFFFFFFFFFFFFFFFFF AND PUSH2 0x5DE SWAP1 SWAP3 SWAP2 SWAP1 PUSH4 0xFFFFFFFF AND JUMP JUMPDEST POP POP POP JUMP JUMPDEST PUSH1 0x1 SLOAD DUP2 JUMP JUMPDEST PUSH1 0x3 SLOAD DUP2 JUMP JUMPDEST PUSH1 0x5 SLOAD DUP2 JUMP JUMPDEST PUSH2 0x48C PUSH2 0x631 JUMP JUMPDEST PUSH2 0x495 PUSH0 PUSH2 0x6B8 JUMP JUMPDEST JUMP JUMPDEST PUSH2 0x2710 DUP2 JUMP JUMPDEST PUSH0 PUSH0 PUSH0 SWAP1 SLOAD SWAP1 PUSH2 0x100 EXP SWAP1 DIV PUSH20 0xFFFFFFFFFFFFFFFFFFFFFFFFFFFFFFFFFFFFFFFF AND SWAP1 POP SWAP1 JUMP JUMPDEST PUSH1 0x4 SLOAD DUP2 JUMP JUMPDEST PUSH2 0x2710 DUP2 JUMP JUMPDEST PUSH0 PUSH0 PUSH0 PUSH0 PUSH0 PUSH0 PUSH1 0x1 SLOAD PUSH1 0x5 SLOAD PUSH1 0x3 SLOAD PUSH1 0x4 SLOAD PUSH1 0x2 SLOAD PUSH2 0x4EF SWAP2 SWAP1 PUSH2 0xB2D JUMP JUMPDEST PUSH2 0x4F9 SWAP2 SWAP1 PUSH2 0xB2D JUMP JUMPDEST PUSH2 0x503 SWAP2 SWAP1 PUSH2 0xB2D JUMP JUMPDEST PUSH2 0x50D SWAP2 SWAP1 PUSH2 0xB2D JUMP JUMPDEST PUSH1 0x2 SLOAD PUSH1 0x4 SLOAD PUSH1 0x3 SLOAD PUSH1 0x5 SLOAD PUSH1 0x1 SLOAD SWAP6 POP SWAP6 POP SWAP6 POP SWAP6 POP SWAP6 POP SWAP6 POP SWAP1 SWAP2 SWAP3 SWAP4 SWAP5 SWAP6 JUMP JUMPDEST PUSH2 0x538 PUSH2 0x631 JUMP JUMPDEST PUSH0 PUSH20 0xFFFFFFFFFFFFFFFFFFFFFFFFFFFFFFFFFFFFFFFF AND DUP2 PUSH20 0xFFFFFFFFFFFFFFFFFFFFFFFFFFFFFFFFFFFFFFFF AND SUB PUSH2 0x5A8 JUMPI PUSH0 PUSH1 0x40 MLOAD PUSH32 0x1E4FBDF700000000000000000000000000000000000000000000000000000000 DUP2 MSTORE PUSH1 0x4 ADD PUSH2 0x59F SWAP2 SWAP1 PUSH2 0x971 JUMP JUMPDEST PUSH1 0x40 MLOAD DUP1 SWAP2 SUB SWAP1 REVERT JUMPDEST PUSH2 0x5B1 DUP2 PUSH2 0x6B8 JUMP JUMPDEST POP JUMP JUMPDEST PUSH32 0x0 DUP2 JUMP JUMPDEST PUSH1 0x2 SLOAD DUP2 JUMP JUMPDEST PUSH2 0x5EB DUP4 DUP4 DUP4 PUSH1 0x1 PUSH2 0x779 JUMP JUMPDEST PUSH2 0x62C JUMPI DUP3 PUSH1 0x40 MLOAD PUSH32 0x5274AFE700000000000000000000000000000000000000000000000000000000 DUP2 MSTORE PUSH1 0x4 ADD PUSH2 0x623 SWAP2 SWAP1 PUSH2 0x971 JUMP JUMPDEST PUSH1 0x40 MLOAD DUP1 SWAP2 SUB SWAP1 REVERT JUMPDEST POP POP POP JUMP JUMPDEST PUSH2 0x639 PUSH2 0x7DB JUMP JUMPDEST PUSH20 0xFFFFFFFFFFFFFFFFFFFFFFFFFFFFFFFFFFFFFFFF AND PUSH2 0x657 PUSH2 0x49D JUMP JUMPDEST PUSH20 0xFFFFFFFFFFFFFFFFFFFFFFFFFFFFFFFFFFFFFFFF AND EQ PUSH2 0x6B6 JUMPI PUSH2 0x67A PUSH2 0x7DB JUMP JUMPDEST PUSH1 0x40 MLOAD PUSH32 0x118CDAA700000000000000000000000000000000000000000000000000000000 DUP2 MSTORE PUSH1 0x4 ADD PUSH2 0x6AD SWAP2 SWAP1 PUSH2 0x971 JUMP JUMPDEST PUSH1 0x40 MLOAD DUP1 SWAP2 SUB SWAP1 REVERT JUMPDEST JUMP JUMPDEST PUSH0 PUSH0 PUSH0 SWAP1 SLOAD SWAP1 PUSH2 0x100 EXP SWAP1 DIV PUSH20 0xFFFFFFFFFFFFFFFFFFFFFFFFFFFFFFFFFFFFFFFF AND SWAP1 POP DUP2 PUSH0 PUSH0 PUSH2 0x100 EXP DUP2 SLOAD DUP2 PUSH20 0xFFFFFFFFFFFFFFFFFFFFFFFFFFFFFFFFFFFFFFFF MUL NOT AND SWAP1 DUP4 PUSH20 0xFFFFFFFFFFFFFFFFFFFFFFFFFFFFFFFFFFFFFFFF AND MUL OR SWAP1 SSTORE POP DUP2 PUSH20 0xFFFFFFFFFFFFFFFFFFFFFFFFFFFFFFFFFFFFFFFF AND DUP2 PUSH20 0xFFFFFFFFFFFFFFFFFFFFFFFFFFFFFFFFFFFFFFFF AND PUSH32 0x8BE0079C531659141344CD1FD0A4F28419497F9722A3DAAFE3B4186F6B6457E0 PUSH1 0x40 MLOAD PUSH1 0x40 MLOAD DUP1 SWAP2 SUB SWAP1 LOG3 POP POP JUMP JUMPDEST PUSH0 PUSH0 PUSH4 0xA9059CBB PUSH1 0xE0 SHL SWAP1 POP PUSH1 0x40 MLOAD DUP2 PUSH0 MSTORE PUSH0 NOT PUSH1 0x60 SHR DUP7 AND PUSH1 0x4 MSTORE DUP5 PUSH1 0x24 MSTORE PUSH1 0x20 PUSH0 PUSH1 0x44 PUSH0 PUSH0 DUP12 GAS CALL SWAP3 POP PUSH1 0x1 PUSH0 MLOAD EQ DUP4 AND PUSH2 0x7CD JUMPI DUP4 DUP4 ISZERO AND ISZERO PUSH2 0x7C1 JUMPI RETURNDATASIZE PUSH0 DUP3 RETURNDATACOPY RETURNDATASIZE DUP2 REVERT JUMPDEST PUSH0 DUP8 EXTCODESIZE GT RETURNDATASIZE ISZERO AND DUP4 AND SWAP3 POP JUMPDEST DUP1 PUSH1 0x40 MSTORE POP POP SWAP5 SWAP4 POP POP POP POP JUMP JUMPDEST PUSH0 CALLER SWAP1 POP SWAP1 JUMP JUMPDEST PUSH0 PUSH0 REVERT JUMPDEST PUSH0 DUP2 SWAP1 POP SWAP2 SWAP1 POP JUMP JUMPDEST PUSH2 0x7F8 DUP2 PUSH2 0x7E6 JUMP JUMPDEST DUP2 EQ PUSH2 0x802 JUMPI PUSH0 PUSH0 REVERT JUMPDEST POP JUMP JUMPDEST PUSH0 DUP2 CALLDATALOAD SWAP1 POP PUSH2 0x813 DUP2 PUSH2 0x7EF JUMP JUMPDEST SWAP3 SWAP2 POP POP JUMP JUMPDEST PUSH0 PUSH0 PUSH0 PUSH0 PUSH0 PUSH1 0xA0 DUP7 DUP9 SUB SLT ISZERO PUSH2 0x832 JUMPI PUSH2 0x831 PUSH2 0x7E2 JUMP JUMPDEST JUMPDEST PUSH0 PUSH2 0x83F DUP9 DUP3 DUP10 ADD PUSH2 0x805 JUMP JUMPDEST SWAP6 POP POP PUSH1 0x20 PUSH2 0x850 DUP9 DUP3 DUP10 ADD PUSH2 0x805 JUMP JUMPDEST SWAP5 POP POP PUSH1 0x40 PUSH2 0x861 DUP9 DUP3 DUP10 ADD PUSH2 0x805 JUMP JUMPDEST SWAP4 POP POP PUSH1 0x60 PUSH2 0x872 DUP9 DUP3 DUP10 ADD PUSH2 0x805 JUMP JUMPDEST SWAP3 POP POP PUSH1 0x80 PUSH2 0x883 DUP9 DUP3 DUP10 ADD PUSH2 0x805 JUMP JUMPDEST SWAP2 POP POP SWAP3 SWAP6 POP SWAP3 SWAP6 SWAP1 SWAP4 POP JUMP JUMPDEST PUSH0 PUSH20 0xFFFFFFFFFFFFFFFFFFFFFFFFFFFFFFFFFFFFFFFF DUP3 AND SWAP1 POP SWAP2 SWAP1 POP JUMP JUMPDEST PUSH0 PUSH2 0x8B9 DUP3 PUSH2 0x890 JUMP JUMPDEST SWAP1 POP SWAP2 SWAP1 POP JUMP JUMPDEST PUSH2 0x8C9 DUP2 PUSH2 0x8AF JUMP JUMPDEST DUP2 EQ PUSH2 0x8D3 JUMPI PUSH0 PUSH0 REVERT JUMPDEST POP JUMP JUMPDEST PUSH0 DUP2 CALLDATALOAD SWAP1 POP PUSH2 0x8E4 DUP2 PUSH2 0x8C0 JUMP JUMPDEST SWAP3 SWAP2 POP POP JUMP JUMPDEST PUSH0 PUSH0 PUSH0 PUSH1 0x60 DUP5 DUP7 SUB SLT ISZERO PUSH2 0x901 JUMPI PUSH2 0x900 PUSH2 0x7E2 JUMP JUMPDEST JUMPDEST PUSH0 PUSH2 0x90E DUP7 DUP3 DUP8 ADD PUSH2 0x8D6 JUMP JUMPDEST SWAP4 POP POP PUSH1 0x20 PUSH2 0x91F DUP7 DUP3 DUP8 ADD PUSH2 0x8D6 JUMP JUMPDEST SWAP3 POP POP PUSH1 0x40 PUSH2 0x930 DUP7 DUP3 DUP8 ADD PUSH2 0x805 JUMP JUMPDEST SWAP2 POP POP SWAP3 POP SWAP3 POP SWAP3 JUMP JUMPDEST PUSH2 0x943 DUP2 PUSH2 0x7E6 JUMP JUMPDEST DUP3 MSTORE POP POP JUMP JUMPDEST PUSH0 PUSH1 0x20 DUP3 ADD SWAP1 POP PUSH2 0x95C PUSH0 DUP4 ADD DUP5 PUSH2 0x93A JUMP JUMPDEST SWAP3 SWAP2 POP POP JUMP JUMPDEST PUSH2 0x96B DUP2 PUSH2 0x8AF JUMP JUMPDEST DUP3 MSTORE POP POP JUMP JUMPDEST PUSH0 PUSH1 0x20 DUP3 ADD SWAP1 POP PUSH2 0x984 PUSH0 DUP4 ADD DUP5 PUSH2 0x962 JUMP JUMPDEST SWAP3 SWAP2 POP POP JUMP JUMPDEST PUSH0 PUSH1 0xC0 DUP3 ADD SWAP1 POP PUSH2 0x99D PUSH0 DUP4 ADD DUP10 PUSH2 0x93A JUMP JUMPDEST PUSH2 0x9AA PUSH1 0x20 DUP4 ADD DUP9 PUSH2 0x93A JUMP JUMPDEST PUSH2 0x9B7 PUSH1 0x40 DUP4 ADD DUP8 PUSH2 0x93A JUMP JUMPDEST PUSH2 0x9C4 PUSH1 0x60 DUP4 ADD DUP7 PUSH2 0x93A JUMP JUMPDEST PUSH2 0x9D1 PUSH1 0x80 DUP4 ADD DUP6 PUSH2 0x93A JUMP JUMPDEST PUSH2 0x9DE PUSH1 0xA0 DUP4 ADD DUP5 PUSH2 0x93A JUMP JUMPDEST SWAP8 SWAP7 POP POP POP POP POP POP POP JUMP JUMPDEST PUSH0 PUSH1 0x20 DUP3 DUP5 SUB SLT ISZERO PUSH2 0x9FE JUMPI PUSH2 0x9FD PUSH2 0x7E2 JUMP JUMPDEST JUMPDEST PUSH0 PUSH2 0xA0B DUP5 DUP3 DUP6 ADD PUSH2 0x8D6 JUMP JUMPDEST SWAP2 POP POP SWAP3 SWAP2 POP POP JUMP JUMPDEST PUSH0 DUP2 SWAP1 POP SWAP2 SWAP1 POP JUMP JUMPDEST PUSH0 PUSH2 0xA37 PUSH2 0xA32 PUSH2 0xA2D DUP5 PUSH2 0x890 JUMP JUMPDEST PUSH2 0xA14 JUMP JUMPDEST PUSH2 0x890 JUMP JUMPDEST SWAP1 POP SWAP2 SWAP1 POP JUMP JUMPDEST PUSH0 PUSH2 0xA48 DUP3 PUSH2 0xA1D JUMP JUMPDEST SWAP1 POP SWAP2 SWAP1 POP JUMP JUMPDEST PUSH0 PUSH2 0xA59 DUP3 PUSH2 0xA3E JUMP JUMPDEST SWAP1 POP SWAP2 SWAP1 POP JUMP JUMPDEST PUSH2 0xA69 DUP2 PUSH2 0xA4F JUMP JUMPDEST DUP3 MSTORE POP POP JUMP JUMPDEST PUSH0 PUSH1 0x20 DUP3 ADD SWAP1 POP PUSH2 0xA82 PUSH0 DUP4 ADD DUP5 PUSH2 0xA60 JUMP JUMPDEST SWAP3 SWAP2 POP POP JUMP JUMPDEST PUSH0 DUP3 DUP3 MSTORE PUSH1 0x20 DUP3 ADD SWAP1 POP SWAP3 SWAP2 POP POP JUMP JUMPDEST PUSH32 0x4F6E6C79206F776E657200000000000000000000000000000000000000000000 PUSH0 DUP3 ADD MSTORE POP JUMP JUMPDEST PUSH0 PUSH2 0xACC PUSH1 0xA DUP4 PUSH2 0xA88 JUMP JUMPDEST SWAP2 POP PUSH2 0xAD7 DUP3 PUSH2 0xA98 JUMP JUMPDEST PUSH1 0x20 DUP3 ADD SWAP1 POP SWAP2 SWAP1 POP JUMP JUMPDEST PUSH0 PUSH1 0x20 DUP3 ADD SWAP1 POP DUP2 DUP2 SUB PUSH0 DUP4 ADD MSTORE PUSH2 0xAF9 DUP2 PUSH2 0xAC0 JUMP JUMPDEST SWAP1 POP SWAP2 SWAP1 POP JUMP JUMPDEST PUSH32 0x4E487B7100000000000000000000000000000000000000000000000000000000 PUSH0 MSTORE PUSH1 0x11 PUSH1 0x4 MSTORE PUSH1 0x24 PUSH0 REVERT JUMPDEST PUSH0 PUSH2 0xB37 DUP3 PUSH2 0x7E6 JUMP JUMPDEST SWAP2 POP PUSH2 0xB42 DUP4 PUSH2 0x7E6 JUMP JUMPDEST SWAP3 POP DUP3 DUP3 ADD SWAP1 POP DUP1 DUP3 GT ISZERO PUSH2 0xB5A JUMPI PUSH2 0xB59 PUSH2 0xB00 JUMP JUMPDEST JUMPDEST SWAP3 SWAP2 POP POP JUMP JUMPDEST PUSH32 0x546F74616C206D757374206265203C3D20313030250000000000000000000000 PUSH0 DUP3 ADD MSTORE POP JUMP JUMPDEST PUSH0 PUSH2 0xB94 PUSH1 0x15 DUP4 PUSH2 0xA88 JUMP JUMPDEST SWAP2 POP PUSH2 0xB9F DUP3 PUSH2 0xB60 JUMP JUMPDEST PUSH1 0x20 DUP3 ADD SWAP1 POP SWAP2 SWAP1 POP JUMP JUMPDEST PUSH0 PUSH1 0x20 DUP3 ADD SWAP1 POP DUP2 DUP2 SUB PUSH0 DUP4 ADD MSTORE PUSH2 0xBC1 DUP2 PUSH2 0xB88 JUMP JUMPDEST SWAP1 POP SWAP2 SWAP1 POP JUMP JUMPDEST PUSH32 0x416D6F756E74206D757374206265203E20300000000000000000000000000000 PUSH0 DUP3 ADD MSTORE POP JUMP JUMPDEST PUSH0 PUSH2 0xBFC PUSH1 0x12 DUP4 PUSH2 0xA88 JUMP JUMPDEST SWAP2 POP PUSH2 0xC07 DUP3 PUSH2 0xBC8 JUMP JUMPDEST PUSH1 0x20 DUP3 ADD SWAP1 POP SWAP2 SWAP1 POP JUMP JUMPDEST PUSH0 PUSH1 0x20 DUP3 ADD SWAP1 POP DUP2 DUP2 SUB PUSH0 DUP4 ADD MSTORE PUSH2 0xC29 DUP2 PUSH2 0xBF0 JUMP JUMPDEST SWAP1 POP SWAP2 SWAP1 POP JUMP INVALID LOG2 PUSH5 0x6970667358 0x22 SLT KECCAK256 SLT BLOCKHASH SDIV SWAP11 0xB5 0xA8 PUSH22 0x51C9ACB01C731B66A1F7E479FC672C1CDB44E98DD9E7 STATICCALL SWAP12 DUP15 PUSH5 0x736F6C6343 STOP ADDMOD 0x1E STOP CALLER "
		},
		"gasEstimates": {
			"creation": {
				"codeDepositCost": "634800",
				"executionCost": "infinite",
				"totalCost": "infinite"
			},
			"external": {
				"MAX_FEE()": "392",
				"MAX_FEE_INTERNAL()": "414",
				"burnFee()": "2513",
				"buybackFee()": "2493",
				"devFee()": "2448",
				"getFees()": "infinite",
				"liquidityFee()": "2470",
				"marketingFee()": "2470",
				"owner()": "2537",
				"renounceOwnership()": "infinite",
				"setFees(uint256,uint256,uint256,uint256,uint256)": "infinite",
				"swapAndSend(address,address,uint256)": "infinite",
				"token()": "infinite",
				"transferOwnership(address)": "infinite"
			}
		},
		"methodIdentifiers": {
			"MAX_FEE()": "bc063e1a",
			"MAX_FEE_INTERNAL()": "8137b6a7",
			"burnFee()": "fce589d8",
			"buybackFee()": "3b2d081c",
			"devFee()": "6827e764",
			"getFees()": "db8d55f1",
			"liquidityFee()": "98118cb4",
			"marketingFee()": "6b67c4df",
			"owner()": "8da5cb5b",
			"renounceOwnership()": "715018a6",
			"setFees(uint256,uint256,uint256,uint256,uint256)": "04a66b48",
			"swapAndSend(address,address,uint256)": "36ff71a6",
			"token()": "fc0c546a",
			"transferOwnership(address)": "f2fde38b"
		}
	},
	"abi": [
		{
			"inputs": [
				{
					"internalType": "address",
					"name": "_token",
					"type": "address"
				},
				{
					"internalType": "address",
					"name": "initialOwner",
					"type": "address"
				}
			],
			"stateMutability": "nonpayable",
			"type": "constructor"
		},
		{
			"inputs": [
				{
					"internalType": "address",
					"name": "owner",
					"type": "address"
				}
			],
			"name": "OwnableInvalidOwner",
			"type": "error"
		},
		{
			"inputs": [
				{
					"internalType": "address",
					"name": "account",
					"type": "address"
				}
			],
			"name": "OwnableUnauthorizedAccount",
			"type": "error"
		},
		{
			"inputs": [
				{
					"internalType": "address",
					"name": "token",
					"type": "address"
				}
			],
			"name": "SafeERC20FailedOperation",
			"type": "error"
		},
		{
			"anonymous": false,
			"inputs": [
				{
					"indexed": true,
					"internalType": "address",
					"name": "previousOwner",
					"type": "address"
				},
				{
					"indexed": true,
					"internalType": "address",
					"name": "newOwner",
					"type": "address"
				}
			],
			"name": "OwnershipTransferred",
			"type": "event"
		},
		{
			"inputs": [],
			"name": "MAX_FEE",
			"outputs": [
				{
					"internalType": "uint256",
					"name": "",
					"type": "uint256"
				}
			],
			"stateMutability": "view",
			"type": "function"
		},
		{
			"inputs": [],
			"name": "MAX_FEE_INTERNAL",
			"outputs": [
				{
					"internalType": "uint256",
					"name": "",
					"type": "uint256"
				}
			],
			"stateMutability": "view",
			"type": "function"
		},
		{
			"inputs": [],
			"name": "burnFee",
			"outputs": [
				{
					"internalType": "uint256",
					"name": "",
					"type": "uint256"
				}
			],
			"stateMutability": "view",
			"type": "function"
		},
		{
			"inputs": [],
			"name": "buybackFee",
			"outputs": [
				{
					"internalType": "uint256",
					"name": "",
					"type": "uint256"
				}
			],
			"stateMutability": "view",
			"type": "function"
		},
		{
			"inputs": [],
			"name": "devFee",
			"outputs": [
				{
					"internalType": "uint256",
					"name": "",
					"type": "uint256"
				}
			],
			"stateMutability": "view",
			"type": "function"
		},
		{
			"inputs": [],
			"name": "getFees",
			"outputs": [
				{
					"internalType": "uint256",
					"name": "totalFee",
					"type": "uint256"
				},
				{
					"internalType": "uint256",
					"name": "_burnFee",
					"type": "uint256"
				},
				{
					"internalType": "uint256",
					"name": "_liquidityFee",
					"type": "uint256"
				},
				{
					"internalType": "uint256",
					"name": "_devFee",
					"type": "uint256"
				},
				{
					"internalType": "uint256",
					"name": "_marketingFee",
					"type": "uint256"
				},
				{
					"internalType": "uint256",
					"name": "_buybackFee",
					"type": "uint256"
				}
			],
			"stateMutability": "view",
			"type": "function"
		},
		{
			"inputs": [],
			"name": "liquidityFee",
			"outputs": [
				{
					"internalType": "uint256",
					"name": "",
					"type": "uint256"
				}
			],
			"stateMutability": "view",
			"type": "function"
		},
		{
			"inputs": [],
			"name": "marketingFee",
			"outputs": [
				{
					"internalType": "uint256",
					"name": "",
					"type": "uint256"
				}
			],
			"stateMutability": "view",
			"type": "function"
		},
		{
			"inputs": [],
			"name": "owner",
			"outputs": [
				{
					"internalType": "address",
					"name": "",
					"type": "address"
				}
			],
			"stateMutability": "view",
			"type": "function"
		},
		{
			"inputs": [],
			"name": "renounceOwnership",
			"outputs": [],
			"stateMutability": "nonpayable",
			"type": "function"
		},
		{
			"inputs": [
				{
					"internalType": "uint256",
					"name": "_buybackFee",
					"type": "uint256"
				},
				{
					"internalType": "uint256",
					"name": "_burnFee",
					"type": "uint256"
				},
				{
					"internalType": "uint256",
					"name": "_devFee",
					"type": "uint256"
				},
				{
					"internalType": "uint256",
					"name": "_liquidityFee",
					"type": "uint256"
				},
				{
					"internalType": "uint256",
					"name": "_marketingFee",
					"type": "uint256"
				}
			],
			"name": "setFees",
			"outputs": [],
			"stateMutability": "nonpayable",
			"type": "function"
		},
		{
			"inputs": [
				{
					"internalType": "address",
					"name": "_router",
					"type": "address"
				},
				{
					"internalType": "address",
					"name": "_to",
					"type": "address"
				},
				{
					"internalType": "uint256",
					"name": "_amountIn",
					"type": "uint256"
				}
			],
			"name": "swapAndSend",
			"outputs": [],
			"stateMutability": "nonpayable",
			"type": "function"
		},
		{
			"inputs": [],
			"name": "token",
			"outputs": [
				{
					"internalType": "contract IERC20",
					"name": "",
					"type": "address"
				}
			],
			"stateMutability": "view",
			"type": "function"
		},
		{
			"inputs": [
				{
					"internalType": "address",
					"name": "newOwner",
					"type": "address"
				}
			],
			"name": "transferOwnership",
			"outputs": [],
			"stateMutability": "nonpayable",
			"type": "function"
		}
	]
}